{
  "_format": "hh-sol-artifact-1",
  "contractName": "AirdropPool",
  "sourceName": "contracts/AirdropPool.sol",
  "abi": [
    {
      "inputs": [
        {
          "internalType": "address",
          "name": "_tokenAddress",
          "type": "address"
        },
        {
          "internalType": "string",
          "name": "_metaData",
          "type": "string"
        }
      ],
      "stateMutability": "nonpayable",
      "type": "constructor"
    },
    {
      "anonymous": false,
      "inputs": [
        {
          "indexed": true,
          "internalType": "address",
          "name": "account",
          "type": "address"
        }
      ],
      "name": "AirdropCancelled",
      "type": "event"
    },
    {
      "anonymous": false,
      "inputs": [],
      "name": "AirdropEnded",
      "type": "event"
    },
    {
      "anonymous": false,
      "inputs": [
        {
          "indexed": false,
          "internalType": "uint256",
          "name": "startTime",
          "type": "uint256"
        }
      ],
      "name": "AirdropStarted",
      "type": "event"
    },
    {
      "anonymous": false,
      "inputs": [
        {
          "indexed": true,
          "internalType": "address",
          "name": "beneficiary",
          "type": "address"
        },
        {
          "indexed": false,
          "internalType": "uint256",
          "name": "amount",
          "type": "uint256"
        }
      ],
      "name": "AllocationSet",
      "type": "event"
    },
    {
      "anonymous": false,
      "inputs": [
        {
          "indexed": true,
          "internalType": "address",
          "name": "previousOwner",
          "type": "address"
        },
        {
          "indexed": true,
          "internalType": "address",
          "name": "newOwner",
          "type": "address"
        }
      ],
      "name": "OwnershipTransferred",
      "type": "event"
    },
    {
      "anonymous": false,
      "inputs": [
        {
          "indexed": false,
          "internalType": "uint8",
          "name": "tgePercent",
          "type": "uint8"
        },
        {
          "indexed": false,
          "internalType": "uint8",
          "name": "cyclePercent",
          "type": "uint8"
        },
        {
          "indexed": false,
          "internalType": "uint256",
          "name": "cycleTime",
          "type": "uint256"
        }
      ],
      "name": "VestingEnabled",
      "type": "event"
    },
    {
      "inputs": [
        {
          "internalType": "address",
          "name": "",
          "type": "address"
        }
      ],
      "name": "Allocations",
      "outputs": [
        {
          "internalType": "uint256",
          "name": "",
          "type": "uint256"
        }
      ],
      "stateMutability": "view",
      "type": "function"
    },
    {
      "inputs": [],
      "name": "airdrop",
      "outputs": [
        {
          "internalType": "address",
          "name": "tokenAddress",
          "type": "address"
        },
        {
          "internalType": "uint256",
          "name": "startTime",
          "type": "uint256"
        },
        {
          "internalType": "uint8",
          "name": "tgePercent",
          "type": "uint8"
        },
        {
          "internalType": "uint8",
          "name": "cyclePercent",
          "type": "uint8"
        },
        {
          "internalType": "uint256",
          "name": "cycleTime",
          "type": "uint256"
        },
        {
          "internalType": "uint8",
          "name": "totalparticipants",
          "type": "uint8"
        },
        {
          "internalType": "uint256",
          "name": "totalAllocationAmount",
          "type": "uint256"
        },
        {
          "internalType": "uint256",
          "name": "totalClaimed",
          "type": "uint256"
        },
        {
          "internalType": "enum AirdropPool.AirdropState",
          "name": "state",
          "type": "uint8"
        },
        {
          "internalType": "string",
          "name": "metaData",
          "type": "string"
        }
      ],
      "stateMutability": "view",
      "type": "function"
    },
    {
      "inputs": [
        {
          "internalType": "uint256",
          "name": "",
          "type": "uint256"
        }
      ],
      "name": "allocationRecords",
      "outputs": [
        {
          "internalType": "address",
          "name": "user",
          "type": "address"
        },
        {
          "internalType": "uint256",
          "name": "amount",
          "type": "uint256"
        }
      ],
      "stateMutability": "view",
      "type": "function"
    },
    {
      "inputs": [],
      "name": "cancelAirdrop",
      "outputs": [],
      "stateMutability": "nonpayable",
      "type": "function"
    },
    {
      "inputs": [],
      "name": "claim",
      "outputs": [],
      "stateMutability": "nonpayable",
      "type": "function"
    },
    {
      "inputs": [
        {
          "internalType": "address",
          "name": "",
          "type": "address"
        }
      ],
      "name": "claimed",
      "outputs": [
        {
          "internalType": "uint256",
          "name": "",
          "type": "uint256"
        }
      ],
      "stateMutability": "view",
      "type": "function"
    },
    {
      "inputs": [],
      "name": "getAirdropState",
      "outputs": [
        {
          "internalType": "string",
          "name": "",
          "type": "string"
        }
      ],
      "stateMutability": "view",
      "type": "function"
    },
    {
      "inputs": [],
      "name": "getAllAllocation",
      "outputs": [
        {
          "components": [
            {
              "internalType": "address",
              "name": "user",
              "type": "address"
            },
            {
              "internalType": "uint256",
              "name": "amount",
              "type": "uint256"
            }
          ],
          "internalType": "struct AirdropPool.AllocationRecord[]",
          "name": "",
          "type": "tuple[]"
        }
      ],
      "stateMutability": "view",
      "type": "function"
    },
    {
      "inputs": [],
      "name": "getPoolDetails",
      "outputs": [
        {
          "components": [
            {
              "internalType": "address",
              "name": "tokenAddress",
              "type": "address"
            },
            {
              "internalType": "uint256",
              "name": "startTime",
              "type": "uint256"
            },
            {
              "internalType": "uint8",
              "name": "tgePercent",
              "type": "uint8"
            },
            {
              "internalType": "uint8",
              "name": "cyclePercent",
              "type": "uint8"
            },
            {
              "internalType": "uint256",
              "name": "cycleTime",
              "type": "uint256"
            },
            {
              "internalType": "uint8",
              "name": "totalparticipants",
              "type": "uint8"
            },
            {
              "internalType": "uint256",
              "name": "totalAllocationAmount",
              "type": "uint256"
            },
            {
              "internalType": "uint256",
              "name": "totalClaimed",
              "type": "uint256"
            },
            {
              "internalType": "enum AirdropPool.AirdropState",
              "name": "state",
              "type": "uint8"
            },
            {
              "internalType": "string",
              "name": "metaData",
              "type": "string"
            }
          ],
          "internalType": "struct AirdropPool.Airdrop",
          "name": "",
          "type": "tuple"
        }
      ],
      "stateMutability": "view",
      "type": "function"
    },
    {
      "inputs": [],
      "name": "getSaleStartTime",
      "outputs": [
        {
          "internalType": "uint256",
          "name": "",
          "type": "uint256"
        }
      ],
      "stateMutability": "view",
      "type": "function"
    },
    {
      "inputs": [],
      "name": "getTotalAllocationAmount",
      "outputs": [
        {
          "internalType": "uint256",
          "name": "",
          "type": "uint256"
        }
      ],
      "stateMutability": "view",
      "type": "function"
    },
    {
      "inputs": [],
      "name": "getTotalClaimed",
      "outputs": [
        {
          "internalType": "uint256",
          "name": "",
          "type": "uint256"
        }
      ],
      "stateMutability": "view",
      "type": "function"
    },
    {
      "inputs": [],
      "name": "getTotalParticipantCount",
      "outputs": [
        {
          "internalType": "uint256",
          "name": "",
          "type": "uint256"
        }
      ],
      "stateMutability": "view",
      "type": "function"
    },
    {
      "inputs": [
        {
          "internalType": "address",
          "name": "_user",
          "type": "address"
        }
      ],
      "name": "getUserAllocation",
      "outputs": [
        {
          "internalType": "uint256",
          "name": "",
          "type": "uint256"
        }
      ],
      "stateMutability": "view",
      "type": "function"
    },
    {
      "inputs": [
        {
          "internalType": "address",
          "name": "_user",
          "type": "address"
        }
      ],
      "name": "getUserClaimed",
      "outputs": [
        {
          "internalType": "uint256",
          "name": "",
          "type": "uint256"
        }
      ],
      "stateMutability": "view",
      "type": "function"
    },
    {
      "inputs": [
        {
          "internalType": "address",
          "name": "user",
          "type": "address"
        }
      ],
      "name": "nextClaimTime",
      "outputs": [
        {
          "internalType": "uint256",
          "name": "",
          "type": "uint256"
        }
      ],
      "stateMutability": "view",
      "type": "function"
    },
    {
      "inputs": [],
      "name": "owner",
      "outputs": [
        {
          "internalType": "address",
          "name": "",
          "type": "address"
        }
      ],
      "stateMutability": "view",
      "type": "function"
    },
    {
      "inputs": [],
      "name": "remove_ALL_Allocation",
      "outputs": [],
      "stateMutability": "nonpayable",
      "type": "function"
    },
    {
      "inputs": [],
      "name": "renounceOwnership",
      "outputs": [],
      "stateMutability": "nonpayable",
      "type": "function"
    },
    {
      "inputs": [
        {
          "internalType": "address[]",
          "name": "_allocationAddress",
          "type": "address[]"
        },
        {
          "internalType": "uint256[]",
          "name": "_amounts",
          "type": "uint256[]"
        }
      ],
      "name": "setAllocation",
      "outputs": [],
      "stateMutability": "nonpayable",
      "type": "function"
    },
    {
      "inputs": [
        {
          "internalType": "uint8",
          "name": "_tgePercent",
          "type": "uint8"
        },
        {
          "internalType": "uint8",
          "name": "_cyclePercent",
          "type": "uint8"
        },
        {
          "internalType": "uint256",
          "name": "_cycleTime",
          "type": "uint256"
        }
      ],
      "name": "setVesting",
      "outputs": [],
      "stateMutability": "nonpayable",
      "type": "function"
    },
    {
      "inputs": [
        {
          "internalType": "uint256",
          "name": "_startTime",
          "type": "uint256"
        }
      ],
      "name": "startAirdrop",
      "outputs": [],
      "stateMutability": "nonpayable",
      "type": "function"
    },
    {
      "inputs": [
        {
          "internalType": "address",
          "name": "newOwner",
          "type": "address"
        }
      ],
      "name": "transferOwnership",
      "outputs": [],
      "stateMutability": "nonpayable",
      "type": "function"
    },
    {
      "inputs": [
        {
          "internalType": "address",
          "name": "user",
          "type": "address"
        }
      ],
      "name": "withdrawableTokens",
      "outputs": [
        {
          "internalType": "uint256",
          "name": "",
          "type": "uint256"
        }
      ],
      "stateMutability": "view",
      "type": "function"
    }
  ],
  "bytecode": "0x608060405234801561000f575f80fd5b5060405161203f38038061203f83398101604081905261002e916100d7565b61003733610074565b60018055600480546001600160a01b0319166001600160a01b038416179055600c610062828261022a565b5050600b805460ff19169055506102e4565b5f80546001600160a01b038381166001600160a01b0319831681178455604051919092169283917f8be0079c531659141344cd1fd0a4f28419497f9722a3daafe3b4186f6b6457e09190a35050565b634e487b7160e01b5f52604160045260245ffd5b5f80604083850312156100e8575f80fd5b82516001600160a01b03811681146100fe575f80fd5b60208401519092506001600160401b03811115610119575f80fd5b8301601f81018513610129575f80fd5b80516001600160401b03811115610142576101426100c3565b604051601f8201601f19908116603f011681016001600160401b0381118282101715610170576101706100c3565b604052818152828201602001871015610187575f80fd5b8160208401602083015e5f602083830101528093505050509250929050565b600181811c908216806101ba57607f821691505b6020821081036101d857634e487b7160e01b5f52602260045260245ffd5b50919050565b601f82111561022557805f5260205f20601f840160051c810160208510156102035750805b601f840160051c820191505b81811015610222575f815560010161020f565b50505b505050565b81516001600160401b03811115610243576102436100c3565b6102578161025184546101a6565b846101de565b6020601f821160018114610289575f83156102725750848201515b5f19600385901b1c1916600184901b178455610222565b5f84815260208120601f198516915b828110156102b85787850151825560209485019460019092019101610298565b50848210156102d557868401515f19600387901b60f8161c191681555b50505050600190811b01905550565b611d4e806102f15f395ff3fe608060405234801561000f575f80fd5b5060043610610152575f3560e01c8063920b79be116100bf578063c55321e611610079578063c55321e6146102d8578063c884ef8314610300578063cdcfe2ea1461031f578063f2fde38b14610327578063f715c99e1461033a578063fba6610e14610342575f80fd5b8063920b79be14610259578063aca34c1114610261578063afda657514610276578063b920ade214610295578063beae207f146102bd578063c2b1ddaf146102d0575f80fd5b8063715018a611610110578063715018a6146101d5578063736a83a1146101dd57806375870c72146101e557806380b825a6146102175780638da5cb5b1461022c5780638ec22a4d14610246575f80fd5b80626f6ad0146101565780633102b21a1461017c5780633884d6351461019157806340b33161146101af5780634e71d92d146101ba57806370f23da7146101c2575b5f80fd5b6101696101643660046118c6565b610357565b6040519081526020015b60405180910390f35b61018f61018a366004611934565b610367565b005b6101996106cf565b6040516101739a99989796959493929190611a02565b60085460ff16610169565b61018f61079c565b6101696101d03660046118c6565b610983565b61018f610aa2565b600a54610169565b6101f86101f3366004611a76565b610ab5565b604080516001600160a01b039093168352602083019190915201610173565b61021f610aeb565b6040516101739190611a8d565b5f546040516001600160a01b039091168152602001610173565b61018f610254366004611ab4565b610c0c565b61018f610dce565b610269610e88565b6040516101739190611aee565b6101696102843660046118c6565b60026020525f908152604090205481565b6101696102a33660046118c6565b6001600160a01b03165f9081526002602052604090205490565b61018f6102cb366004611a76565b611006565b600554610169565b6101696102e63660046118c6565b6001600160a01b03165f9081526003602052604090205490565b61016961030e3660046118c6565b60036020525f908152604090205481565b600954610169565b61018f6103353660046118c6565b611237565b61018f6112b0565b61034a611356565b6040516101739190611b9b565b5f610361826113c9565b92915050565b61036f611411565b5f600b5460ff166003811115610387576103876119a0565b146103f75760405162461bcd60e51b815260206004820152603560248201527f416c6c6f636174696f6e732063616e206f6e6c7920626520736574206265666f6044820152747265207468652061697264726f702073746172747360581b60648201526084015b60405180910390fd5b821580159061040557508015155b6104515760405162461bcd60e51b815260206004820152601760248201527f416c6c6f636174696f6e2061727261797320656d70747900000000000000000060448201526064016103ee565b8281146104985760405162461bcd60e51b8152602060048201526015602482015274082e4e4c2f240d8cadccee8d040dad2e6dac2e8c6d605b1b60448201526064016103ee565b5f5b838110156106c857600d60405180604001604052808787858181106104c1576104c1611bf2565b90506020020160208101906104d691906118c6565b6001600160a01b031681526020018585858181106104f6576104f6611bf2565b602090810292909201359092528354600180820186555f95865294829020845160029092020180546001600160a01b0319166001600160a01b0390921691909117815592015191909201555061056983838381811061055757610557611bf2565b6009549260209091020135905061146a565b6009556008805460ff16905f61057e83611c1a565b91906101000a81548160ff021916908360ff160217905550506105fc8383838181106105ac576105ac611bf2565b9050602002013560025f8888868181106105c8576105c8611bf2565b90506020020160208101906105dd91906118c6565b6001600160a01b0316815260208101919091526040015f20549061146a565b60025f87878581811061061157610611611bf2565b905060200201602081019061062691906118c6565b6001600160a01b0316815260208101919091526040015f205584848281811061065157610651611bf2565b905060200201602081019061066691906118c6565b6001600160a01b03167fedfc909d0ab2a1625b7911d925efbd8200cdd99d4c7ba44e720328b17879f0b38484848181106106a2576106a2611bf2565b905060200201356040516106b891815260200190565b60405180910390a260010161049a565b5050505050565b60048054600554600654600754600854600954600a54600b54600c80546001600160a01b0390991699979860ff8089169961010090990481169896811696931692919061071b90611c38565b80601f016020809104026020016040519081016040528092919081815260200182805461074790611c38565b80156107925780601f1061076957610100808354040283529160200191610792565b820191905f5260205f20905b81548152906001019060200180831161077557829003601f168201915b505050505090508a565b6002600154036107ee5760405162461bcd60e51b815260206004820152601f60248201527f5265656e7472616e637947756172643a207265656e7472616e742063616c6c0060448201526064016103ee565b60026001908155600b5460ff16600381111561080c5761080c6119a0565b1461084c5760405162461bcd60e51b815260206004820152601060248201526f41697264726f70206e6f74206c69766560801b60448201526064016103ee565b335f90815260026020526040902054806108995760405162461bcd60e51b815260206004820152600e60248201526d27379030b63637b1b0ba34b337b760911b60448201526064016103ee565b5f6108a3336113c9565b90505f81116108eb5760405162461bcd60e51b8152602060048201526014602482015273139bdd1a1a5b99c81d5b9b1bd8dad959081e595d60621b60448201526064016103ee565b335f90815260036020526040902054610904908261146a565b335f90815260036020526040902055600a54610920908261146a565b600a5560045461093a906001600160a01b0316338361147c565b600954600a541061097b57600b805460ff191660021790556040517fc3bba9e064a9d4dbeb81cb80c5b84377b553b2fa06c9f773ee311a921f0f8879905f90a15b505060018055565b5f6001600b5460ff16600381111561099d5761099d6119a0565b1415806109bf57506001600160a01b0382165f90815260026020526040902054155b806109cd575060065460ff16155b156109d957505f919050565b6005544210156109eb57505060055490565b5f6109f5836114e4565b6001600160a01b0384165f9081526003602052604090205490915080821115610a2157505f9392505050565b6001600160a01b0384165f908152600260205260409020548203610a4857505f9392505050565b6005545f90610a579042611c70565b6007549091505f90610a699083611c83565b90505f610a77826001611ca2565b6007549091505f90610a899083611cb5565b600554610a969190611ca2565b98975050505050505050565b610aaa611411565b610ab35f6115f6565b565b600d8181548110610ac4575f80fd5b5f918252602090912060029091020180546001909101546001600160a01b03909116915082565b60605f600b5460ff166003811115610b0557610b056119a0565b03610b2d57506040805180820190915260088152675570636f6d696e6760c01b602082015290565b6001600b5460ff166003811115610b4657610b466119a0565b03610b6a57506040805180820190915260048152634c69766560e01b602082015290565b6002600b5460ff166003811115610b8357610b836119a0565b03610ba85750604080518082019091526005815264115b99195960da1b602082015290565b6003600b5460ff166003811115610bc157610bc16119a0565b03610bea575060408051808201909152600981526810d85b98d95b1b195960ba1b602082015290565b506040805180820190915260078152662ab735b737bbb760c91b602082015290565b610c14611411565b5f600b5460ff166003811115610c2c57610c2c6119a0565b14610c935760405162461bcd60e51b815260206004820152603160248201527f56657374696e672063616e206f6e6c7920626520736574206265666f7265207460448201527068652061697264726f702073746172747360781b60648201526084016103ee565b60648360ff161115610cd75760405162461bcd60e51b815260206004820152600d60248201526c496e76616c696420544745202560981b60448201526064016103ee565b60648260ff161115610d1d5760405162461bcd60e51b815260206004820152600f60248201526e496e76616c6964206379636c65202560881b60448201526064016103ee565b603c811015610d635760405162461bcd60e51b8152602060048201526012602482015271496e76616c6964206379636c652074696d6560701b60448201526064016103ee565b6006805460ff85811661ffff1990921682176101009186169182021790925560078390556040805191825260208201929092529081018290527f5bc1c2ecffbb5d350ea62c73bfad90c9b36d846be91fbb798132ba2419b197399060600160405180910390a1505050565b610dd6611411565b600d54610e195760405162461bcd60e51b8152602060048201526011602482015270139bc81d5cd95c88185b1b1bd8d85d1959607a1b60448201526064016103ee565b5f5b600d54811015610e70575f600d8281548110610e3957610e39611bf2565b5f9182526020808320600292830201546001600160a01b031683529081526040808320839055600390915281205550600101610e1b565b505f6009819055600a819055610ab390600d90611884565b610ede60408051610140810182525f80825260208201819052918101829052606081018290526080810182905260a0810182905260c0810182905260e08101829052906101008201908152602001606081525090565b6040805161014081018252600480546001600160a01b03168252600554602083015260065460ff8082169484019490945261010090819004841660608401526007546080840152600854841660a084015260095460c0840152600a5460e0840152600b549293919290840191166003811115610f5c57610f5c6119a0565b6003811115610f6d57610f6d6119a0565b8152602001600882018054610f8190611c38565b80601f0160208091040260200160405190810160405280929190818152602001828054610fad90611c38565b8015610ff85780601f10610fcf57610100808354040283529160200191610ff8565b820191905f5260205f20905b815481529060010190602001808311610fdb57829003601f168201915b505050505081525050905090565b61100e611411565b5f600b5460ff166003811115611026576110266119a0565b146110735760405162461bcd60e51b815260206004820181905260248201527f41697264726f7020616c72656164792073746172746564206f7220656e64656460448201526064016103ee565b6009546110b95760405162461bcd60e51b815260206004820152601460248201527304e6f20746f6b656e7320746f2041697264726f760641b60448201526064016103ee565b804211156111095760405162461bcd60e51b815260206004820152601c60248201527f54696d652073686f756c6420626520696e20746865206675747572650000000060448201526064016103ee565b600954600480546040516370a0823160e01b815233928101929092526001600160a01b0316906370a0823190602401602060405180830381865afa158015611153573d5f803e3d5ffd5b505050506040513d601f19601f820116820180604052508101906111779190611ccc565b10156111d05760405162461bcd60e51b815260206004820152602260248201527f496e73756666696369656e7420616d6f756e7420696e20796f75722077616c6c604482015261195d60f21b60648201526084016103ee565b6005819055600b805460ff19166001179055600954600454611201916001600160a01b039091169033903090611645565b6040518181527fff6804314fdea3ae59672164589a4f400b16ef5d59647af5fdca0c1c7809c3cc9060200160405180910390a150565b61123f611411565b6001600160a01b0381166112a45760405162461bcd60e51b815260206004820152602660248201527f4f776e61626c653a206e6577206f776e657220697320746865207a65726f206160448201526564647265737360d01b60648201526084016103ee565b6112ad816115f6565b50565b6112b8611411565b5f600b5460ff1660038111156112d0576112d06119a0565b1461131d5760405162461bcd60e51b815260206004820152601b60248201527f41697264726f702063616e6e6f742062652063616e63656c6c6564000000000060448201526064016103ee565b600b805460ff1916600317905560405133907f352a2d7394eda2c2aef340deeed8854b1961b91ec28f0b2c531cfb2eff4b10ad905f90a2565b6060600d805480602002602001604051908101604052809291908181526020015f905b828210156113c0575f848152602090819020604080518082019091526002850290910180546001600160a01b03168252600190810154828401529083529092019101611379565b50505050905090565b5f806113d4836114e4565b6001600160a01b0384165f908152600360205260409020549091508082116113ff57505f9392505050565b6114098282611683565b949350505050565b5f546001600160a01b03163314610ab35760405162461bcd60e51b815260206004820181905260248201527f4f776e61626c653a2063616c6c6572206973206e6f7420746865206f776e657260448201526064016103ee565b5f6114758284611ca2565b9392505050565b6040516001600160a01b0383166024820152604481018290526114df90849063a9059cbb60e01b906064015b60408051601f198184030181529190526020810180516001600160e01b03166001600160e01b03199093169290921790915261168e565b505050565b6001600160a01b0381165f9081526002602052604081205480820361150b57505f92915050565b60065460ff165f0361151d5792915050565b60055442101561152f57505f92915050565b6006545f9061154f9060649061154990859060ff1661175f565b9061176a565b60055490915081905f90611564904290611683565b90505f81118015611576575060075415155b801561158b5750600654610100900460ff1615155b156115ed576007545f906115a090839061176a565b6006549091505f906115c290606490611549908990610100900460ff1661175f565b90505f6115cf828461175f565b90506115db858261146a565b9450868511156115e9578694505b5050505b50949350505050565b5f80546001600160a01b038381166001600160a01b0319831681178455604051919092169283917f8be0079c531659141344cd1fd0a4f28419497f9722a3daafe3b4186f6b6457e09190a35050565b6040516001600160a01b038085166024830152831660448201526064810182905261167d9085906323b872dd60e01b906084016114a8565b50505050565b5f6114758284611c70565b5f6116e2826040518060400160405280602081526020017f5361666545524332303a206c6f772d6c6576656c2063616c6c206661696c6564815250856001600160a01b03166117759092919063ffffffff16565b8051909150156114df57808060200190518101906117009190611ce3565b6114df5760405162461bcd60e51b815260206004820152602a60248201527f5361666545524332303a204552433230206f7065726174696f6e20646964206e6044820152691bdd081cdd58d8d9595960b21b60648201526084016103ee565b5f6114758284611cb5565b5f6114758284611c83565b606061140984845f85856001600160a01b0385163b6117d65760405162461bcd60e51b815260206004820152601d60248201527f416464726573733a2063616c6c20746f206e6f6e2d636f6e747261637400000060448201526064016103ee565b5f80866001600160a01b031685876040516117f19190611d02565b5f6040518083038185875af1925050503d805f811461182b576040519150601f19603f3d011682016040523d82523d5f602084013e611830565b606091505b509150915061184082828661184b565b979650505050505050565b6060831561185a575081611475565b82511561186a5782518084602001fd5b8160405162461bcd60e51b81526004016103ee9190611a8d565b5080545f8255600202905f5260205f20908101906112ad91905b808211156118c25780546001600160a01b03191681555f600182015560020161189e565b5090565b5f602082840312156118d6575f80fd5b81356001600160a01b0381168114611475575f80fd5b5f8083601f8401126118fc575f80fd5b50813567ffffffffffffffff811115611913575f80fd5b6020830191508360208260051b850101111561192d575f80fd5b9250929050565b5f805f8060408587031215611947575f80fd5b843567ffffffffffffffff81111561195d575f80fd5b611969878288016118ec565b909550935050602085013567ffffffffffffffff811115611988575f80fd5b611994878288016118ec565b95989497509550505050565b634e487b7160e01b5f52602160045260245ffd5b600481106119d057634e487b7160e01b5f52602160045260245ffd5b9052565b5f81518084528060208401602086015e5f602082860101526020601f19601f83011685010191505092915050565b60018060a01b038b16815289602082015260ff8916604082015260ff8816606082015286608082015260ff861660a08201528460c08201528360e0820152611a4e6101008201846119b4565b6101406101208201525f611a666101408301846119d4565b9c9b505050505050505050505050565b5f60208284031215611a86575f80fd5b5035919050565b602081525f61147560208301846119d4565b803560ff81168114611aaf575f80fd5b919050565b5f805f60608486031215611ac6575f80fd5b611acf84611a9f565b9250611add60208501611a9f565b929592945050506040919091013590565b60208152611b086020820183516001600160a01b03169052565b602082015160408201525f6040830151611b27606084018260ff169052565b50606083015160ff8116608084015250608083015160a083015260a0830151611b5560c084018260ff169052565b5060c083015160e083015260e0830151610100830152610100830151611b7f6101208401826119b4565b50610120830151610140808401526114096101608401826119d4565b602080825282518282018190525f918401906040840190835b81811015611be757835180516001600160a01b031684526020908101518185015290930192604090920191600101611bb4565b509095945050505050565b634e487b7160e01b5f52603260045260245ffd5b634e487b7160e01b5f52601160045260245ffd5b5f60ff821660ff8103611c2f57611c2f611c06565b60010192915050565b600181811c90821680611c4c57607f821691505b602082108103611c6a57634e487b7160e01b5f52602260045260245ffd5b50919050565b8181038181111561036157610361611c06565b5f82611c9d57634e487b7160e01b5f52601260045260245ffd5b500490565b8082018082111561036157610361611c06565b808202811582820484141761036157610361611c06565b5f60208284031215611cdc575f80fd5b5051919050565b5f60208284031215611cf3575f80fd5b81518015158114611475575f80fd5b5f82518060208501845e5f92019182525091905056fea264697066735822122032088beacfbbb8837d370af4b93b06d0ae862b138da2b926e0f877d0194427da64736f6c634300081a0033",
  "linkReferences": {},
  "deployedLinkReferences": {}
}