{
  "_format": "hh-sol-artifact-1",
  "contractName": "Multisender",
  "sourceName": "contracts/Multisender.sol",
  "abi": [
    {
      "inputs": [],
      "stateMutability": "nonpayable",
      "type": "constructor"
    },
    {
      "anonymous": false,
      "inputs": [
        {
          "indexed": true,
          "internalType": "address",
          "name": "previousOwner",
          "type": "address"
        },
        {
          "indexed": true,
          "internalType": "address",
          "name": "newOwner",
          "type": "address"
        }
      ],
      "name": "OwnershipTransferred",
      "type": "event"
    },
    {
      "inputs": [
        {
          "internalType": "address payable[]",
          "name": "_address",
          "type": "address[]"
        }
      ],
      "name": "SandEthEqaully",
      "outputs": [],
      "stateMutability": "payable",
      "type": "function"
    },
    {
      "inputs": [
        {
          "internalType": "address",
          "name": "_tokenAddress",
          "type": "address"
        },
        {
          "internalType": "address payable[]",
          "name": "_address",
          "type": "address[]"
        },
        {
          "internalType": "uint256",
          "name": "_amount",
          "type": "uint256"
        }
      ],
      "name": "SandTokenEqaully",
      "outputs": [],
      "stateMutability": "nonpayable",
      "type": "function"
    },
    {
      "inputs": [
        {
          "internalType": "address payable[]",
          "name": "_address",
          "type": "address[]"
        },
        {
          "internalType": "uint256[]",
          "name": "values",
          "type": "uint256[]"
        }
      ],
      "name": "SendEthByValue",
      "outputs": [],
      "stateMutability": "payable",
      "type": "function"
    },
    {
      "inputs": [
        {
          "internalType": "address",
          "name": "_tokenAddress",
          "type": "address"
        },
        {
          "internalType": "address payable[]",
          "name": "_address",
          "type": "address[]"
        },
        {
          "internalType": "uint256[]",
          "name": "values",
          "type": "uint256[]"
        }
      ],
      "name": "SendTokenByValue",
      "outputs": [],
      "stateMutability": "payable",
      "type": "function"
    },
    {
      "inputs": [],
      "name": "owner",
      "outputs": [
        {
          "internalType": "address",
          "name": "",
          "type": "address"
        }
      ],
      "stateMutability": "view",
      "type": "function"
    },
    {
      "inputs": [],
      "name": "recipentLimit",
      "outputs": [
        {
          "internalType": "uint16",
          "name": "",
          "type": "uint16"
        }
      ],
      "stateMutability": "view",
      "type": "function"
    },
    {
      "inputs": [],
      "name": "renounceOwnership",
      "outputs": [],
      "stateMutability": "nonpayable",
      "type": "function"
    },
    {
      "inputs": [
        {
          "internalType": "address",
          "name": "newOwner",
          "type": "address"
        }
      ],
      "name": "transferOwnership",
      "outputs": [],
      "stateMutability": "nonpayable",
      "type": "function"
    },
    {
      "inputs": [
        {
          "internalType": "address payable",
          "name": "_address",
          "type": "address"
        },
        {
          "internalType": "uint256",
          "name": "_value",
          "type": "uint256"
        }
      ],
      "name": "withdraw",
      "outputs": [],
      "stateMutability": "nonpayable",
      "type": "function"
    },
    {
      "inputs": [
        {
          "internalType": "address",
          "name": "_tokenAddress",
          "type": "address"
        },
        {
          "internalType": "address",
          "name": "_address",
          "type": "address"
        },
        {
          "internalType": "uint256",
          "name": "_value",
          "type": "uint256"
        }
      ],
      "name": "withdrawTokens",
      "outputs": [],
      "stateMutability": "nonpayable",
      "type": "function"
    },
    {
      "stateMutability": "payable",
      "type": "receive"
    }
  ],
  "bytecode": "0x6080604052348015600e575f80fd5b50601633601a565b6069565b5f80546001600160a01b038381166001600160a01b0319831681178455604051919092169283917f8be0079c531659141344cd1fd0a4f28419497f9722a3daafe3b4186f6b6457e09190a35050565b6109c2806100765f395ff3fe608060405260043610610092575f3560e01c806385a1dc161161005757806385a1dc161461013c5780638da5cb5b1461014f578063c8715eed14610175578063f2fde38b14610188578063f3fef3a3146101a7575f80fd5b806318903f631461009d5780631a37f4c4146100d557806354277b86146100ea5780635e35359e14610109578063715018a614610128575f80fd5b3661009957005b5f80fd5b3480156100a8575f80fd5b505f546100bd90600160a01b900461ffff1681565b60405161ffff90911681526020015b60405180910390f35b6100e86100e336600461071e565b6101c6565b005b3480156100f5575f80fd5b506100e861010436600461079e565b610266565b348015610114575f80fd5b506100e86101233660046107f6565b61034e565b348015610133575f80fd5b506100e86103cc565b6100e861014a366004610834565b6103df565b34801561015a575f80fd5b505f546040516001600160a01b0390911681526020016100cc565b6100e8610183366004610873565b610473565b348015610193575f80fd5b506100e86101a23660046108f5565b61055e565b3480156101b2575f80fd5b506100e86101c1366004610910565b6105dc565b825f5b8161ffff168161ffff16101561025e5785858261ffff168181106101ef576101ef61093a565b905060200201602081019061020491906108f5565b6001600160a01b03166108fc85858461ffff168181106102265761022661093a565b9050602002013590811502906040515f60405180830381858888f19350505050158015610255573d5f803e3d5ffd5b506001016101c9565b505050505050565b815f6102768361ffff841661061c565b9050855f5b8361ffff168161ffff16101561034457816001600160a01b03166323b872dd3389898561ffff168181106102b1576102b161093a565b90506020020160208101906102c691906108f5565b6040516001600160e01b031960e085901b1681526001600160a01b03928316600482015291166024820152604481018690526064016020604051808303815f875af1158015610317573d5f803e3d5ffd5b505050506040513d601f19601f8201168201806040525081019061033b919061094e565b5060010161027b565b5050505050505050565b61035661062e565b60405163a9059cbb60e01b81526001600160a01b0383811660048301526024820183905284169063a9059cbb906044016020604051808303815f875af11580156103a2573d5f803e3d5ffd5b505050506040513d601f19601f820116820180604052508101906103c6919061094e565b50505050565b6103d461062e565b6103dd5f610687565b565b805f6103ef3461ffff841661061c565b90505f5b8261ffff168161ffff16101561046c5784848261ffff168181106104195761041961093a565b905060200201602081019061042e91906108f5565b6001600160a01b03166108fc8390811502906040515f60405180830381858888f19350505050158015610463573d5f803e3d5ffd5b506001016103f3565b5050505050565b82855f5b8261ffff168161ffff16101561034457816001600160a01b03166323b872dd3389898561ffff168181106104ad576104ad61093a565b90506020020160208101906104c291906108f5565b88888661ffff168181106104d8576104d861093a565b6040516001600160e01b031960e088901b1681526001600160a01b039586166004820152949093166024850152506020909102013560448201526064016020604051808303815f875af1158015610531573d5f803e3d5ffd5b505050506040513d601f19601f82011682018060405250810190610555919061094e565b50600101610477565b61056661062e565b6001600160a01b0381166105d05760405162461bcd60e51b815260206004820152602660248201527f4f776e61626c653a206e6577206f776e657220697320746865207a65726f206160448201526564647265737360d01b60648201526084015b60405180910390fd5b6105d981610687565b50565b6105e461062e565b6040516001600160a01b0383169082156108fc029083905f818181858888f19350505050158015610617573d5f803e3d5ffd5b505050565b5f610627828461096d565b9392505050565b5f546001600160a01b031633146103dd5760405162461bcd60e51b815260206004820181905260248201527f4f776e61626c653a2063616c6c6572206973206e6f7420746865206f776e657260448201526064016105c7565b5f80546001600160a01b038381166001600160a01b0319831681178455604051919092169283917f8be0079c531659141344cd1fd0a4f28419497f9722a3daafe3b4186f6b6457e09190a35050565b5f8083601f8401126106e6575f80fd5b50813567ffffffffffffffff8111156106fd575f80fd5b6020830191508360208260051b8501011115610717575f80fd5b9250929050565b5f805f8060408587031215610731575f80fd5b843567ffffffffffffffff811115610747575f80fd5b610753878288016106d6565b909550935050602085013567ffffffffffffffff811115610772575f80fd5b61077e878288016106d6565b95989497509550505050565b6001600160a01b03811681146105d9575f80fd5b5f805f80606085870312156107b1575f80fd5b84356107bc8161078a565b9350602085013567ffffffffffffffff8111156107d7575f80fd5b6107e3878288016106d6565b9598909750949560400135949350505050565b5f805f60608486031215610808575f80fd5b83356108138161078a565b925060208401356108238161078a565b929592945050506040919091013590565b5f8060208385031215610845575f80fd5b823567ffffffffffffffff81111561085b575f80fd5b610867858286016106d6565b90969095509350505050565b5f805f805f60608688031215610887575f80fd5b85356108928161078a565b9450602086013567ffffffffffffffff8111156108ad575f80fd5b6108b9888289016106d6565b909550935050604086013567ffffffffffffffff8111156108d8575f80fd5b6108e4888289016106d6565b969995985093965092949392505050565b5f60208284031215610905575f80fd5b81356106278161078a565b5f8060408385031215610921575f80fd5b823561092c8161078a565b946020939093013593505050565b634e487b7160e01b5f52603260045260245ffd5b5f6020828403121561095e575f80fd5b81518015158114610627575f80fd5b5f8261098757634e487b7160e01b5f52601260045260245ffd5b50049056fea26469706673582212203675862062ae75a1af8bb0f511740e74a9562fc538e79a71bfe35d47ccac7aec64736f6c634300081a0033",
  "linkReferences": {},
  "deployedLinkReferences": {}
}