{
  "_format": "hh-sol-artifact-1",
  "contractName": "FairLaunchToken",
  "sourceName": "contracts/FairLaunchToken.sol",
  "abi": [
    {
      "inputs": [
        {
          "internalType": "contract ERC20",
          "name": "_saleToken",
          "type": "address"
        },
        {
          "internalType": "contract ERC20",
          "name": "_payToken",
          "type": "address"
        },
        {
          "components": [
            {
              "internalType": "uint256",
              "name": "tokenAmount",
              "type": "uint256"
            },
            {
              "internalType": "uint256",
              "name": "softCap",
              "type": "uint256"
            },
            {
              "internalType": "uint256",
              "name": "maxPay",
              "type": "uint256"
            },
            {
              "internalType": "uint256",
              "name": "lpPercentage",
              "type": "uint256"
            }
          ],
          "internalType": "struct FairLaunchToken.SaleInfo",
          "name": "_saleInfo",
          "type": "tuple"
        },
        {
          "components": [
            {
              "internalType": "uint256",
              "name": "startTimestamp",
              "type": "uint256"
            },
            {
              "internalType": "uint256",
              "name": "endTimestamp",
              "type": "uint256"
            },
            {
              "internalType": "uint256",
              "name": "unlockTimestamp",
              "type": "uint256"
            }
          ],
          "internalType": "struct FairLaunchToken.Timestamps",
          "name": "_timestamps",
          "type": "tuple"
        },
        {
          "components": [
            {
              "internalType": "address",
              "name": "router",
              "type": "address"
            },
            {
              "internalType": "address",
              "name": "factory",
              "type": "address"
            },
            {
              "internalType": "address",
              "name": "weth",
              "type": "address"
            }
          ],
          "internalType": "struct FairLaunchToken.DexInfo",
          "name": "_dexInfo",
          "type": "tuple"
        },
        {
          "internalType": "address",
          "name": "_lockerAddress",
          "type": "address"
        },
        {
          "internalType": "string",
          "name": "_metaDataURL",
          "type": "string"
        },
        {
          "internalType": "address",
          "name": "_feeWallet",
          "type": "address"
        },
        {
          "internalType": "uint256",
          "name": "_feePercent",
          "type": "uint256"
        }
      ],
      "stateMutability": "nonpayable",
      "type": "constructor"
    },
    {
      "anonymous": false,
      "inputs": [
        {
          "indexed": true,
          "internalType": "address",
          "name": "previousOwner",
          "type": "address"
        },
        {
          "indexed": true,
          "internalType": "address",
          "name": "newOwner",
          "type": "address"
        }
      ],
      "name": "OwnershipTransferred",
      "type": "event"
    },
    {
      "anonymous": false,
      "inputs": [
        {
          "indexed": false,
          "internalType": "uint256",
          "name": "timestamps",
          "type": "uint256"
        }
      ],
      "name": "PoolCancelled",
      "type": "event"
    },
    {
      "anonymous": false,
      "inputs": [
        {
          "indexed": true,
          "internalType": "address",
          "name": "holder",
          "type": "address"
        },
        {
          "indexed": false,
          "internalType": "uint256",
          "name": "payAmount",
          "type": "uint256"
        },
        {
          "indexed": false,
          "internalType": "uint256",
          "name": "tokenAmount",
          "type": "uint256"
        }
      ],
      "name": "TokenDebt",
      "type": "event"
    },
    {
      "anonymous": false,
      "inputs": [
        {
          "indexed": true,
          "internalType": "address",
          "name": "holder",
          "type": "address"
        },
        {
          "indexed": false,
          "internalType": "uint256",
          "name": "amount",
          "type": "uint256"
        }
      ],
      "name": "TokenWithdrawn",
      "type": "event"
    },
    {
      "inputs": [],
      "name": "CurrentTokenRate",
      "outputs": [
        {
          "internalType": "uint256",
          "name": "",
          "type": "uint256"
        }
      ],
      "stateMutability": "view",
      "type": "function"
    },
    {
      "inputs": [],
      "name": "Finalize",
      "outputs": [],
      "stateMutability": "nonpayable",
      "type": "function"
    },
    {
      "inputs": [],
      "name": "IsPoolCancel",
      "outputs": [
        {
          "internalType": "bool",
          "name": "",
          "type": "bool"
        }
      ],
      "stateMutability": "view",
      "type": "function"
    },
    {
      "inputs": [],
      "name": "cancelSale",
      "outputs": [],
      "stateMutability": "nonpayable",
      "type": "function"
    },
    {
      "inputs": [],
      "name": "claim",
      "outputs": [],
      "stateMutability": "nonpayable",
      "type": "function"
    },
    {
      "inputs": [
        {
          "internalType": "address",
          "name": "_user",
          "type": "address"
        }
      ],
      "name": "claimFor",
      "outputs": [],
      "stateMutability": "nonpayable",
      "type": "function"
    },
    {
      "inputs": [],
      "name": "dexInfo",
      "outputs": [
        {
          "internalType": "address",
          "name": "router",
          "type": "address"
        },
        {
          "internalType": "address",
          "name": "factory",
          "type": "address"
        },
        {
          "internalType": "address",
          "name": "weth",
          "type": "address"
        }
      ],
      "stateMutability": "view",
      "type": "function"
    },
    {
      "inputs": [],
      "name": "distributed",
      "outputs": [
        {
          "internalType": "bool",
          "name": "",
          "type": "bool"
        }
      ],
      "stateMutability": "view",
      "type": "function"
    },
    {
      "inputs": [],
      "name": "distributedTokens",
      "outputs": [
        {
          "internalType": "uint256",
          "name": "",
          "type": "uint256"
        }
      ],
      "stateMutability": "view",
      "type": "function"
    },
    {
      "inputs": [],
      "name": "feePercent",
      "outputs": [
        {
          "internalType": "uint256",
          "name": "",
          "type": "uint256"
        }
      ],
      "stateMutability": "view",
      "type": "function"
    },
    {
      "inputs": [],
      "name": "feeWallet",
      "outputs": [
        {
          "internalType": "address",
          "name": "",
          "type": "address"
        }
      ],
      "stateMutability": "view",
      "type": "function"
    },
    {
      "inputs": [
        {
          "internalType": "uint256",
          "name": "_amount",
          "type": "uint256"
        },
        {
          "internalType": "uint256",
          "name": "lpPercent",
          "type": "uint256"
        },
        {
          "internalType": "uint256",
          "name": "_decimals",
          "type": "uint256"
        }
      ],
      "name": "getFairLaunchTokenAmount",
      "outputs": [
        {
          "internalType": "uint256",
          "name": "",
          "type": "uint256"
        }
      ],
      "stateMutability": "view",
      "type": "function"
    },
    {
      "inputs": [
        {
          "internalType": "uint256",
          "name": "_userContribution",
          "type": "uint256"
        }
      ],
      "name": "getTokenPrice",
      "outputs": [
        {
          "internalType": "uint256",
          "name": "",
          "type": "uint256"
        }
      ],
      "stateMutability": "view",
      "type": "function"
    },
    {
      "inputs": [],
      "name": "locker",
      "outputs": [
        {
          "internalType": "contract ITrendLock",
          "name": "",
          "type": "address"
        }
      ],
      "stateMutability": "view",
      "type": "function"
    },
    {
      "inputs": [],
      "name": "metadataUrl",
      "outputs": [
        {
          "internalType": "string",
          "name": "",
          "type": "string"
        }
      ],
      "stateMutability": "view",
      "type": "function"
    },
    {
      "inputs": [],
      "name": "owner",
      "outputs": [
        {
          "internalType": "address",
          "name": "",
          "type": "address"
        }
      ],
      "stateMutability": "view",
      "type": "function"
    },
    {
      "inputs": [
        {
          "internalType": "uint256",
          "name": "_amount",
          "type": "uint256"
        }
      ],
      "name": "pay",
      "outputs": [],
      "stateMutability": "nonpayable",
      "type": "function"
    },
    {
      "inputs": [],
      "name": "payToken",
      "outputs": [
        {
          "internalType": "contract ERC20",
          "name": "",
          "type": "address"
        }
      ],
      "stateMutability": "view",
      "type": "function"
    },
    {
      "inputs": [],
      "name": "payTokenDecimals",
      "outputs": [
        {
          "internalType": "uint256",
          "name": "",
          "type": "uint256"
        }
      ],
      "stateMutability": "view",
      "type": "function"
    },
    {
      "inputs": [
        {
          "internalType": "address",
          "name": "_receiver",
          "type": "address"
        }
      ],
      "name": "proccessClaim",
      "outputs": [],
      "stateMutability": "nonpayable",
      "type": "function"
    },
    {
      "inputs": [],
      "name": "refundTokens",
      "outputs": [],
      "stateMutability": "nonpayable",
      "type": "function"
    },
    {
      "inputs": [],
      "name": "renounceOwnership",
      "outputs": [],
      "stateMutability": "nonpayable",
      "type": "function"
    },
    {
      "inputs": [],
      "name": "saleInfo",
      "outputs": [
        {
          "internalType": "uint256",
          "name": "tokenAmount",
          "type": "uint256"
        },
        {
          "internalType": "uint256",
          "name": "softCap",
          "type": "uint256"
        },
        {
          "internalType": "uint256",
          "name": "maxPay",
          "type": "uint256"
        },
        {
          "internalType": "uint256",
          "name": "lpPercentage",
          "type": "uint256"
        }
      ],
      "stateMutability": "view",
      "type": "function"
    },
    {
      "inputs": [],
      "name": "saleToken",
      "outputs": [
        {
          "internalType": "contract ERC20",
          "name": "",
          "type": "address"
        }
      ],
      "stateMutability": "view",
      "type": "function"
    },
    {
      "inputs": [],
      "name": "saleTokenDecimals",
      "outputs": [
        {
          "internalType": "uint256",
          "name": "",
          "type": "uint256"
        }
      ],
      "stateMutability": "view",
      "type": "function"
    },
    {
      "inputs": [
        {
          "internalType": "string",
          "name": "_metadataURL",
          "type": "string"
        }
      ],
      "name": "setMetadataURL",
      "outputs": [],
      "stateMutability": "nonpayable",
      "type": "function"
    },
    {
      "inputs": [],
      "name": "timestamps",
      "outputs": [
        {
          "internalType": "uint256",
          "name": "startTimestamp",
          "type": "uint256"
        },
        {
          "internalType": "uint256",
          "name": "endTimestamp",
          "type": "uint256"
        },
        {
          "internalType": "uint256",
          "name": "unlockTimestamp",
          "type": "uint256"
        }
      ],
      "stateMutability": "view",
      "type": "function"
    },
    {
      "inputs": [],
      "name": "tokensForDistribution",
      "outputs": [
        {
          "internalType": "uint256",
          "name": "",
          "type": "uint256"
        }
      ],
      "stateMutability": "view",
      "type": "function"
    },
    {
      "inputs": [],
      "name": "totalInvested",
      "outputs": [
        {
          "internalType": "uint256",
          "name": "",
          "type": "uint256"
        }
      ],
      "stateMutability": "view",
      "type": "function"
    },
    {
      "inputs": [
        {
          "internalType": "address",
          "name": "newOwner",
          "type": "address"
        }
      ],
      "name": "transferOwnership",
      "outputs": [],
      "stateMutability": "nonpayable",
      "type": "function"
    },
    {
      "inputs": [
        {
          "internalType": "address",
          "name": "",
          "type": "address"
        }
      ],
      "name": "userInfo",
      "outputs": [
        {
          "internalType": "uint256",
          "name": "debt",
          "type": "uint256"
        },
        {
          "internalType": "uint256",
          "name": "total",
          "type": "uint256"
        },
        {
          "internalType": "uint256",
          "name": "totalInvested",
          "type": "uint256"
        }
      ],
      "stateMutability": "view",
      "type": "function"
    }
  ],
  "bytecode": "0x60806040526018805460ff19169055348015610019575f80fd5b5060405161260f38038061260f833981016040819052610038916104dc565b610041336101ed565b60018055600280546001600160a01b0319166001600160a01b038b169081179091556040805163313ce56760e01b8152905163313ce567916004808201926020929091908290030181865afa15801561009c573d5f803e3d5ffd5b505050506040513d601f19601f820116820180604052508101906100c091906105d8565b60ff166004908155600380546001600160a01b0319166001600160a01b038b169081179091556040805163313ce56760e01b81529051919263313ce5679282820192602092908290030181865afa15801561011d573d5f803e3d5ffd5b505050506040513d601f19601f8201168201806040525081019061014191906105d8565b60ff166005558451601180546001600160a01b03199081166001600160a01b03938416179091556020808801516012805484169185169190911790556040808901516013805485169186169190911790556014805484168986161790558a51600a55908a0151600b55890151600c556060890151600d556007805490911691841691909117905560088190556101d68361023c565b6101df8661024c565b50505050505050505061073d565b5f80546001600160a01b038381166001600160a01b0319831681178455604051919092169283917f8be0079c531659141344cd1fd0a4f28419497f9722a3daafe3b4186f6b6457e09190a35050565b60066102488282610683565b5050565b60208101518151106102c05760405162461bcd60e51b815260206004820152603260248201527f53746172742074696d657374616d70206d757374206265206c6573732074686160448201527106e2066696e6973682074696d657374616d760741b60648201526084015b60405180910390fd5b4281602001511161032c5760405162461bcd60e51b815260206004820152603060248201527f46696e6973682074696d657374616d70206d757374206265206d6f726520746860448201526f616e2063757272656e7420626c6f636b60801b60648201526084016102b7565b8051600e556020810151600f5560400151601055565b6001600160a01b0381168114610356575f80fd5b50565b634e487b7160e01b5f52604160045260245ffd5b604051606081016001600160401b038111828210171561038f5761038f610359565b60405290565b604051608081016001600160401b038111828210171561038f5761038f610359565b5f606082840312156103c7575f80fd5b6103cf61036d565b82518152602080840151908201526040928301519281019290925250919050565b80516103fb81610342565b919050565b5f60608284031215610410575f80fd5b61041861036d565b9050815161042581610342565b8152602082015161043581610342565b6020820152604082015161044881610342565b604082015292915050565b5f82601f830112610462575f80fd5b81516001600160401b0381111561047b5761047b610359565b604051601f8201601f19908116603f011681016001600160401b03811182821017156104a9576104a9610359565b6040528181528382016020018510156104c0575f80fd5b8160208501602083015e5f918101602001919091529392505050565b5f805f805f805f805f898b036102008112156104f6575f80fd5b8a5161050181610342565b60208c0151909a5061051281610342565b98506080603f1982011215610525575f80fd5b5061052e610395565b60408b81015182526060808d0151602084015260808d01519183019190915260a08c01519082015296506105658b60c08c016103b7565b95506105758b6101208c01610400565b94506105846101808b016103f0565b6101a08b01519094506001600160401b038111156105a0575f80fd5b6105ac8c828d01610453565b9350506105bc6101c08b016103f0565b91505f6101e08b01519050809150509295985092959850929598565b5f602082840312156105e8575f80fd5b815160ff811681146105f8575f80fd5b9392505050565b600181811c9082168061061357607f821691505b60208210810361063157634e487b7160e01b5f52602260045260245ffd5b50919050565b601f82111561067e57805f5260205f20601f840160051c8101602085101561065c5750805b601f840160051c820191505b8181101561067b575f8155600101610668565b50505b505050565b81516001600160401b0381111561069c5761069c610359565b6106b0816106aa84546105ff565b84610637565b6020601f8211600181146106e2575f83156106cb5750848201515b5f19600385901b1c1916600184901b17845561067b565b5f84815260208120601f198516915b8281101561071157878501518255602094850194600190920191016106f1565b508482101561072e57868401515f19600387901b60f8161c191681555b50505050600190811b01905550565b611ec58061074a5f395ff3fe608060405234801561000f575f80fd5b50600436106101dc575f3560e01c806396336b3011610109578063d7b96d4e1161009e578063e985e3671161006e578063e985e36714610424578063f25f4b5614610437578063f2fde38b1461044a578063f84b903e1461045d575f80fd5b8063d7b96d4e146103ac578063d8d2a56d146103bf578063ddeae03314610409578063e7e104901461041c575f80fd5b8063c457fb37116100d9578063c457fb3714610369578063c5454d111461037c578063cad680cc14610384578063cd29c71a14610397575f80fd5b806396336b3014610313578063aa49bfff14610326578063bf7ea15d14610339578063c290d69114610356575f80fd5b80636444e37b1161017f578063747daec51161014f578063747daec51461029d5780637fd6f15c146102b05780638da5cb5b146102b95780638e3695b8146102dd575f80fd5b80636444e37b1461027c5780637100750914610285578063715018a61461028d57806372b1864a14610295575f80fd5b80634b1a4c0c116101ba5780634b1a4c0c146102575780634e71d92d146102605780635216aeec1461026a578063586360ce14610273575f80fd5b806302a9e714146101e05780631959a002146101fc578063491447a814610245575b5f80fd5b6101e960045481565b6040519081526020015b60405180910390f35b61022a61020a3660046118ac565b60196020525f908152604090208054600182015460029092015490919083565b604080519384526020840192909252908201526060016101f3565b600e54600f5460105461022a92919083565b6101e960165481565b61026861046a565b005b6101e960155481565b6101e960175481565b6101e960055481565b610268610475565b6102686105ac565b6101e96105bd565b6102686102ab366004611933565b6105ea565b6101e960085481565b5f546001600160a01b03165b6040516001600160a01b0390911681526020016101f3565b600a54600b54600c54600d546102f39392919084565b6040805194855260208501939093529183015260608201526080016101f3565b6003546102c5906001600160a01b031681565b6101e96103343660046119ad565b6105fa565b6009546103469060ff1681565b60405190151581526020016101f3565b6102686103643660046119d6565b610679565b6101e96103773660046119d6565b610822565b61026861083f565b6102686103923660046118ac565b611116565b61039f61131e565b6040516101f39190611a1b565b6014546102c5906001600160a01b031681565b6011546012546013546103df926001600160a01b03908116928116911683565b604080516001600160a01b03948516815292841660208401529216918101919091526060016101f3565b6102686104173660046118ac565b6113aa565b6102686113b3565b6002546102c5906001600160a01b031681565b6007546102c5906001600160a01b031681565b6102686104583660046118ac565b6114aa565b6018546103469060ff1681565b61047333611116565b565b61047d611520565b60095460ff166104cb5760405162461bcd60e51b8152602060048201526014602482015273141bdbdb081a5cc81b9bdd0818d85b98d95b195960621b60448201526064015b60405180910390fd5b6002546040516370a0823160e01b81523060048201525f916001600160a01b0316906370a0823190602401602060405180830381865afa158015610511573d5f803e3d5ffd5b505050506040513d601f19601f820116820180604052508101906105359190611a2d565b90505f81116105925760405162461bcd60e51b815260206004820152602360248201527f5468652049444f20706f6f6c20686173206e6f7420726566756e6420746f6b6560448201526237399760e91b60648201526084016104c2565b6002546105a9906001600160a01b03163383611579565b50565b6105b4611520565b6104735f6115d0565b601554600a545f91670de0b6b3a7640000916105e491906105de908461161f565b9061162a565b91505090565b60066105f68282611ac0565b5050565b5f80670de0b6b3a764000090505f6064600854836106189190611b8f565b6106229190611ba6565b90505f61062f8284611bc5565b90505f606461063e8884611b8f565b6106489190611ba6565b90505f61065687600a611cbb565b6106608a84611b8f565b61066a9190611ba6565b955050505050505b9392505050565b600e544210156106c35760405162461bcd60e51b81526020600482015260156024820152740814d85b1948139bdd0814dd185c9d1959081e595d605a1b60448201526064016104c2565b600f5442106106fc5760405162461bcd60e51b8152602060048201526005602482015264115b99195960da1b60448201526064016104c2565b335f908152601960205260409020600c54156107b157600c5482111561075a5760405162461bcd60e51b8152602060048201526013602482015272135bdc99481d1a185b881b585e105b5bdd5b9d606a1b60448201526064016104c2565b600c54600282015461076c9084611635565b11156107b15760405162461bcd60e51b8152602060048201526014602482015273135bdc99481d1a195b881b585e08185b5bdd5b9d60621b60448201526064016104c2565b6015546107be9083611635565b60155560028101546107d09083611635565b600282015580546107e19083611635565b8155604080518381526020810184905233917f95b935cd8a17754511e1ec2c9cb93e6e22363633be3de869bf4d15a3b2dd0e9b910160405180910390a25050565b601554600a545f91610839916105de90859061161f565b92915050565b610847611520565b600f5442116108985760405162461bcd60e51b815260206004820152601b60248201527f5468652049444f20706f6f6c20686173206e6f7420656e6465642e000000000060448201526064016104c2565b600b5460155410156108bc5760405162461bcd60e51b81526004016104c290611cc6565b60185460ff16156109065760405162461bcd60e51b815260206004820152601460248201527320b63932b0b23c903234b9ba3934b13aba32b21760611b60448201526064016104c2565b6018805460ff191660011790556003546040516370a0823160e01b81523060048201525f916001600160a01b0316906370a0823190602401602060405180830381865afa158015610959573d5f803e3d5ffd5b505050506040513d601f19601f8201168201806040525081019061097d9190611a2d565b905060155481146109d05760405162461bcd60e51b815260206004820152601a60248201527f706179546f6b656e2042616c616e6365204e6f74204d6174636800000000000060448201526064016104c2565b5f6109ec6127106105de6008548561161f90919063ffffffff16565b90506109f88282611640565b60035460075460405163a9059cbb60e01b81526001600160a01b039182166004820152602481018590529294505f9291169063a9059cbb906044016020604051808303815f875af1158015610a4f573d5f803e3d5ffd5b505050506040513d601f19601f82011682018060405250810190610a739190611d0a565b905080610ac25760405162461bcd60e51b815260206004820152601c60248201527f506c6174666f726d20666565207472616e73666572206661696c65640000000060448201526064016104c2565b6003546040516370a0823160e01b81523060048201525f916001600160a01b0316906370a0823190602401602060405180830381865afa158015610b08573d5f803e3d5ffd5b505050506040513d601f19601f82011682018060405250810190610b2c9190611a2d565b90505f8111610b7d5760405162461bcd60e51b815260206004820152601860248201527f4e6f7420456e6f7567682046756e647320696e20506f6f6c000000000000000060448201526064016104c2565b600d541561105a57600d545f90606490610b979084611b8f565b610ba19190611ba6565b90505f610bae8284611bc5565b90505f610bc7600a5f0154600a600301546004546105fa565b60115460025460405163095ea7b360e01b81526001600160a01b03928316600482018190526024820185905293945091169063095ea7b3906044016020604051808303815f875af1158015610c1e573d5f803e3d5ffd5b505050506040513d601f19601f82011682018060405250810190610c429190611d0a565b5060035460405163095ea7b360e01b81526001600160a01b038381166004830152602482018790529091169063095ea7b3906044016020604051808303815f875af1158015610c93573d5f803e3d5ffd5b505050506040513d601f19601f82011682018060405250810190610cb79190611d0a565b506002546003545f916001600160a01b038085169263e8e3370092821691168689868030610ce742610168611d29565b60405160e08a901b6001600160e01b03191681526001600160a01b039889166004820152968816602488015260448701959095526064860193909352608485019190915260a484015290921660c482015260e4810191909152610104016060604051808303815f875af1158015610d60573d5f803e3d5ffd5b505050506040513d601f19601f82011682018060405250810190610d849190611d3c565b60125460025460035460405163e6a4390560e01b81526001600160a01b03928316600482015290821660248201529295505f945016915063e6a4390590604401602060405180830381865afa158015610ddf573d5f803e3d5ffd5b505050506040513d601f19601f82011682018060405250810190610e039190611d67565b6010549091508190421015610f995760145460405163095ea7b360e01b81526001600160a01b039182166004820152602481018590529082169063095ea7b3906044016020604051808303815f875af1158015610e62573d5f803e3d5ffd5b505050506040513d601f19601f82011682018060405250810190610e869190611d0a565b5060145f9054906101000a90046001600160a01b03166001600160a01b031663072793573384600187600e60020154876001600160a01b03166395d89b416040518163ffffffff1660e01b81526004015f60405180830381865afa158015610ef0573d5f803e3d5ffd5b505050506040513d5f823e601f3d908101601f19168201604052610f179190810190611d82565b604051602001610f279190611e0e565b6040516020818303038152906040526040518763ffffffff1660e01b8152600401610f5796959493929190611e37565b6020604051808303815f875af1158015610f73573d5f803e3d5ffd5b505050506040513d601f19601f82011682018060405250810190610f979190611a2d565b505b60035460405163a9059cbb60e01b8152336004820152602481018890525f916001600160a01b03169063a9059cbb906044016020604051808303815f875af1158015610fe7573d5f803e3d5ffd5b505050506040513d601f19601f8201168201806040525081019061100b9190611d0a565b90508061104d5760405162461bcd60e51b815260206004820152601060248201526f2a3930b739b332b9103330b4b632b21760811b60448201526064016104c2565b5050505050505050611110565b60035460405163a9059cbb60e01b8152336004820152602481018390525f916001600160a01b03169063a9059cbb906044016020604051808303815f875af11580156110a8573d5f803e3d5ffd5b505050506040513d601f19601f820116820180604052508101906110cc9190611d0a565b90508061110e5760405162461bcd60e51b815260206004820152601060248201526f2a3930b739b332b9103330b4b632b21760811b60448201526064016104c2565b505b50505050565b6002600154036111685760405162461bcd60e51b815260206004820152601f60248201527f5265656e7472616e637947756172643a207265656e7472616e742063616c6c0060448201526064016104c2565b6002600155600f5442116111be5760405162461bcd60e51b815260206004820152601b60248201527f5468652049444f20706f6f6c20686173206e6f7420656e6465642e000000000060448201526064016104c2565b600b5460155410156111e25760405162461bcd60e51b81526004016104c290611cc6565b60185460ff1661122d5760405162461bcd60e51b81526020600482015260166024820152755761697420666f7220506f6f6c2046696e616c697a6560501b60448201526064016104c2565b6001600160a01b0381165f9081526019602052604090208054806112935760405162461bcd60e51b815260206004820152601d60248201527f596f7520646f206e6f74206861766520636f6e747269627574696f6e7300000060448201526064016104c2565b5f61129d82610822565b5f8455600184018190556017549091506112b79083611635565b6017556002546112d1906001600160a01b03168583611579565b836001600160a01b03167fa2bd9fcfcdba69f52bcd9a520846ad4bd685b187483f53efc42d035b2ddebff08360405161130c91815260200190565b60405180910390a25050600180555050565b6006805461132b90611a44565b80601f016020809104026020016040519081016040528092919081815260200182805461135790611a44565b80156113a25780601f10611379576101008083540402835291602001916113a2565b820191905f5260205f20905b81548152906001019060200180831161138557829003601f168201915b505050505081565b6105a981611116565b6113bb611520565b60095460ff16156114065760405162461bcd60e51b8152602060048201526015602482015274141bdbdb08185b1c9958591e4818d85b98d95b1959605a1b60448201526064016104c2565b600f5442106114615760405162461bcd60e51b815260206004820152602160248201527f43616e6e6f742063616e63656c206166746572207468652073616c6520656e646044820152607360f81b60648201526084016104c2565b6009805460ff191660011790556040517f3d229dd60fc64b0903758feed58453f62e715f5d01dc0978c0a3a312dd2776c2906114a09042815260200190565b60405180910390a1565b6114b2611520565b6001600160a01b0381166115175760405162461bcd60e51b815260206004820152602660248201527f4f776e61626c653a206e6577206f776e657220697320746865207a65726f206160448201526564647265737360d01b60648201526084016104c2565b6105a9816115d0565b5f546001600160a01b031633146104735760405162461bcd60e51b815260206004820181905260248201527f4f776e61626c653a2063616c6c6572206973206e6f7420746865206f776e657260448201526064016104c2565b604080516001600160a01b038416602482015260448082018490528251808303909101815260649091019091526020810180516001600160e01b031663a9059cbb60e01b1790526115cb90849061164b565b505050565b5f80546001600160a01b038381166001600160a01b0319831681178455604051919092169283917f8be0079c531659141344cd1fd0a4f28419497f9722a3daafe3b4186f6b6457e09190a35050565b5f6106728284611b8f565b5f6106728284611ba6565b5f6106728284611d29565b5f6106728284611bc5565b5f61169f826040518060400160405280602081526020017f5361666545524332303a206c6f772d6c6576656c2063616c6c206661696c6564815250856001600160a01b031661171c9092919063ffffffff16565b8051909150156115cb57808060200190518101906116bd9190611d0a565b6115cb5760405162461bcd60e51b815260206004820152602a60248201527f5361666545524332303a204552433230206f7065726174696f6e20646964206e6044820152691bdd081cdd58d8d9595960b21b60648201526084016104c2565b606061172a84845f85611732565b949350505050565b6060824710156117935760405162461bcd60e51b815260206004820152602660248201527f416464726573733a20696e73756666696369656e742062616c616e636520666f6044820152651c8818d85b1b60d21b60648201526084016104c2565b6001600160a01b0385163b6117ea5760405162461bcd60e51b815260206004820152601d60248201527f416464726573733a2063616c6c20746f206e6f6e2d636f6e747261637400000060448201526064016104c2565b5f80866001600160a01b031685876040516118059190611e84565b5f6040518083038185875af1925050503d805f811461183f576040519150601f19603f3d011682016040523d82523d5f602084013e611844565b606091505b509150915061185482828661185f565b979650505050505050565b6060831561186e575081610672565b82511561187e5782518084602001fd5b8160405162461bcd60e51b81526004016104c29190611a1b565b6001600160a01b03811681146105a9575f80fd5b5f602082840312156118bc575f80fd5b813561067281611898565b634e487b7160e01b5f52604160045260245ffd5b604051601f8201601f1916810167ffffffffffffffff81118282101715611904576119046118c7565b604052919050565b5f67ffffffffffffffff821115611925576119256118c7565b50601f01601f191660200190565b5f60208284031215611943575f80fd5b813567ffffffffffffffff811115611959575f80fd5b8201601f81018413611969575f80fd5b803561197c6119778261190c565b6118db565b818152856020838501011115611990575f80fd5b816020840160208301375f91810160200191909152949350505050565b5f805f606084860312156119bf575f80fd5b505081359360208301359350604090920135919050565b5f602082840312156119e6575f80fd5b5035919050565b5f81518084528060208401602086015e5f602082860101526020601f19601f83011685010191505092915050565b602081525f61067260208301846119ed565b5f60208284031215611a3d575f80fd5b5051919050565b600181811c90821680611a5857607f821691505b602082108103611a7657634e487b7160e01b5f52602260045260245ffd5b50919050565b601f8211156115cb57805f5260205f20601f840160051c81016020851015611aa15750805b601f840160051c820191505b8181101561110e575f8155600101611aad565b815167ffffffffffffffff811115611ada57611ada6118c7565b611aee81611ae88454611a44565b84611a7c565b6020601f821160018114611b20575f8315611b095750848201515b5f19600385901b1c1916600184901b17845561110e565b5f84815260208120601f198516915b82811015611b4f5787850151825560209485019460019092019101611b2f565b5084821015611b6c57868401515f19600387901b60f8161c191681555b50505050600190811b01905550565b634e487b7160e01b5f52601160045260245ffd5b808202811582820484141761083957610839611b7b565b5f82611bc057634e487b7160e01b5f52601260045260245ffd5b500490565b8181038181111561083957610839611b7b565b6001815b6001841115611c1357808504811115611bf757611bf7611b7b565b6001841615611c0557908102905b60019390931c928002611bdc565b935093915050565b5f82611c2957506001610839565b81611c3557505f610839565b8160018114611c4b5760028114611c5557611c71565b6001915050610839565b60ff841115611c6657611c66611b7b565b50506001821b610839565b5060208310610133831016604e8410600b8410161715611c94575081810a610839565b611ca05f198484611bd8565b805f1904821115611cb357611cb3611b7b565b029392505050565b5f6106728383611c1b565b60208082526024908201527f5468652049444f20706f6f6c20646964206e6f7420726561636820736f66742060408201526331b0b81760e11b606082015260800190565b5f60208284031215611d1a575f80fd5b81518015158114610672575f80fd5b8082018082111561083957610839611b7b565b5f805f60608486031215611d4e575f80fd5b5050815160208301516040909301519094929350919050565b5f60208284031215611d77575f80fd5b815161067281611898565b5f60208284031215611d92575f80fd5b815167ffffffffffffffff811115611da8575f80fd5b8201601f81018413611db8575f80fd5b8051611dc66119778261190c565b818152856020838501011115611dda575f80fd5b8160208401602083015e5f91810160200191909152949350505050565b5f81518060208401855e5f93019283525090919050565b5f611e198284611df7565b6d103a37b5b2b739903637b1b5b2b960911b8152600e019392505050565b6001600160a01b038781168252861660208201528415156040820152606081018490526080810183905260c060a082018190525f90611e78908301846119ed565b98975050505050505050565b5f6106728284611df756fea26469706673582212204d83233fb9b2387b2e7129c5aa5d317e04b865f9395d7d16bc35c5d155fd979664736f6c634300081a0033",
  "linkReferences": {},
  "deployedLinkReferences": {}
}