{
  "_format": "hh-sol-artifact-1",
  "contractName": "TrendERC20Pool",
  "sourceName": "contracts/TrendERC20Pool.sol",
  "abi": [
    {
      "inputs": [
        {
          "internalType": "contract ERC20",
          "name": "_rewardToken",
          "type": "address"
        },
        {
          "internalType": "contract ERC20",
          "name": "_payToken",
          "type": "address"
        },
        {
          "components": [
            {
              "internalType": "uint256",
              "name": "tokenPrice",
              "type": "uint256"
            },
            {
              "internalType": "uint256",
              "name": "softCap",
              "type": "uint256"
            },
            {
              "internalType": "uint256",
              "name": "hardCap",
              "type": "uint256"
            },
            {
              "internalType": "uint256",
              "name": "minPayment",
              "type": "uint256"
            },
            {
              "internalType": "uint256",
              "name": "maxPayment",
              "type": "uint256"
            },
            {
              "internalType": "uint256",
              "name": "listingPrice",
              "type": "uint256"
            },
            {
              "internalType": "uint256",
              "name": "lpInterestRate",
              "type": "uint256"
            }
          ],
          "internalType": "struct TrendERC20Pool.SaleInfo",
          "name": "_finInfo",
          "type": "tuple"
        },
        {
          "components": [
            {
              "internalType": "uint256",
              "name": "startTimestamp",
              "type": "uint256"
            },
            {
              "internalType": "uint256",
              "name": "endTimestamp",
              "type": "uint256"
            },
            {
              "internalType": "uint256",
              "name": "unlockTimestamp",
              "type": "uint256"
            }
          ],
          "internalType": "struct TrendERC20Pool.Timestamps",
          "name": "_timestamps",
          "type": "tuple"
        },
        {
          "components": [
            {
              "internalType": "address",
              "name": "router",
              "type": "address"
            },
            {
              "internalType": "address",
              "name": "factory",
              "type": "address"
            },
            {
              "internalType": "address",
              "name": "weth",
              "type": "address"
            }
          ],
          "internalType": "struct TrendERC20Pool.DEXInfo",
          "name": "_dexInfo",
          "type": "tuple"
        },
        {
          "internalType": "address",
          "name": "_locker",
          "type": "address"
        },
        {
          "internalType": "string",
          "name": "_metadataURL",
          "type": "string"
        },
        {
          "internalType": "bool",
          "name": "_burnType",
          "type": "bool"
        },
        {
          "internalType": "address",
          "name": "_feeWallet",
          "type": "address"
        },
        {
          "internalType": "uint256",
          "name": "_feeAmount",
          "type": "uint256"
        }
      ],
      "stateMutability": "nonpayable",
      "type": "constructor"
    },
    {
      "anonymous": false,
      "inputs": [
        {
          "indexed": true,
          "internalType": "address",
          "name": "previousOwner",
          "type": "address"
        },
        {
          "indexed": true,
          "internalType": "address",
          "name": "newOwner",
          "type": "address"
        }
      ],
      "name": "OwnershipTransferred",
      "type": "event"
    },
    {
      "anonymous": false,
      "inputs": [
        {
          "indexed": true,
          "internalType": "address",
          "name": "holder",
          "type": "address"
        },
        {
          "indexed": false,
          "internalType": "uint256",
          "name": "payAmount",
          "type": "uint256"
        },
        {
          "indexed": false,
          "internalType": "uint256",
          "name": "tokenAmount",
          "type": "uint256"
        }
      ],
      "name": "TokensDebt",
      "type": "event"
    },
    {
      "anonymous": false,
      "inputs": [
        {
          "indexed": true,
          "internalType": "address",
          "name": "holder",
          "type": "address"
        },
        {
          "indexed": false,
          "internalType": "uint256",
          "name": "amount",
          "type": "uint256"
        }
      ],
      "name": "TokensWithdrawn",
      "type": "event"
    },
    {
      "inputs": [],
      "name": "Finalize",
      "outputs": [],
      "stateMutability": "payable",
      "type": "function"
    },
    {
      "inputs": [],
      "name": "burnType",
      "outputs": [
        {
          "internalType": "bool",
          "name": "",
          "type": "bool"
        }
      ],
      "stateMutability": "view",
      "type": "function"
    },
    {
      "inputs": [],
      "name": "claim",
      "outputs": [],
      "stateMutability": "nonpayable",
      "type": "function"
    },
    {
      "inputs": [
        {
          "internalType": "address",
          "name": "_user",
          "type": "address"
        }
      ],
      "name": "claimFor",
      "outputs": [],
      "stateMutability": "nonpayable",
      "type": "function"
    },
    {
      "inputs": [],
      "name": "decimals",
      "outputs": [
        {
          "internalType": "uint256",
          "name": "",
          "type": "uint256"
        }
      ],
      "stateMutability": "view",
      "type": "function"
    },
    {
      "inputs": [],
      "name": "dexInfo",
      "outputs": [
        {
          "internalType": "address",
          "name": "router",
          "type": "address"
        },
        {
          "internalType": "address",
          "name": "factory",
          "type": "address"
        },
        {
          "internalType": "address",
          "name": "weth",
          "type": "address"
        }
      ],
      "stateMutability": "view",
      "type": "function"
    },
    {
      "inputs": [],
      "name": "distributed",
      "outputs": [
        {
          "internalType": "bool",
          "name": "",
          "type": "bool"
        }
      ],
      "stateMutability": "view",
      "type": "function"
    },
    {
      "inputs": [],
      "name": "distributedTokens",
      "outputs": [
        {
          "internalType": "uint256",
          "name": "",
          "type": "uint256"
        }
      ],
      "stateMutability": "view",
      "type": "function"
    },
    {
      "inputs": [],
      "name": "feePercent",
      "outputs": [
        {
          "internalType": "uint256",
          "name": "",
          "type": "uint256"
        }
      ],
      "stateMutability": "view",
      "type": "function"
    },
    {
      "inputs": [],
      "name": "feeWallet",
      "outputs": [
        {
          "internalType": "address",
          "name": "",
          "type": "address"
        }
      ],
      "stateMutability": "view",
      "type": "function"
    },
    {
      "inputs": [],
      "name": "getNotSoldToken",
      "outputs": [
        {
          "internalType": "uint256",
          "name": "",
          "type": "uint256"
        }
      ],
      "stateMutability": "view",
      "type": "function"
    },
    {
      "inputs": [],
      "name": "isPoolCancel",
      "outputs": [
        {
          "internalType": "bool",
          "name": "",
          "type": "bool"
        }
      ],
      "stateMutability": "view",
      "type": "function"
    },
    {
      "inputs": [],
      "name": "locker",
      "outputs": [
        {
          "internalType": "contract ITrendLock",
          "name": "",
          "type": "address"
        }
      ],
      "stateMutability": "view",
      "type": "function"
    },
    {
      "inputs": [],
      "name": "metadataURL",
      "outputs": [
        {
          "internalType": "string",
          "name": "",
          "type": "string"
        }
      ],
      "stateMutability": "view",
      "type": "function"
    },
    {
      "inputs": [],
      "name": "owner",
      "outputs": [
        {
          "internalType": "address",
          "name": "",
          "type": "address"
        }
      ],
      "stateMutability": "view",
      "type": "function"
    },
    {
      "inputs": [
        {
          "internalType": "uint256",
          "name": "amount",
          "type": "uint256"
        }
      ],
      "name": "pay",
      "outputs": [],
      "stateMutability": "nonpayable",
      "type": "function"
    },
    {
      "inputs": [],
      "name": "payToken",
      "outputs": [
        {
          "internalType": "contract ERC20",
          "name": "",
          "type": "address"
        }
      ],
      "stateMutability": "view",
      "type": "function"
    },
    {
      "inputs": [],
      "name": "payTokenDecimals",
      "outputs": [
        {
          "internalType": "uint256",
          "name": "",
          "type": "uint256"
        }
      ],
      "stateMutability": "view",
      "type": "function"
    },
    {
      "inputs": [
        {
          "internalType": "address",
          "name": "_tokenAddress",
          "type": "address"
        },
        {
          "internalType": "uint256",
          "name": "_tokenAmount",
          "type": "uint256"
        }
      ],
      "name": "recoverWrongTokens",
      "outputs": [],
      "stateMutability": "nonpayable",
      "type": "function"
    },
    {
      "inputs": [],
      "name": "refund",
      "outputs": [],
      "stateMutability": "nonpayable",
      "type": "function"
    },
    {
      "inputs": [],
      "name": "refundTokens",
      "outputs": [],
      "stateMutability": "nonpayable",
      "type": "function"
    },
    {
      "inputs": [],
      "name": "renounceOwnership",
      "outputs": [],
      "stateMutability": "nonpayable",
      "type": "function"
    },
    {
      "inputs": [],
      "name": "rewardToken",
      "outputs": [
        {
          "internalType": "contract ERC20",
          "name": "",
          "type": "address"
        }
      ],
      "stateMutability": "view",
      "type": "function"
    },
    {
      "inputs": [],
      "name": "saleInfo",
      "outputs": [
        {
          "internalType": "uint256",
          "name": "tokenPrice",
          "type": "uint256"
        },
        {
          "internalType": "uint256",
          "name": "softCap",
          "type": "uint256"
        },
        {
          "internalType": "uint256",
          "name": "hardCap",
          "type": "uint256"
        },
        {
          "internalType": "uint256",
          "name": "minPayment",
          "type": "uint256"
        },
        {
          "internalType": "uint256",
          "name": "maxPayment",
          "type": "uint256"
        },
        {
          "internalType": "uint256",
          "name": "listingPrice",
          "type": "uint256"
        },
        {
          "internalType": "uint256",
          "name": "lpInterestRate",
          "type": "uint256"
        }
      ],
      "stateMutability": "view",
      "type": "function"
    },
    {
      "inputs": [
        {
          "internalType": "string",
          "name": "_metadataURL",
          "type": "string"
        }
      ],
      "name": "setMetadataURL",
      "outputs": [],
      "stateMutability": "nonpayable",
      "type": "function"
    },
    {
      "inputs": [],
      "name": "timestamps",
      "outputs": [
        {
          "internalType": "uint256",
          "name": "startTimestamp",
          "type": "uint256"
        },
        {
          "internalType": "uint256",
          "name": "endTimestamp",
          "type": "uint256"
        },
        {
          "internalType": "uint256",
          "name": "unlockTimestamp",
          "type": "uint256"
        }
      ],
      "stateMutability": "view",
      "type": "function"
    },
    {
      "inputs": [],
      "name": "tokensForDistribution",
      "outputs": [
        {
          "internalType": "uint256",
          "name": "",
          "type": "uint256"
        }
      ],
      "stateMutability": "view",
      "type": "function"
    },
    {
      "inputs": [],
      "name": "totalInvested",
      "outputs": [
        {
          "internalType": "uint256",
          "name": "",
          "type": "uint256"
        }
      ],
      "stateMutability": "view",
      "type": "function"
    },
    {
      "inputs": [
        {
          "internalType": "address",
          "name": "newOwner",
          "type": "address"
        }
      ],
      "name": "transferOwnership",
      "outputs": [],
      "stateMutability": "nonpayable",
      "type": "function"
    },
    {
      "inputs": [
        {
          "internalType": "address",
          "name": "",
          "type": "address"
        }
      ],
      "name": "userInfo",
      "outputs": [
        {
          "internalType": "uint256",
          "name": "debt",
          "type": "uint256"
        },
        {
          "internalType": "uint256",
          "name": "total",
          "type": "uint256"
        },
        {
          "internalType": "uint256",
          "name": "totalInvested",
          "type": "uint256"
        }
      ],
      "stateMutability": "view",
      "type": "function"
    }
  ],
  "bytecode": "0x60806040526007805460ff19908116909155601a80549091169055348015610025575f80fd5b5060405161299038038061299083398101604081905261004491610548565b61004d3361024a565b60018055600280546001600160a01b0319166001600160a01b038c169081179091556040805163313ce56760e01b8152905163313ce567916004808201926020929091908290030181865afa1580156100a8573d5f803e3d5ffd5b505050506040513d601f19601f820116820180604052508101906100cc919061067c565b60ff16600355601680546001600160a01b0319166001600160a01b03878116919091179091556007805462010000600160b01b031916620100008c8416810291909117918290556040805163313ce56760e01b81529051919092049092169163313ce567916004808201926020929091908290030181865afa158015610154573d5f803e3d5ffd5b505050506040513d601f19601f82011682018060405250810190610178919061067c565b60ff166008556007805460ff1916841515179055600580546001600160a01b0319166001600160a01b038416179055600681905587516009556020880151600a556040880151600b556060880151600c556080880151600d5560a0880151600e5560c0880151600f556101ea87610299565b8551601380546001600160a01b039283166001600160a01b03199182161790915560208801516014805491841691831691909117905560408801516015805491909316911617905561023b8461038f565b505050505050505050506107e1565b5f80546001600160a01b038381166001600160a01b0319831681178455604051919092169283917f8be0079c531659141344cd1fd0a4f28419497f9722a3daafe3b4186f6b6457e09190a35050565b602081015181511061030d5760405162461bcd60e51b815260206004820152603260248201527f53746172742074696d657374616d70206d757374206265206c6573732074686160448201527106e2066696e6973682074696d657374616d760741b60648201526084015b60405180910390fd5b428160200151116103795760405162461bcd60e51b815260206004820152603060248201527f46696e6973682074696d657374616d70206d757374206265206d6f726520746860448201526f616e2063757272656e7420626c6f636b60801b6064820152608401610304565b8051601055602081015160115560400151601255565b600461039b8282610727565b5050565b6001600160a01b03811681146103b3575f80fd5b50565b634e487b7160e01b5f52604160045260245ffd5b604051606081016001600160401b03811182821017156103ec576103ec6103b6565b60405290565b60405160e081016001600160401b03811182821017156103ec576103ec6103b6565b5f60608284031215610424575f80fd5b61042c6103ca565b82518152602080840151908201526040928301519281019290925250919050565b80516104588161039f565b919050565b5f6060828403121561046d575f80fd5b6104756103ca565b905081516104828161039f565b815260208201516104928161039f565b602082015260408201516104a58161039f565b604082015292915050565b5f82601f8301126104bf575f80fd5b81516001600160401b038111156104d8576104d86103b6565b604051601f8201601f19908116603f011681016001600160401b0381118282101715610506576105066103b6565b60405281815283820160200185101561051d575f80fd5b8160208501602083015e5f918101602001919091529392505050565b80518015158114610458575f80fd5b5f805f805f805f805f808a8c03610280811215610563575f80fd5b8b5161056e8161039f565b60208d0151909b5061057f8161039f565b995060e0603f1982011215610592575f80fd5b5061059b6103f2565b60408c81015182526060808e015160208401526080808f01519284019290925260a0808f01519184019190915260c0808f01519284019290925260e08e0151908301526101008d01519082015297506105f88c6101208d01610414565b96506106088c6101808d0161045d565b95506106176101e08c0161044d565b6102008c01519095506001600160401b03811115610633575f80fd5b61063f8d828e016104b0565b94505061064f6102208c01610539565b925061065e6102408c0161044d565b91505f6102608c01519050809150509295989b9194979a5092959850565b5f6020828403121561068c575f80fd5b815160ff8116811461069c575f80fd5b9392505050565b600181811c908216806106b757607f821691505b6020821081036106d557634e487b7160e01b5f52602260045260245ffd5b50919050565b601f82111561072257805f5260205f20601f840160051c810160208510156107005750805b601f840160051c820191505b8181101561071f575f815560010161070c565b50505b505050565b81516001600160401b03811115610740576107406103b6565b6107548161074e84546106a3565b846106db565b6020601f821160018114610786575f831561076f5750848201515b5f19600385901b1c1916600184901b17845561071f565b5f84815260208120601f198516915b828110156107b55787850151825560209485019460019092019101610795565b50848210156107d257868401515f19600387901b60f8161c191681555b50505050600190811b01905550565b6121a2806107ee5f395ff3fe6080604052600436106101c5575f3560e01c8063715018a6116100f2578063c5454d1111610092578063f25f4b5611610062578063f25f4b561461054c578063f2fde38b1461056b578063f7c618c11461058a578063f84b903e146105a9575f80fd5b8063c5454d11146104b0578063d7b96d4e146104b8578063d8d2a56d146104d7578063ddeae0331461052d575f80fd5b80638da5cb5b116100cd5780638da5cb5b146103d95780638e3695b81461040957806396336b301461046c578063c290d69114610491575f80fd5b8063715018a614610391578063747daec5146103a55780637fd6f15c146103c4575f80fd5b80634b1a4c0c11610168578063590e1ae311610138578063590e1ae31461034057806362bea93f146103545780636444e37b14610368578063710075091461037d575f80fd5b80634b1a4c0c146102ed5780634e71d92d146103025780635216aeec14610316578063586360ce1461032b575f80fd5b80632e007d7c116101a35780632e007d7c14610272578063313ce5671461028b5780633f138d4b146102ae578063491447a8146102cf575f80fd5b8063020a6ffa146101c95780631959a002146101fc5780632dcc8c6614610251575b5f80fd5b3480156101d4575f80fd5b506007546101e790610100900460ff1681565b60405190151581526020015b60405180910390f35b348015610207575f80fd5b50610236610216366004611b8e565b601b6020525f908152604090208054600182015460029092015490919083565b604080519384526020840192909252908201526060016101f3565b34801561025c575f80fd5b506102656105c2565b6040516101f39190611bd7565b34801561027d575f80fd5b506007546101e79060ff1681565b348015610296575f80fd5b506102a060035481565b6040519081526020016101f3565b3480156102b9575f80fd5b506102cd6102c8366004611be9565b61064e565b005b3480156102da575f80fd5b5060105460115460125461023692919083565b3480156102f8575f80fd5b506102a060185481565b34801561030d575f80fd5b506102cd610688565b348015610321575f80fd5b506102a060175481565b348015610336575f80fd5b506102a060195481565b34801561034b575f80fd5b506102cd610693565b34801561035f575f80fd5b506102a061079d565b348015610373575f80fd5b506102a060085481565b348015610388575f80fd5b506102cd610834565b34801561039c575f80fd5b506102cd610991565b3480156103b0575f80fd5b506102cd6103bf366004611c7f565b6109a2565b3480156103cf575f80fd5b506102a060065481565b3480156103e4575f80fd5b505f546001600160a01b03165b6040516001600160a01b0390911681526020016101f3565b348015610414575f80fd5b50600954600a54600b54600c54600d54600e54600f546104379695949392919087565b604080519788526020880196909652948601939093526060850191909152608084015260a083015260c082015260e0016101f3565b348015610477575f80fd5b506007546103f1906201000090046001600160a01b031681565b34801561049c575f80fd5b506102cd6104ab366004611cf9565b6109ae565b6102cd610c2f565b3480156104c3575f80fd5b506016546103f1906001600160a01b031681565b3480156104e2575f80fd5b50601354601454601554610503926001600160a01b03908116928116911683565b604080516001600160a01b03948516815292841660208401529216918101919091526060016101f3565b348015610538575f80fd5b506102cd610547366004611b8e565b6115b1565b348015610557575f80fd5b506005546103f1906001600160a01b031681565b348015610576575f80fd5b506102cd610585366004611b8e565b6115ba565b348015610595575f80fd5b506002546103f1906001600160a01b031681565b3480156105b4575f80fd5b50601a546101e79060ff1681565b600480546105cf90611d10565b80601f01602080910402602001604051908101604052809291908181526020018280546105fb90611d10565b80156106465780601f1061061d57610100808354040283529160200191610646565b820191905f5260205f20905b81548152906001019060200180831161062957829003601f168201915b505050505081565b610656611630565b6002546001600160a01b0390811690831603610670575f80fd5b6106846001600160a01b0383163383611689565b5050565b610691336116f1565b565b60115442116106bd5760405162461bcd60e51b81526004016106b490611d48565b60405180910390fd5b600a54601754106107105760405162461bcd60e51b815260206004820181905260248201527f5468652049444f20706f6f6c2068617320726561636820736f6674206361702e60448201526064016106b4565b335f908152601b602052604090206002810154806107705760405162461bcd60e51b815260206004820152601760248201527f596f752068617665206e6f20696e766573746d656e742e00000000000000000060448201526064016106b4565b5f808355600283018190556001830155600754610684906201000090046001600160a01b03163383611689565b6002546040516370a0823160e01b81523060048201525f9182916001600160a01b03909116906370a0823190602401602060405180830381865afa1580156107e7573d5f803e3d5ffd5b505050506040513d601f19601f8201168201806040525081019061080b9190611d7f565b905061082e6018546108286019548461184590919063ffffffff16565b90611859565b91505090565b61083c611630565b601154421161085d5760405162461bcd60e51b81526004016106b490611d48565b600a54601754106108b05760405162461bcd60e51b815260206004820181905260248201527f5468652049444f20706f6f6c2068617320726561636820736f6674206361702e60448201526064016106b4565b6002546040516370a0823160e01b81523060048201525f916001600160a01b0316906370a0823190602401602060405180830381865afa1580156108f6573d5f803e3d5ffd5b505050506040513d601f19601f8201168201806040525081019061091a9190611d7f565b90505f81116109775760405162461bcd60e51b815260206004820152602360248201527f5468652049444f20706f6f6c20686173206e6f7420726566756e6420746f6b6560448201526237399760e91b60648201526084016106b4565b60025461098e906001600160a01b03163383611689565b50565b610999611630565b6106915f611864565b60046106848282611de1565b6010544210156109ee5760405162461bcd60e51b815260206004820152600b60248201526a139bdd081cdd185c9d195960aa1b60448201526064016106b4565b6011544210610a275760405162461bcd60e51b8152602060048201526005602482015264115b99195960da1b60448201526064016106b4565b600c54811015610a705760405162461bcd60e51b815260206004820152601460248201527313195cdcc81d1a195b881b5a5b88185b5bdd5b9d60621b60448201526064016106b4565b600d54811115610ab95760405162461bcd60e51b8152602060048201526014602482015273135bdc99481d1a195b881b585e08185b5bdd5b9d60621b60448201526064016106b4565b600b54601754610ac99083611845565b1115610b045760405162461bcd60e51b815260206004820152600a60248201526913dd995c999a5b1b195960b21b60448201526064016106b4565b335f908152601b60205260409020600d546002820154610b249084611845565b1115610b695760405162461bcd60e51b8152602060048201526014602482015273135bdc99481d1a195b881b585e08185b5bdd5b9d60621b60448201526064016106b4565b5f610b788360095f01546118b3565b600754909150610b99906201000090046001600160a01b03163330866118d7565b601754610ba69084611845565b601755601854610bb69082611845565b6018556002820154610bc89084611845565b60028301556001820154610bdc9082611845565b60018301558154610bed9082611845565b8255604080518481526020810183905233917fb55d4ca2fc644ca3f8cdc9c907826e24acd68d2b2d4d73f48b8f2378dbaedf5d910160405180910390a2505050565b610c37611630565b6011544211610c585760405162461bcd60e51b81526004016106b490611d48565b600a546017541015610cb85760405162461bcd60e51b8152602060048201526024808201527f5468652049444f20706f6f6c20646964206e6f7420726561636820736f66742060448201526331b0b81760e11b60648201526084016106b4565b601a5460ff1615610d025760405162461bcd60e51b815260206004820152601460248201527320b63932b0b23c903234b9ba3934b13aba32b21760611b60448201526064016106b4565b5f610d26612710610d2060065460175461191590919063ffffffff16565b90611920565b601754909150610d369082611859565b60175560075460055460405163a9059cbb60e01b81526001600160a01b039182166004820152602481018490525f926201000090049091169063a9059cbb906044016020604051808303815f875af1158015610d94573d5f803e3d5ffd5b505050506040513d601f19601f82011682018060405250810190610db89190611e9c565b905080610df95760405162461bcd60e51b815260206004820152600f60248201526e1d1c985b9cd9995c8811985a5b1959608a1b60448201526064016106b4565b5f610e0261079d565b60075490915060ff1615610e2e57600254610e29906001600160a01b031661dead83611689565b610ea0565b5f8111610e895760405162461bcd60e51b815260206004820152602360248201527f5468652049444f20706f6f6c20686173206e6f7420756e736f6c6420746f6b6560448201526237399760e91b60648201526084016106b4565b600254610ea0906001600160a01b03163383611689565b6007546040516370a0823160e01b81523060048201525f916201000090046001600160a01b0316906370a0823190602401602060405180830381865afa158015610eec573d5f803e3d5ffd5b505050506040513d601f19601f82011682018060405250810190610f109190611d7f565b90505f8111610f545760405162461bcd60e51b815260206004820152601060248201526f02737ba1022b737bab3b410233ab732160851b60448201526064016106b4565b600f5415801590610f665750600e5415155b156114e257600f545f90606490610f7d9084611ecf565b610f879190611ee6565b90505f610f948284611f05565b90505f610fa6836009600501546118b3565b60135460025460405163095ea7b360e01b81526001600160a01b03928316600482018190526024820185905293945091169063095ea7b3906044016020604051808303815f875af1158015610ffd573d5f803e3d5ffd5b505050506040513d601f19601f820116820180604052508101906110219190611e9c565b5060075460405163095ea7b360e01b81526001600160a01b03838116600483015260248201879052620100009092049091169063095ea7b3906044016020604051808303815f875af1158015611079573d5f803e3d5ffd5b505050506040513d601f19601f8201168201806040525081019061109d9190611e9c565b505f816001600160a01b031663e8e3370060025f9054906101000a90046001600160a01b0316600760029054906101000a90046001600160a01b031686895f8030601060020154426110ef9190611f18565b60405160e08a901b6001600160e01b03191681526001600160a01b039889166004820152968816602488015260448701959095526064860193909352608485019190915260a484015290921660c482015260e4810191909152610104016060604051808303815f875af1158015611168573d5f803e3d5ffd5b505050506040513d601f19601f8201168201806040525081019061118c9190611f2b565b60145460025460075460405163e6a4390560e01b81526001600160a01b03928316600482015262010000909104821660248201529295505f945016915063e6a4390590604401602060405180830381865afa1580156111ed573d5f803e3d5ffd5b505050506040513d601f19601f820116820180604052508101906112119190611f56565b60125490915081904210156113ab5760165460405163095ea7b360e01b81526001600160a01b039182166004820152602481018590529082169063095ea7b3906044016020604051808303815f875af1158015611270573d5f803e3d5ffd5b505050506040513d601f19601f820116820180604052508101906112949190611e9c565b5060165f9054906101000a90046001600160a01b03166001600160a01b031663072793573384600187601060020154876001600160a01b03166395d89b416040518163ffffffff1660e01b81526004015f60405180830381865afa1580156112fe573d5f803e3d5ffd5b505050506040513d5f823e601f3d908101601f191682016040526113259190810190611f71565b6040516020016113359190611ffd565b6040516020818303038152906040526040518763ffffffff1660e01b815260040161136596959493929190612026565b6020604051808303815f875af1158015611381573d5f803e3d5ffd5b505050506040513d601f19601f820116820180604052508101906113a59190611d7f565b5061141b565b60405163a9059cbb60e01b8152336004820152602481018490526001600160a01b0382169063a9059cbb906044016020604051808303815f875af11580156113f5573d5f803e3d5ffd5b505050506040513d601f19601f820116820180604052508101906114199190611e9c565b505b60075460405163a9059cbb60e01b8152336004820152602481018890525f916201000090046001600160a01b03169063a9059cbb906044016020604051808303815f875af115801561146f573d5f803e3d5ffd5b505050506040513d601f19601f820116820180604052508101906114939190611e9c565b9050806114d55760405162461bcd60e51b815260206004820152601060248201526f2a3930b739b332b9103330b4b632b21760811b60448201526064016106b4565b505050505050505061159e565b60075460405163a9059cbb60e01b8152336004820152602481018390525f916201000090046001600160a01b03169063a9059cbb906044016020604051808303815f875af1158015611536573d5f803e3d5ffd5b505050506040513d601f19601f8201168201806040525081019061155a9190611e9c565b90508061159c5760405162461bcd60e51b815260206004820152601060248201526f2a3930b739b332b9103330b4b632b21760811b60448201526064016106b4565b505b5050601a805460ff191660011790555050565b61098e816116f1565b6115c2611630565b6001600160a01b0381166116275760405162461bcd60e51b815260206004820152602660248201527f4f776e61626c653a206e6577206f776e657220697320746865207a65726f206160448201526564647265737360d01b60648201526084016106b4565b61098e81611864565b5f546001600160a01b031633146106915760405162461bcd60e51b815260206004820181905260248201527f4f776e61626c653a2063616c6c6572206973206e6f7420746865206f776e657260448201526064016106b4565b6040516001600160a01b0383166024820152604481018290526116ec90849063a9059cbb60e01b906064015b60408051601f198184030181529190526020810180516001600160e01b03166001600160e01b03199093169290921790915261192b565b505050565b6002600154036117435760405162461bcd60e51b815260206004820152601f60248201527f5265656e7472616e637947756172643a207265656e7472616e742063616c6c0060448201526064016106b4565b600260015560115442116117695760405162461bcd60e51b81526004016106b490611d48565b6001600160a01b0381165f908152601b602052604090208054806117cf5760405162461bcd60e51b815260206004820152601c60248201527f596f7520646f206e6f742068617665206465627420746f6b656e732e0000000060448201526064016106b4565b5f82556019546117df9082611845565b6019556002546117f9906001600160a01b03168483611689565b826001600160a01b03167f6352c5382c4a4578e712449ca65e83cdb392d045dfcf1cad9615189db2da244b8260405161183491815260200190565b60405180910390a250506001805550565b5f6118508284611f18565b90505b92915050565b5f6118508284611f05565b5f80546001600160a01b038381166001600160a01b0319831681178455604051919092169283917f8be0079c531659141344cd1fd0a4f28419497f9722a3daafe3b4186f6b6457e09190a35050565b5f600354600a6118c39190612156565b6118cd8385611ee6565b6118509190611ecf565b6040516001600160a01b038085166024830152831660448201526064810182905261190f9085906323b872dd60e01b906084016116b5565b50505050565b5f6118508284611ecf565b5f6118508284611ee6565b5f61197f826040518060400160405280602081526020017f5361666545524332303a206c6f772d6c6576656c2063616c6c206661696c6564815250856001600160a01b03166119fc9092919063ffffffff16565b8051909150156116ec578080602001905181019061199d9190611e9c565b6116ec5760405162461bcd60e51b815260206004820152602a60248201527f5361666545524332303a204552433230206f7065726174696f6e20646964206e6044820152691bdd081cdd58d8d9595960b21b60648201526084016106b4565b6060611a0a84845f85611a14565b90505b9392505050565b606082471015611a755760405162461bcd60e51b815260206004820152602660248201527f416464726573733a20696e73756666696369656e742062616c616e636520666f6044820152651c8818d85b1b60d21b60648201526084016106b4565b6001600160a01b0385163b611acc5760405162461bcd60e51b815260206004820152601d60248201527f416464726573733a2063616c6c20746f206e6f6e2d636f6e747261637400000060448201526064016106b4565b5f80866001600160a01b03168587604051611ae79190612161565b5f6040518083038185875af1925050503d805f8114611b21576040519150601f19603f3d011682016040523d82523d5f602084013e611b26565b606091505b5091509150611b36828286611b41565b979650505050505050565b60608315611b50575081611a0d565b825115611b605782518084602001fd5b8160405162461bcd60e51b81526004016106b49190611bd7565b6001600160a01b038116811461098e575f80fd5b5f60208284031215611b9e575f80fd5b8135611a0d81611b7a565b5f81518084528060208401602086015e5f602082860101526020601f19601f83011685010191505092915050565b602081525f6118506020830184611ba9565b5f8060408385031215611bfa575f80fd5b8235611c0581611b7a565b946020939093013593505050565b634e487b7160e01b5f52604160045260245ffd5b604051601f8201601f1916810167ffffffffffffffff81118282101715611c5057611c50611c13565b604052919050565b5f67ffffffffffffffff821115611c7157611c71611c13565b50601f01601f191660200190565b5f60208284031215611c8f575f80fd5b813567ffffffffffffffff811115611ca5575f80fd5b8201601f81018413611cb5575f80fd5b8035611cc8611cc382611c58565b611c27565b818152856020838501011115611cdc575f80fd5b816020840160208301375f91810160200191909152949350505050565b5f60208284031215611d09575f80fd5b5035919050565b600181811c90821680611d2457607f821691505b602082108103611d4257634e487b7160e01b5f52602260045260245ffd5b50919050565b6020808252601b908201527f5468652049444f20706f6f6c20686173206e6f7420656e6465642e0000000000604082015260600190565b5f60208284031215611d8f575f80fd5b5051919050565b601f8211156116ec57805f5260205f20601f840160051c81016020851015611dbb5750805b601f840160051c820191505b81811015611dda575f8155600101611dc7565b5050505050565b815167ffffffffffffffff811115611dfb57611dfb611c13565b611e0f81611e098454611d10565b84611d96565b6020601f821160018114611e41575f8315611e2a5750848201515b5f19600385901b1c1916600184901b178455611dda565b5f84815260208120601f198516915b82811015611e705787850151825560209485019460019092019101611e50565b5084821015611e8d57868401515f19600387901b60f8161c191681555b50505050600190811b01905550565b5f60208284031215611eac575f80fd5b81518015158114611a0d575f80fd5b634e487b7160e01b5f52601160045260245ffd5b808202811582820484141761185357611853611ebb565b5f82611f0057634e487b7160e01b5f52601260045260245ffd5b500490565b8181038181111561185357611853611ebb565b8082018082111561185357611853611ebb565b5f805f60608486031215611f3d575f80fd5b5050815160208301516040909301519094929350919050565b5f60208284031215611f66575f80fd5b8151611a0d81611b7a565b5f60208284031215611f81575f80fd5b815167ffffffffffffffff811115611f97575f80fd5b8201601f81018413611fa7575f80fd5b8051611fb5611cc382611c58565b818152856020838501011115611fc9575f80fd5b8160208401602083015e5f91810160200191909152949350505050565b5f81518060208401855e5f93019283525090919050565b5f6120088284611fe6565b6d103a37b5b2b739903637b1b5b2b960911b8152600e019392505050565b6001600160a01b038781168252861660208201528415156040820152606081018490526080810183905260c060a082018190525f9061206790830184611ba9565b98975050505050505050565b6001815b60018411156120ae5780850481111561209257612092611ebb565b60018416156120a057908102905b60019390931c928002612077565b935093915050565b5f826120c457506001611853565b816120d057505f611853565b81600181146120e657600281146120f05761210c565b6001915050611853565b60ff84111561210157612101611ebb565b50506001821b611853565b5060208310610133831016604e8410600b841016171561212f575081810a611853565b61213b5f198484612073565b805f190482111561214e5761214e611ebb565b029392505050565b5f61185083836120b6565b5f6118508284611fe656fea264697066735822122057fd2a0e7c720702135b4b15597a7810ce612f6e20ca71c963e468e789a1a02964736f6c634300081a0033",
  "linkReferences": {},
  "deployedLinkReferences": {}
}