{
  "_format": "hh-sol-artifact-1",
  "contractName": "TrendPool",
  "sourceName": "contracts/TrendPool.sol",
  "abi": [
    {
      "inputs": [
        {
          "internalType": "contract ERC20",
          "name": "_rewardToken",
          "type": "address"
        },
        {
          "components": [
            {
              "internalType": "uint256",
              "name": "tokenPrice",
              "type": "uint256"
            },
            {
              "internalType": "uint256",
              "name": "softCap",
              "type": "uint256"
            },
            {
              "internalType": "uint256",
              "name": "hardCap",
              "type": "uint256"
            },
            {
              "internalType": "uint256",
              "name": "minEthPayment",
              "type": "uint256"
            },
            {
              "internalType": "uint256",
              "name": "maxEthPayment",
              "type": "uint256"
            },
            {
              "internalType": "uint256",
              "name": "listingPrice",
              "type": "uint256"
            },
            {
              "internalType": "uint256",
              "name": "lpInterestRate",
              "type": "uint256"
            }
          ],
          "internalType": "struct TrendPool.SaleInfo",
          "name": "_finInfo",
          "type": "tuple"
        },
        {
          "components": [
            {
              "internalType": "uint256",
              "name": "startTimestamp",
              "type": "uint256"
            },
            {
              "internalType": "uint256",
              "name": "endTimestamp",
              "type": "uint256"
            },
            {
              "internalType": "uint256",
              "name": "unlockTimestamp",
              "type": "uint256"
            }
          ],
          "internalType": "struct TrendPool.Timestamps",
          "name": "_timestamps",
          "type": "tuple"
        },
        {
          "components": [
            {
              "internalType": "address",
              "name": "router",
              "type": "address"
            },
            {
              "internalType": "address",
              "name": "factory",
              "type": "address"
            },
            {
              "internalType": "address",
              "name": "weth",
              "type": "address"
            }
          ],
          "internalType": "struct TrendPool.DEXInfo",
          "name": "_dexInfo",
          "type": "tuple"
        },
        {
          "internalType": "address",
          "name": "_locker",
          "type": "address"
        },
        {
          "internalType": "string",
          "name": "_metadataURL",
          "type": "string"
        },
        {
          "internalType": "bool",
          "name": "_burnType",
          "type": "bool"
        },
        {
          "internalType": "address",
          "name": "_feeWallet",
          "type": "address"
        },
        {
          "internalType": "uint256",
          "name": "_feeAmount",
          "type": "uint256"
        }
      ],
      "stateMutability": "nonpayable",
      "type": "constructor"
    },
    {
      "anonymous": false,
      "inputs": [
        {
          "indexed": true,
          "internalType": "address",
          "name": "previousOwner",
          "type": "address"
        },
        {
          "indexed": true,
          "internalType": "address",
          "name": "newOwner",
          "type": "address"
        }
      ],
      "name": "OwnershipTransferred",
      "type": "event"
    },
    {
      "anonymous": false,
      "inputs": [
        {
          "indexed": false,
          "internalType": "uint256",
          "name": "timestamp",
          "type": "uint256"
        }
      ],
      "name": "PoolCancelled",
      "type": "event"
    },
    {
      "anonymous": false,
      "inputs": [
        {
          "indexed": true,
          "internalType": "address",
          "name": "holder",
          "type": "address"
        },
        {
          "indexed": false,
          "internalType": "uint256",
          "name": "ethAmount",
          "type": "uint256"
        },
        {
          "indexed": false,
          "internalType": "uint256",
          "name": "tokenAmount",
          "type": "uint256"
        }
      ],
      "name": "TokensDebt",
      "type": "event"
    },
    {
      "anonymous": false,
      "inputs": [
        {
          "indexed": true,
          "internalType": "address",
          "name": "holder",
          "type": "address"
        },
        {
          "indexed": false,
          "internalType": "uint256",
          "name": "amount",
          "type": "uint256"
        }
      ],
      "name": "TokensWithdrawn",
      "type": "event"
    },
    {
      "inputs": [],
      "name": "Finalize",
      "outputs": [],
      "stateMutability": "payable",
      "type": "function"
    },
    {
      "inputs": [],
      "name": "burnType",
      "outputs": [
        {
          "internalType": "bool",
          "name": "",
          "type": "bool"
        }
      ],
      "stateMutability": "view",
      "type": "function"
    },
    {
      "inputs": [],
      "name": "cancelSale",
      "outputs": [],
      "stateMutability": "nonpayable",
      "type": "function"
    },
    {
      "inputs": [],
      "name": "claim",
      "outputs": [],
      "stateMutability": "nonpayable",
      "type": "function"
    },
    {
      "inputs": [
        {
          "internalType": "address",
          "name": "_user",
          "type": "address"
        }
      ],
      "name": "claimFor",
      "outputs": [],
      "stateMutability": "nonpayable",
      "type": "function"
    },
    {
      "inputs": [],
      "name": "decimals",
      "outputs": [
        {
          "internalType": "uint256",
          "name": "",
          "type": "uint256"
        }
      ],
      "stateMutability": "view",
      "type": "function"
    },
    {
      "inputs": [],
      "name": "dexInfo",
      "outputs": [
        {
          "internalType": "address",
          "name": "router",
          "type": "address"
        },
        {
          "internalType": "address",
          "name": "factory",
          "type": "address"
        },
        {
          "internalType": "address",
          "name": "weth",
          "type": "address"
        }
      ],
      "stateMutability": "view",
      "type": "function"
    },
    {
      "inputs": [],
      "name": "distributed",
      "outputs": [
        {
          "internalType": "bool",
          "name": "",
          "type": "bool"
        }
      ],
      "stateMutability": "view",
      "type": "function"
    },
    {
      "inputs": [],
      "name": "distributedTokens",
      "outputs": [
        {
          "internalType": "uint256",
          "name": "",
          "type": "uint256"
        }
      ],
      "stateMutability": "view",
      "type": "function"
    },
    {
      "inputs": [],
      "name": "feeAmount",
      "outputs": [
        {
          "internalType": "uint256",
          "name": "",
          "type": "uint256"
        }
      ],
      "stateMutability": "view",
      "type": "function"
    },
    {
      "inputs": [],
      "name": "feeWallet",
      "outputs": [
        {
          "internalType": "address",
          "name": "",
          "type": "address"
        }
      ],
      "stateMutability": "view",
      "type": "function"
    },
    {
      "inputs": [],
      "name": "getNotSoldToken",
      "outputs": [
        {
          "internalType": "uint256",
          "name": "",
          "type": "uint256"
        }
      ],
      "stateMutability": "view",
      "type": "function"
    },
    {
      "inputs": [],
      "name": "isPoolCancel",
      "outputs": [
        {
          "internalType": "bool",
          "name": "",
          "type": "bool"
        }
      ],
      "stateMutability": "view",
      "type": "function"
    },
    {
      "inputs": [],
      "name": "locker",
      "outputs": [
        {
          "internalType": "contract ITrendLock",
          "name": "",
          "type": "address"
        }
      ],
      "stateMutability": "view",
      "type": "function"
    },
    {
      "inputs": [],
      "name": "metadataURL",
      "outputs": [
        {
          "internalType": "string",
          "name": "",
          "type": "string"
        }
      ],
      "stateMutability": "view",
      "type": "function"
    },
    {
      "inputs": [],
      "name": "owner",
      "outputs": [
        {
          "internalType": "address",
          "name": "",
          "type": "address"
        }
      ],
      "stateMutability": "view",
      "type": "function"
    },
    {
      "inputs": [],
      "name": "pay",
      "outputs": [],
      "stateMutability": "payable",
      "type": "function"
    },
    {
      "inputs": [
        {
          "internalType": "address",
          "name": "_tokenAddress",
          "type": "address"
        },
        {
          "internalType": "uint256",
          "name": "_tokenAmount",
          "type": "uint256"
        }
      ],
      "name": "recoverWrongTokens",
      "outputs": [],
      "stateMutability": "nonpayable",
      "type": "function"
    },
    {
      "inputs": [],
      "name": "refund",
      "outputs": [],
      "stateMutability": "nonpayable",
      "type": "function"
    },
    {
      "inputs": [],
      "name": "refundTokens",
      "outputs": [],
      "stateMutability": "nonpayable",
      "type": "function"
    },
    {
      "inputs": [],
      "name": "renounceOwnership",
      "outputs": [],
      "stateMutability": "nonpayable",
      "type": "function"
    },
    {
      "inputs": [],
      "name": "rewardToken",
      "outputs": [
        {
          "internalType": "contract ERC20",
          "name": "",
          "type": "address"
        }
      ],
      "stateMutability": "view",
      "type": "function"
    },
    {
      "inputs": [],
      "name": "saleInfo",
      "outputs": [
        {
          "internalType": "uint256",
          "name": "tokenPrice",
          "type": "uint256"
        },
        {
          "internalType": "uint256",
          "name": "softCap",
          "type": "uint256"
        },
        {
          "internalType": "uint256",
          "name": "hardCap",
          "type": "uint256"
        },
        {
          "internalType": "uint256",
          "name": "minEthPayment",
          "type": "uint256"
        },
        {
          "internalType": "uint256",
          "name": "maxEthPayment",
          "type": "uint256"
        },
        {
          "internalType": "uint256",
          "name": "listingPrice",
          "type": "uint256"
        },
        {
          "internalType": "uint256",
          "name": "lpInterestRate",
          "type": "uint256"
        }
      ],
      "stateMutability": "view",
      "type": "function"
    },
    {
      "inputs": [
        {
          "internalType": "string",
          "name": "_metadataURL",
          "type": "string"
        }
      ],
      "name": "setMetadataURL",
      "outputs": [],
      "stateMutability": "nonpayable",
      "type": "function"
    },
    {
      "inputs": [],
      "name": "timestamps",
      "outputs": [
        {
          "internalType": "uint256",
          "name": "startTimestamp",
          "type": "uint256"
        },
        {
          "internalType": "uint256",
          "name": "endTimestamp",
          "type": "uint256"
        },
        {
          "internalType": "uint256",
          "name": "unlockTimestamp",
          "type": "uint256"
        }
      ],
      "stateMutability": "view",
      "type": "function"
    },
    {
      "inputs": [],
      "name": "tokensForDistribution",
      "outputs": [
        {
          "internalType": "uint256",
          "name": "",
          "type": "uint256"
        }
      ],
      "stateMutability": "view",
      "type": "function"
    },
    {
      "inputs": [],
      "name": "totalInvestedETH",
      "outputs": [
        {
          "internalType": "uint256",
          "name": "",
          "type": "uint256"
        }
      ],
      "stateMutability": "view",
      "type": "function"
    },
    {
      "inputs": [
        {
          "internalType": "address",
          "name": "newOwner",
          "type": "address"
        }
      ],
      "name": "transferOwnership",
      "outputs": [],
      "stateMutability": "nonpayable",
      "type": "function"
    },
    {
      "inputs": [
        {
          "internalType": "address",
          "name": "",
          "type": "address"
        }
      ],
      "name": "userInfo",
      "outputs": [
        {
          "internalType": "uint256",
          "name": "debt",
          "type": "uint256"
        },
        {
          "internalType": "uint256",
          "name": "total",
          "type": "uint256"
        },
        {
          "internalType": "uint256",
          "name": "totalInvestedETH",
          "type": "uint256"
        }
      ],
      "stateMutability": "view",
      "type": "function"
    }
  ],
  "bytecode": "0x60806040526007805460ff19908116909155601980549091169055348015610025575f80fd5b5060405161224a38038061224a833981016040819052610044916104bd565b61004d336101b4565b60018055600280546001600160a01b0319166001600160a01b038b169081179091556040805163313ce56760e01b8152905163313ce567916004808201926020929091908290030181865afa1580156100a8573d5f803e3d5ffd5b505050506040513d601f19601f820116820180604052508101906100cc91906105e2565b60ff16600355601580546001600160a01b038088166001600160a01b0319928316179092556007805486151560ff1990911617905560058054928516929091169190911790556006819055875160085560208801516009556040880151600a556060880151600b556080880151600c5560a0880151600d5560c0880151600e5561015587610203565b8551601280546001600160a01b039283166001600160a01b0319918216179091556020880151601380549184169183169190911790556040880151601480549190931691161790556101a684610304565b505050505050505050610747565b5f80546001600160a01b038381166001600160a01b0319831681178455604051919092169283917f8be0079c531659141344cd1fd0a4f28419497f9722a3daafe3b4186f6b6457e09190a35050565b60208101518151106102825760405162461bcd60e51b815260206004820152603560248201527f53746172742074696d657374616d70206d757374206265206c6573732020202060448201527f7468616e2066696e6973682074696d657374616d70000000000000000000000060648201526084015b60405180910390fd5b428160200151116102ee5760405162461bcd60e51b815260206004820152603060248201527f46696e6973682074696d657374616d70206d757374206265206d6f726520746860448201526f616e2063757272656e7420626c6f636b60801b6064820152608401610279565b8051600f55602081015160105560400151601155565b6004610310828261068d565b5050565b6001600160a01b0381168114610328575f80fd5b50565b634e487b7160e01b5f52604160045260245ffd5b604051606081016001600160401b03811182821017156103615761036161032b565b60405290565b60405160e081016001600160401b03811182821017156103615761036161032b565b5f60608284031215610399575f80fd5b6103a161033f565b82518152602080840151908201526040928301519281019290925250919050565b80516103cd81610314565b919050565b5f606082840312156103e2575f80fd5b6103ea61033f565b905081516103f781610314565b8152602082015161040781610314565b6020820152604082015161041a81610314565b604082015292915050565b5f82601f830112610434575f80fd5b81516001600160401b0381111561044d5761044d61032b565b604051601f8201601f19908116603f011681016001600160401b038111828210171561047b5761047b61032b565b604052818152838201602001851015610492575f80fd5b8160208501602083015e5f918101602001919091529392505050565b805180151581146103cd575f80fd5b5f805f805f805f805f898b036102608112156104d7575f80fd5b8a516104e281610314565b995060e0601f19820112156104f5575f80fd5b506104fe610367565b60208b81015182526040808d0151918301919091526060808d0151918301919091526080808d01519183019190915260a0808d01519183019190915260c0808d01519183019190915260e08c01519082015297506105608b6101008c01610389565b96506105708b6101608c016103d2565b955061057f6101c08b016103c2565b6101e08b01519095506001600160401b0381111561059b575f80fd5b6105a78c828d01610425565b9450506105b76102008b016104ae565b92506105c66102208b016103c2565b91505f6102408b01519050809150509295985092959850929598565b5f602082840312156105f2575f80fd5b815160ff81168114610602575f80fd5b9392505050565b600181811c9082168061061d57607f821691505b60208210810361063b57634e487b7160e01b5f52602260045260245ffd5b50919050565b601f82111561068857805f5260205f20601f840160051c810160208510156106665750805b601f840160051c820191505b81811015610685575f8155600101610672565b50505b505050565b81516001600160401b038111156106a6576106a661032b565b6106ba816106b48454610609565b84610641565b6020601f8211600181146106ec575f83156106d55750848201515b5f19600385901b1c1916600184901b178455610685565b5f84815260208120601f198516915b8281101561071b57878501518255602094850194600190920191016106fb565b508482101561073857868401515f19600387901b60f8161c191681555b50505050600190811b01905550565b611af6806107545f395ff3fe6080604052600436106101ba575f3560e01c806371007509116100f2578063d8d2a56d11610092578063f2fde38b11610062578063f2fde38b1461050e578063f7c618c11461052d578063f84b903e1461054c578063fd46a17114610565575f80fd5b8063d8d2a56d14610466578063ddeae033146104bc578063e7e10490146104db578063f25f4b56146104ef575f80fd5b80638da5cb5b116100cd5780638da5cb5b146103ac5780638e3695b8146103dc578063c5454d111461043f578063d7b96d4e14610447575f80fd5b80637100750914610365578063715018a614610379578063747daec51461038d575f80fd5b8063491447a81161015d578063586360ce11610138578063586360ce14610313578063590e1ae31461032857806362bea93f1461033c57806369e1540414610350575f80fd5b8063491447a8146102cc5780634b1a4c0c146102ea5780634e71d92d146102ff575f80fd5b80632dcc8c66116101985780632dcc8c66146102505780632e007d7c14610271578063313ce5671461028a5780633f138d4b146102ad575f80fd5b8063020a6ffa146101be5780631959a002146101f15780631b9265b814610246575b5f80fd5b3480156101c9575f80fd5b506007546101dc90610100900460ff1681565b60405190151581526020015b60405180910390f35b3480156101fc575f80fd5b5061022b61020b366004611657565b601a6020525f908152604090208054600182015460029092015490919083565b604080519384526020840192909252908201526060016101e8565b61024e61057a565b005b34801561025b575f80fd5b506102646107e1565b6040516101e89190611670565b34801561027c575f80fd5b506007546101dc9060ff1681565b348015610295575f80fd5b5061029f60035481565b6040519081526020016101e8565b3480156102b8575f80fd5b5061024e6102c73660046116a5565b61086d565b3480156102d7575f80fd5b50600f5460105460115461022b92919083565b3480156102f5575f80fd5b5061029f60175481565b34801561030a575f80fd5b5061024e6108a7565b34801561031e575f80fd5b5061029f60185481565b348015610333575f80fd5b5061024e6108b2565b348015610347575f80fd5b5061029f610a5b565b34801561035b575f80fd5b5061029f60065481565b348015610370575f80fd5b5061024e610af2565b348015610384575f80fd5b5061024e610c29565b348015610398575f80fd5b5061024e6103a73660046116e1565b610c3a565b3480156103b7575f80fd5b505f546001600160a01b03165b6040516001600160a01b0390911681526020016101e8565b3480156103e7575f80fd5b50600854600954600a54600b54600c54600d54600e5461040a9695949392919087565b604080519788526020880196909652948601939093526060850191909152608084015260a083015260c082015260e0016101e8565b61024e610c46565b348015610452575f80fd5b506015546103c4906001600160a01b031681565b348015610471575f80fd5b50601254601354601454610492926001600160a01b03908116928116911683565b604080516001600160a01b03948516815292841660208401529216918101919091526060016101e8565b3480156104c7575f80fd5b5061024e6104d6366004611657565b610f75565b3480156104e6575f80fd5b5061024e610f7e565b3480156104fa575f80fd5b506005546103c4906001600160a01b031681565b348015610519575f80fd5b5061024e610528366004611657565b61107c565b348015610538575f80fd5b506002546103c4906001600160a01b031681565b348015610557575f80fd5b506019546101dc9060ff1681565b348015610570575f80fd5b5061029f60165481565b600f544210156105bf5760405162461bcd60e51b815260206004820152600b60248201526a139bdd081cdd185c9d195960aa1b60448201526064015b60405180910390fd5b60105442106105f85760405162461bcd60e51b8152602060048201526005602482015264115b99195960da1b60448201526064016105b6565b600b543410156106415760405162461bcd60e51b815260206004820152601460248201527313195cdcc81d1a195b881b5a5b88185b5bdd5b9d60621b60448201526064016105b6565b600c5434111561068a5760405162461bcd60e51b8152602060048201526014602482015273135bdc99481d1a195b881b585e08185b5bdd5b9d60621b60448201526064016105b6565b600a5460165461069a90346110f2565b11156106d55760405162461bcd60e51b815260206004820152600a60248201526913dd995c999a5b1b195960b21b60448201526064016105b6565b335f908152601a60205260409020600c5460028201546106f590346110f2565b111561073a5760405162461bcd60e51b8152602060048201526014602482015273135bdc99481d1a195b881b585e08185b5bdd5b9d60621b60448201526064016105b6565b5f6107493460085f0154611106565b60165490915061075990346110f2565b60165560175461076990826110f2565b601755600282015461077b90346110f2565b6002830155600182015461078f90826110f2565b600183015581546107a090826110f2565b8255604080513481526020810183905233917fb55d4ca2fc644ca3f8cdc9c907826e24acd68d2b2d4d73f48b8f2378dbaedf5d910160405180910390a25050565b600480546107ee90611794565b80601f016020809104026020016040519081016040528092919081815260200182805461081a90611794565b80156108655780601f1061083c57610100808354040283529160200191610865565b820191905f5260205f20905b81548152906001019060200180831161084857829003601f168201915b505050505081565b61087561112a565b6002546001600160a01b039081169083160361088f575f80fd5b6108a36001600160a01b0383163383611183565b5050565b6108b0336111d5565b565b600754610100900460ff166109005760405162461bcd60e51b8152602060048201526014602482015273141bdbdb081a5cc81b9bdd0818d85b98d95b195960621b60448201526064016105b6565b335f908152601a602052604090206002015461095e5760405162461bcd60e51b815260206004820152601760248201527f4e6f20696e766573746d656e7420746f20726566756e6400000000000000000060448201526064016105b6565b335f908152601a602052604090206002810154806109be5760405162461bcd60e51b815260206004820152601760248201527f596f752068617665206e6f20696e766573746d656e742e00000000000000000060448201526064016105b6565b5f8083556002830181905560018301819055604051339083908381818185875af1925050503d805f8114610a0d576040519150601f19603f3d011682016040523d82523d5f602084013e610a12565b606091505b5050905080610a565760405162461bcd60e51b815260206004820152601060248201526f2a3930b739b332b9103330b4b632b21760811b60448201526064016105b6565b505050565b6002546040516370a0823160e01b81523060048201525f9182916001600160a01b03909116906370a0823190602401602060405180830381865afa158015610aa5573d5f803e3d5ffd5b505050506040513d601f19601f82011682018060405250810190610ac991906117cc565b9050610aec601754610ae6601854846110f290919063ffffffff16565b9061137d565b91505090565b610afa61112a565b600754610100900460ff16610b485760405162461bcd60e51b8152602060048201526014602482015273141bdbdb081a5cc81b9bdd0818d85b98d95b195960621b60448201526064016105b6565b6002546040516370a0823160e01b81523060048201525f916001600160a01b0316906370a0823190602401602060405180830381865afa158015610b8e573d5f803e3d5ffd5b505050506040513d601f19601f82011682018060405250810190610bb291906117cc565b90505f8111610c0f5760405162461bcd60e51b815260206004820152602360248201527f5468652049444f20706f6f6c20686173206e6f7420726566756e6420746f6b6560448201526237399760e91b60648201526084016105b6565b600254610c26906001600160a01b03163383611183565b50565b610c3161112a565b6108b05f611388565b60046108a3828261182e565b610c4e61112a565b6010544211610c9f5760405162461bcd60e51b815260206004820152601b60248201527f5468652049444f20706f6f6c20686173206e6f7420656e6465642e000000000060448201526064016105b6565b6009546016541015610cc35760405162461bcd60e51b81526004016105b6906118e9565b60195460ff1615610d0d5760405162461bcd60e51b815260206004820152601460248201527320b63932b0b23c903234b9ba3934b13aba32b21760611b60448201526064016105b6565b5f610d31612710610d2b6006546016546113d790919063ffffffff16565b906113e2565b601654909150610d41908261137d565b6016556005546040515f916001600160a01b03169083908381818185875af1925050503d805f8114610d8e576040519150601f19603f3d011682016040523d82523d5f602084013e610d93565b606091505b5050905080610de45760405162461bcd60e51b815260206004820152601c60248201527f506c6174666f726d20666565207472616e73666572206661696c65640000000060448201526064016105b6565b5f610ded610a5b565b60075490915060ff1615610e1957600254610e14906001600160a01b031661dead83611183565b610e8b565b5f8111610e745760405162461bcd60e51b815260206004820152602360248201527f5468652049444f20706f6f6c20686173206e6f7420756e736f6c6420746f6b6560448201526237399760e91b60648201526084016105b6565b600254610e8b906001600160a01b03163383611183565b4780610ed95760405162461bcd60e51b815260206004820152601860248201527f4e6f7420456e6f7567682046756e647320696e20506f6f6c000000000000000060448201526064016105b6565b6040515f90339083908381818185875af1925050503d805f8114610f18576040519150601f19603f3d011682016040523d82523d5f602084013e610f1d565b606091505b5050905080610f615760405162461bcd60e51b815260206004820152601060248201526f2a3930b739b332b9103330b4b632b21760811b60448201526064016105b6565b50506019805460ff19166001179055505050565b610c26816111d5565b610f8661112a565b600754610100900460ff1615610fd65760405162461bcd60e51b8152602060048201526015602482015274141bdbdb08185b1c9958591e4818d85b98d95b1959605a1b60448201526064016105b6565b60105442106110315760405162461bcd60e51b815260206004820152602160248201527f43616e6e6f742063616e63656c206166746572207468652073616c6520656e646044820152607360f81b60648201526084016105b6565b6007805461ff0019166101001790556040517f3d229dd60fc64b0903758feed58453f62e715f5d01dc0978c0a3a312dd2776c2906110729042815260200190565b60405180910390a1565b61108461112a565b6001600160a01b0381166110e95760405162461bcd60e51b815260206004820152602660248201527f4f776e61626c653a206e6577206f776e657220697320746865207a65726f206160448201526564647265737360d01b60648201526084016105b6565b610c2681611388565b5f6110fd8284611941565b90505b92915050565b5f600354600a6111169190611a37565b6111208385611a42565b6110fd9190611a61565b5f546001600160a01b031633146108b05760405162461bcd60e51b815260206004820181905260248201527f4f776e61626c653a2063616c6c6572206973206e6f7420746865206f776e657260448201526064016105b6565b604080516001600160a01b038416602482015260448082018490528251808303909101815260649091019091526020810180516001600160e01b031663a9059cbb60e01b179052610a569084906113ed565b6002600154036112275760405162461bcd60e51b815260206004820152601f60248201527f5265656e7472616e637947756172643a207265656e7472616e742063616c6c0060448201526064016105b6565b6002600155601054421161127d5760405162461bcd60e51b815260206004820152601b60248201527f5468652049444f20706f6f6c20686173206e6f7420656e6465642e000000000060448201526064016105b6565b60095460165410156112a15760405162461bcd60e51b81526004016105b6906118e9565b6001600160a01b0381165f908152601a602052604090208054806113075760405162461bcd60e51b815260206004820152601c60248201527f596f7520646f206e6f742068617665206465627420746f6b656e732e0000000060448201526064016105b6565b5f825560185461131790826110f2565b601855600254611331906001600160a01b03168483611183565b826001600160a01b03167f6352c5382c4a4578e712449ca65e83cdb392d045dfcf1cad9615189db2da244b8260405161136c91815260200190565b60405180910390a250506001805550565b5f6110fd8284611a78565b5f80546001600160a01b038381166001600160a01b0319831681178455604051919092169283917f8be0079c531659141344cd1fd0a4f28419497f9722a3daafe3b4186f6b6457e09190a35050565b5f6110fd8284611a61565b5f6110fd8284611a42565b5f611441826040518060400160405280602081526020017f5361666545524332303a206c6f772d6c6576656c2063616c6c206661696c6564815250856001600160a01b03166114be9092919063ffffffff16565b805190915015610a56578080602001905181019061145f9190611a8b565b610a565760405162461bcd60e51b815260206004820152602a60248201527f5361666545524332303a204552433230206f7065726174696f6e20646964206e6044820152691bdd081cdd58d8d9595960b21b60648201526084016105b6565b60606114cc84845f856114d6565b90505b9392505050565b6060824710156115375760405162461bcd60e51b815260206004820152602660248201527f416464726573733a20696e73756666696369656e742062616c616e636520666f6044820152651c8818d85b1b60d21b60648201526084016105b6565b6001600160a01b0385163b61158e5760405162461bcd60e51b815260206004820152601d60248201527f416464726573733a2063616c6c20746f206e6f6e2d636f6e747261637400000060448201526064016105b6565b5f80866001600160a01b031685876040516115a99190611aaa565b5f6040518083038185875af1925050503d805f81146115e3576040519150601f19603f3d011682016040523d82523d5f602084013e6115e8565b606091505b50915091506115f8828286611603565b979650505050505050565b606083156116125750816114cf565b8251156116225782518084602001fd5b8160405162461bcd60e51b81526004016105b69190611670565b80356001600160a01b0381168114611652575f80fd5b919050565b5f60208284031215611667575f80fd5b6110fd8261163c565b602081525f82518060208401528060208501604085015e5f604082850101526040601f19601f83011684010191505092915050565b5f80604083850312156116b6575f80fd5b6116bf8361163c565b946020939093013593505050565b634e487b7160e01b5f52604160045260245ffd5b5f602082840312156116f1575f80fd5b813567ffffffffffffffff811115611707575f80fd5b8201601f81018413611717575f80fd5b803567ffffffffffffffff811115611731576117316116cd565b604051601f8201601f19908116603f0116810167ffffffffffffffff81118282101715611760576117606116cd565b604052818152828201602001861015611777575f80fd5b816020840160208301375f91810160200191909152949350505050565b600181811c908216806117a857607f821691505b6020821081036117c657634e487b7160e01b5f52602260045260245ffd5b50919050565b5f602082840312156117dc575f80fd5b5051919050565b601f821115610a5657805f5260205f20601f840160051c810160208510156118085750805b601f840160051c820191505b81811015611827575f8155600101611814565b5050505050565b815167ffffffffffffffff811115611848576118486116cd565b61185c816118568454611794565b846117e3565b6020601f82116001811461188e575f83156118775750848201515b5f19600385901b1c1916600184901b178455611827565b5f84815260208120601f198516915b828110156118bd578785015182556020948501946001909201910161189d565b50848210156118da57868401515f19600387901b60f8161c191681555b50505050600190811b01905550565b60208082526024908201527f5468652049444f20706f6f6c20646964206e6f7420726561636820736f66742060408201526331b0b81760e11b606082015260800190565b634e487b7160e01b5f52601160045260245ffd5b808201808211156111005761110061192d565b6001815b600184111561198f578085048111156119735761197361192d565b600184161561198157908102905b60019390931c928002611958565b935093915050565b5f826119a557506001611100565b816119b157505f611100565b81600181146119c757600281146119d1576119ed565b6001915050611100565b60ff8411156119e2576119e261192d565b50506001821b611100565b5060208310610133831016604e8410600b8410161715611a10575081810a611100565b611a1c5f198484611954565b805f1904821115611a2f57611a2f61192d565b029392505050565b5f6110fd8383611997565b5f82611a5c57634e487b7160e01b5f52601260045260245ffd5b500490565b80820281158282048414176111005761110061192d565b818103818111156111005761110061192d565b5f60208284031215611a9b575f80fd5b815180151581146114cf575f80fd5b5f82518060208501845e5f92019182525091905056fea2646970667358221220524664a26bbe117a5d3d05b720b96aac41f5ed9ac676e7d4043aacb028f4054264736f6c634300081a0033",
  "linkReferences": {},
  "deployedLinkReferences": {}
}