{
  "_format": "hh-sol-artifact-1",
  "contractName": "Fairlaunch",
  "sourceName": "contracts/Fairlaunch.sol",
  "abi": [
    {
      "inputs": [
        {
          "internalType": "contract ERC20",
          "name": "_saleTokenAddress",
          "type": "address"
        },
        {
          "components": [
            {
              "internalType": "uint256",
              "name": "tokenAmount",
              "type": "uint256"
            },
            {
              "internalType": "uint256",
              "name": "softCap",
              "type": "uint256"
            },
            {
              "internalType": "uint256",
              "name": "maxPay",
              "type": "uint256"
            },
            {
              "internalType": "uint256",
              "name": "lpPayPercent",
              "type": "uint256"
            }
          ],
          "internalType": "struct Fairlaunch.SaleInfo",
          "name": "_saleInfo",
          "type": "tuple"
        },
        {
          "components": [
            {
              "internalType": "uint256",
              "name": "startTimestamp",
              "type": "uint256"
            },
            {
              "internalType": "uint256",
              "name": "endTimestamp",
              "type": "uint256"
            },
            {
              "internalType": "uint256",
              "name": "unlockTimestamp",
              "type": "uint256"
            }
          ],
          "internalType": "struct Fairlaunch.Timestamps",
          "name": "_timestamps",
          "type": "tuple"
        },
        {
          "components": [
            {
              "internalType": "address",
              "name": "router",
              "type": "address"
            },
            {
              "internalType": "address",
              "name": "factory",
              "type": "address"
            },
            {
              "internalType": "address",
              "name": "weth",
              "type": "address"
            }
          ],
          "internalType": "struct Fairlaunch.DEXInfo",
          "name": "_dexInfo",
          "type": "tuple"
        },
        {
          "internalType": "address",
          "name": "_lockerAddress",
          "type": "address"
        },
        {
          "internalType": "address",
          "name": "_feeWallet",
          "type": "address"
        },
        {
          "internalType": "uint256",
          "name": "_feePercent",
          "type": "uint256"
        }
      ],
      "stateMutability": "nonpayable",
      "type": "constructor"
    },
    {
      "anonymous": false,
      "inputs": [
        {
          "indexed": true,
          "internalType": "address",
          "name": "previousOwner",
          "type": "address"
        },
        {
          "indexed": true,
          "internalType": "address",
          "name": "newOwner",
          "type": "address"
        }
      ],
      "name": "OwnershipTransferred",
      "type": "event"
    },
    {
      "anonymous": false,
      "inputs": [
        {
          "indexed": false,
          "internalType": "uint256",
          "name": "timestamps",
          "type": "uint256"
        }
      ],
      "name": "PoolCancelled",
      "type": "event"
    },
    {
      "anonymous": false,
      "inputs": [
        {
          "indexed": true,
          "internalType": "address",
          "name": "holder",
          "type": "address"
        },
        {
          "indexed": false,
          "internalType": "uint256",
          "name": "ethAmount",
          "type": "uint256"
        },
        {
          "indexed": false,
          "internalType": "uint256",
          "name": "tokenAmount",
          "type": "uint256"
        }
      ],
      "name": "TokenDebt",
      "type": "event"
    },
    {
      "anonymous": false,
      "inputs": [
        {
          "indexed": true,
          "internalType": "address",
          "name": "holder",
          "type": "address"
        },
        {
          "indexed": false,
          "internalType": "uint256",
          "name": "amount",
          "type": "uint256"
        }
      ],
      "name": "TokenWithdraw",
      "type": "event"
    },
    {
      "inputs": [],
      "name": "CurrentTokenRate",
      "outputs": [
        {
          "internalType": "uint256",
          "name": "",
          "type": "uint256"
        }
      ],
      "stateMutability": "view",
      "type": "function"
    },
    {
      "inputs": [],
      "name": "Finalize",
      "outputs": [],
      "stateMutability": "payable",
      "type": "function"
    },
    {
      "inputs": [],
      "name": "IsPoolCancel",
      "outputs": [
        {
          "internalType": "bool",
          "name": "",
          "type": "bool"
        }
      ],
      "stateMutability": "view",
      "type": "function"
    },
    {
      "inputs": [],
      "name": "cancelSale",
      "outputs": [],
      "stateMutability": "nonpayable",
      "type": "function"
    },
    {
      "inputs": [],
      "name": "claim",
      "outputs": [],
      "stateMutability": "nonpayable",
      "type": "function"
    },
    {
      "inputs": [
        {
          "internalType": "address",
          "name": "_user",
          "type": "address"
        }
      ],
      "name": "claimFor",
      "outputs": [],
      "stateMutability": "nonpayable",
      "type": "function"
    },
    {
      "inputs": [],
      "name": "decimals",
      "outputs": [
        {
          "internalType": "uint256",
          "name": "",
          "type": "uint256"
        }
      ],
      "stateMutability": "view",
      "type": "function"
    },
    {
      "inputs": [],
      "name": "dexInfo",
      "outputs": [
        {
          "internalType": "address",
          "name": "router",
          "type": "address"
        },
        {
          "internalType": "address",
          "name": "factory",
          "type": "address"
        },
        {
          "internalType": "address",
          "name": "weth",
          "type": "address"
        }
      ],
      "stateMutability": "view",
      "type": "function"
    },
    {
      "inputs": [],
      "name": "distributed",
      "outputs": [
        {
          "internalType": "bool",
          "name": "",
          "type": "bool"
        }
      ],
      "stateMutability": "view",
      "type": "function"
    },
    {
      "inputs": [],
      "name": "distributedTokens",
      "outputs": [
        {
          "internalType": "uint256",
          "name": "",
          "type": "uint256"
        }
      ],
      "stateMutability": "view",
      "type": "function"
    },
    {
      "inputs": [],
      "name": "feePercent",
      "outputs": [
        {
          "internalType": "uint256",
          "name": "",
          "type": "uint256"
        }
      ],
      "stateMutability": "view",
      "type": "function"
    },
    {
      "inputs": [],
      "name": "feeWallet",
      "outputs": [
        {
          "internalType": "address",
          "name": "",
          "type": "address"
        }
      ],
      "stateMutability": "view",
      "type": "function"
    },
    {
      "inputs": [
        {
          "internalType": "uint256",
          "name": "_amount",
          "type": "uint256"
        },
        {
          "internalType": "uint256",
          "name": "lpPercent",
          "type": "uint256"
        },
        {
          "internalType": "uint256",
          "name": "_decimals",
          "type": "uint256"
        }
      ],
      "name": "getFairLaunchTokenAmount",
      "outputs": [
        {
          "internalType": "uint256",
          "name": "",
          "type": "uint256"
        }
      ],
      "stateMutability": "view",
      "type": "function"
    },
    {
      "inputs": [
        {
          "internalType": "uint256",
          "name": "_userContribution",
          "type": "uint256"
        }
      ],
      "name": "getTokenPrice",
      "outputs": [
        {
          "internalType": "uint256",
          "name": "",
          "type": "uint256"
        }
      ],
      "stateMutability": "view",
      "type": "function"
    },
    {
      "inputs": [],
      "name": "locker",
      "outputs": [
        {
          "internalType": "contract ITrendLock",
          "name": "",
          "type": "address"
        }
      ],
      "stateMutability": "view",
      "type": "function"
    },
    {
      "inputs": [],
      "name": "metaDataURl",
      "outputs": [
        {
          "internalType": "string",
          "name": "",
          "type": "string"
        }
      ],
      "stateMutability": "view",
      "type": "function"
    },
    {
      "inputs": [],
      "name": "owner",
      "outputs": [
        {
          "internalType": "address",
          "name": "",
          "type": "address"
        }
      ],
      "stateMutability": "view",
      "type": "function"
    },
    {
      "inputs": [],
      "name": "pay",
      "outputs": [],
      "stateMutability": "payable",
      "type": "function"
    },
    {
      "inputs": [
        {
          "internalType": "address",
          "name": "_receiver",
          "type": "address"
        }
      ],
      "name": "proccessClaim",
      "outputs": [],
      "stateMutability": "nonpayable",
      "type": "function"
    },
    {
      "inputs": [],
      "name": "refundTokens",
      "outputs": [],
      "stateMutability": "nonpayable",
      "type": "function"
    },
    {
      "inputs": [],
      "name": "renounceOwnership",
      "outputs": [],
      "stateMutability": "nonpayable",
      "type": "function"
    },
    {
      "inputs": [],
      "name": "saleInfo",
      "outputs": [
        {
          "internalType": "uint256",
          "name": "tokenAmount",
          "type": "uint256"
        },
        {
          "internalType": "uint256",
          "name": "softCap",
          "type": "uint256"
        },
        {
          "internalType": "uint256",
          "name": "maxPay",
          "type": "uint256"
        },
        {
          "internalType": "uint256",
          "name": "lpPayPercent",
          "type": "uint256"
        }
      ],
      "stateMutability": "view",
      "type": "function"
    },
    {
      "inputs": [],
      "name": "saleToken",
      "outputs": [
        {
          "internalType": "contract ERC20",
          "name": "",
          "type": "address"
        }
      ],
      "stateMutability": "view",
      "type": "function"
    },
    {
      "inputs": [
        {
          "internalType": "string",
          "name": "_metadataURL",
          "type": "string"
        }
      ],
      "name": "setMetadataURL",
      "outputs": [],
      "stateMutability": "nonpayable",
      "type": "function"
    },
    {
      "inputs": [],
      "name": "timestamps",
      "outputs": [
        {
          "internalType": "uint256",
          "name": "startTimestamp",
          "type": "uint256"
        },
        {
          "internalType": "uint256",
          "name": "endTimestamp",
          "type": "uint256"
        },
        {
          "internalType": "uint256",
          "name": "unlockTimestamp",
          "type": "uint256"
        }
      ],
      "stateMutability": "view",
      "type": "function"
    },
    {
      "inputs": [],
      "name": "tokensForDistribution",
      "outputs": [
        {
          "internalType": "uint256",
          "name": "",
          "type": "uint256"
        }
      ],
      "stateMutability": "view",
      "type": "function"
    },
    {
      "inputs": [],
      "name": "totalInvestedEth",
      "outputs": [
        {
          "internalType": "uint256",
          "name": "",
          "type": "uint256"
        }
      ],
      "stateMutability": "view",
      "type": "function"
    },
    {
      "inputs": [
        {
          "internalType": "address",
          "name": "newOwner",
          "type": "address"
        }
      ],
      "name": "transferOwnership",
      "outputs": [],
      "stateMutability": "nonpayable",
      "type": "function"
    },
    {
      "inputs": [
        {
          "internalType": "address",
          "name": "",
          "type": "address"
        }
      ],
      "name": "userInfo",
      "outputs": [
        {
          "internalType": "uint256",
          "name": "debt",
          "type": "uint256"
        },
        {
          "internalType": "uint256",
          "name": "total",
          "type": "uint256"
        },
        {
          "internalType": "uint256",
          "name": "totalInvestedETH",
          "type": "uint256"
        }
      ],
      "stateMutability": "view",
      "type": "function"
    }
  ],
  "bytecode": "0x60806040526016805460ff19169055348015610019575f80fd5b506040516122a53803806122a5833981016040819052610038916103cf565b61004133610175565b60018055600280546001600160a01b0319166001600160a01b0389169081179091556040805163313ce56760e01b8152905163313ce567916004808201926020929091908290030181865afa15801561009c573d5f803e3d5ffd5b505050506040513d601f19601f820116820180604052508101906100c09190610491565b60ff16600355601280546001600160a01b038086166001600160a01b03199283161790925560058054928516929091169190911790556006819055855160085560208601516009556040860151600a556060860151600b55610121856101c4565b50508151600f80546001600160a01b03199081166001600160a01b0393841617909155602084015160108054831691841691909117905560409093015160118054909416911617909155506104b892505050565b5f80546001600160a01b038381166001600160a01b0319831681178455604051919092169283917f8be0079c531659141344cd1fd0a4f28419497f9722a3daafe3b4186f6b6457e09190a35050565b60208101518151106102385760405162461bcd60e51b815260206004820152603260248201527f53746172742074696d657374616d70206d757374206265206c6573732074686160448201527106e2066696e6973682074696d657374616d760741b60648201526084015b60405180910390fd5b428160200151116102a45760405162461bcd60e51b815260206004820152603060248201527f46696e6973682074696d657374616d70206d757374206265206d6f726520746860448201526f616e2063757272656e7420626c6f636b60801b606482015260840161022f565b8051600c556020810151600d5560400151600e55565b6001600160a01b03811681146102ce575f80fd5b50565b604051606081016001600160401b03811182821017156102ff57634e487b7160e01b5f52604160045260245ffd5b60405290565b604051608081016001600160401b03811182821017156102ff57634e487b7160e01b5f52604160045260245ffd5b5f60608284031215610343575f80fd5b61034b6102d1565b82518152602080840151908201526040928301519281019290925250919050565b8051610377816102ba565b919050565b5f6060828403121561038c575f80fd5b6103946102d1565b905081516103a1816102ba565b815260208201516103b1816102ba565b602082015260408201516103c4816102ba565b604082015292915050565b5f805f805f805f8789036101c08112156103e7575f80fd5b88516103f2816102ba565b97506080601f1982011215610405575f80fd5b5061040e610305565b60208981015182526040808b0151918301919091526060808b01519183019190915260808a01519082015295506104488960a08a01610333565b9450610458896101008a0161037c565b9350610467610160890161036c565b9250610476610180890161036c565b91505f6101a089015190508091505092959891949750929550565b5f602082840312156104a1575f80fd5b815160ff811681146104b1575f80fd5b9392505050565b611de0806104c55f395ff3fe6080604052600436106101ba575f3560e01c80638e3695b8116100f2578063d8d2a56d11610092578063e985e36711610062578063e985e367146104ef578063f25f4b561461050e578063f2fde38b1461052d578063f84b903e1461054c575f80fd5b8063d8d2a56d14610445578063ddeae0331461049b578063e6218cc9146104ba578063e7e10490146104db575f80fd5b8063c457fb37116100cd578063c457fb37146103e0578063c5454d11146103ff578063cad680cc14610407578063d7b96d4e14610426575f80fd5b80638e3695b814610356578063aa49bfff14610398578063bf7ea15d146103b7575f80fd5b8063710075091161015d578063747daec511610138578063747daec5146102dd5780637fd6f15c146102fc57806383637805146103115780638da5cb5b14610326575f80fd5b806371007509146102a1578063715018a6146102b557806372b1864a146102c9575f80fd5b8063491447a811610198578063491447a8146102455780634b1a4c0c146102635780634e71d92d14610278578063586360ce1461028c575f80fd5b80631959a002146101be5780631b9265b814610218578063313ce56714610222575b5f80fd5b3480156101c9575f80fd5b506101f86101d83660046117c0565b60176020525f908152604090208054600182015460029092015490919083565b604080519384526020840192909252908201526060015b60405180910390f35b610220610565565b005b34801561022d575f80fd5b5061023760035481565b60405190815260200161020f565b348015610250575f80fd5b50600c54600d54600e546101f892919083565b34801561026e575f80fd5b5061023760145481565b348015610283575f80fd5b50610220610711565b348015610297575f80fd5b5061023760155481565b3480156102ac575f80fd5b5061022061071c565b3480156102c0575f80fd5b5061022061084e565b3480156102d4575f80fd5b5061023761085f565b3480156102e8575f80fd5b506102206102f7366004611847565b61088c565b348015610307575f80fd5b5061023760065481565b34801561031c575f80fd5b5061023760135481565b348015610331575f80fd5b505f546001600160a01b03165b6040516001600160a01b03909116815260200161020f565b348015610361575f80fd5b50600854600954600a54600b546103789392919084565b60408051948552602085019390935291830152606082015260800161020f565b3480156103a3575f80fd5b506102376103b23660046118c1565b61089c565b3480156103c2575f80fd5b506007546103d09060ff1681565b604051901515815260200161020f565b3480156103eb575f80fd5b506102376103fa3660046118ea565b61091b565b610220610938565b348015610412575f80fd5b506102206104213660046117c0565b61102a565b348015610431575f80fd5b5060125461033e906001600160a01b031681565b348015610450575f80fd5b50600f54601054601154610471926001600160a01b03908116928116911683565b604080516001600160a01b039485168152928416602084015292169181019190915260600161020f565b3480156104a6575f80fd5b506102206104b53660046117c0565b611232565b3480156104c5575f80fd5b506104ce61123b565b60405161020f919061192f565b3480156104e6575f80fd5b506102206112c7565b3480156104fa575f80fd5b5060025461033e906001600160a01b031681565b348015610519575f80fd5b5060055461033e906001600160a01b031681565b348015610538575f80fd5b506102206105473660046117c0565b6113be565b348015610557575f80fd5b506016546103d09060ff1681565b600c544210156105b45760405162461bcd60e51b81526020600482015260156024820152740814d85b1948139bdd0814dd185c9d1959081e595d605a1b60448201526064015b60405180910390fd5b600d5442106105ed5760405162461bcd60e51b8152602060048201526005602482015264115b99195960da1b60448201526064016105ab565b335f908152601760205260409020600a54156106a257600a5434111561064b5760405162461bcd60e51b8152602060048201526013602482015272135bdc99481d1a185b881b585e105b5bdd5b9d606a1b60448201526064016105ab565b600a54600282015461065d9034611434565b11156106a25760405162461bcd60e51b8152602060048201526014602482015273135bdc99481d1a195b881b585e08185b5bdd5b9d60621b60448201526064016105ab565b6013546106af9034611434565b60135560028101546106c19034611434565b600282015580546106d29034611434565b81556040805134808252602082015233917f95b935cd8a17754511e1ec2c9cb93e6e22363633be3de869bf4d15a3b2dd0e9b910160405180910390a250565b61071a3361102a565b565b61072461143f565b60075460ff1661076d5760405162461bcd60e51b8152602060048201526014602482015273141bdbdb081a5cc81b9bdd0818d85b98d95b195960621b60448201526064016105ab565b6002546040516370a0823160e01b81523060048201525f916001600160a01b0316906370a0823190602401602060405180830381865afa1580156107b3573d5f803e3d5ffd5b505050506040513d601f19601f820116820180604052508101906107d79190611941565b90505f81116108345760405162461bcd60e51b815260206004820152602360248201527f5468652049444f20706f6f6c20686173206e6f7420726566756e6420746f6b6560448201526237399760e91b60648201526084016105ab565b60025461084b906001600160a01b03163383611498565b50565b61085661143f565b61071a5f6114ef565b6013546008545f91670de0b6b3a7640000916108869190610880908461153e565b90611549565b91505090565b600461089882826119db565b5050565b5f80670de0b6b3a764000090505f6064600654836108ba9190611aaa565b6108c49190611ac1565b90505f6108d18284611ae0565b90505f60646108e08884611aaa565b6108ea9190611ac1565b90505f6108f887600a611bd6565b6109028a84611aaa565b61090c9190611ac1565b955050505050505b9392505050565b6013546008545f916109329161088090859061153e565b92915050565b61094061143f565b600d5442116109915760405162461bcd60e51b815260206004820152601b60248201527f5468652049444f20706f6f6c20686173206e6f7420656e6465642e000000000060448201526064016105ab565b60095460135410156109b55760405162461bcd60e51b81526004016105ab90611be1565b60165460ff16156109ff5760405162461bcd60e51b815260206004820152601460248201527320b63932b0b23c903234b9ba3934b13aba32b21760611b60448201526064016105ab565b6016805460ff1916600117905560135447908114610a5f5760405162461bcd60e51b815260206004820152601960248201527f436f6e747261637420626c736e6365204e6f74204d617463680000000000000060448201526064016105ab565b5f610a7b6127106108806006548561153e90919063ffffffff16565b9050610a878282611554565b6005546040519193505f916001600160a01b039091169083908381818185875af1925050503d805f8114610ad6576040519150601f19603f3d011682016040523d82523d5f602084013e610adb565b606091505b5050905080610b2c5760405162461bcd60e51b815260206004820152601c60248201527f506c6174666f726d20666565207472616e73666572206661696c65640000000060448201526064016105ab565b4780610b7a5760405162461bcd60e51b815260206004820152601860248201527f4e6f7420456e6f7567682046756e647320696e20506f6f6c000000000000000060448201526064016105ab565b600b545f90606490610b8c9084611aaa565b610b969190611ac1565b90505f610ba38284611ae0565b90505f610bbc60085f015460086003015460035461089c565b600f5460025460405163095ea7b360e01b81526001600160a01b03928316600482018190526024820185905293945091169063095ea7b3906044016020604051808303815f875af1158015610c13573d5f803e3d5ffd5b505050506040513d601f19601f82011682018060405250810190610c379190611c25565b506002545f906001600160a01b038084169163f305d7199188911686858030610c6242610168611c44565b60405160e089901b6001600160e01b03191681526001600160a01b039687166004820152602481019590955260448501939093526064840191909152909216608482015260a481019190915260c40160606040518083038185885af1158015610ccd573d5f803e3d5ffd5b50505050506040513d601f19601f82011682018060405250810190610cf29190611c57565b60105460025460115460405163e6a4390560e01b81526001600160a01b03928316600482015290821660248201529295505f945016915063e6a4390590604401602060405180830381865afa158015610d4d573d5f803e3d5ffd5b505050506040513d601f19601f82011682018060405250810190610d719190611c82565b600e549091508190421015610f0b5760125460405163095ea7b360e01b81526001600160a01b039182166004820152602481018590529082169063095ea7b3906044016020604051808303815f875af1158015610dd0573d5f803e3d5ffd5b505050506040513d601f19601f82011682018060405250810190610df49190611c25565b5060125f9054906101000a90046001600160a01b03166001600160a01b031663072793573384600187600c60020154876001600160a01b03166395d89b416040518163ffffffff1660e01b81526004015f60405180830381865afa158015610e5e573d5f803e3d5ffd5b505050506040513d5f823e601f3d908101601f19168201604052610e859190810190611c9d565b604051602001610e959190611d29565b6040516020818303038152906040526040518763ffffffff1660e01b8152600401610ec596959493929190611d52565b6020604051808303815f875af1158015610ee1573d5f803e3d5ffd5b505050506040513d601f19601f82011682018060405250810190610f059190611941565b50610f87565b60405163a9059cbb60e01b8152336004820152602481018490526001600160a01b0382169063a9059cbb906044016020604051808303815f875af1158015610f55573d5f803e3d5ffd5b505050506040513d601f19601f82011682018060405250810190610f799190611c25565b50610f843487611c44565b95505b6040515f9033908a908381818185875af1925050503d805f8114610fc6576040519150601f19603f3d011682016040523d82523d5f602084013e610fcb565b606091505b505090508061100f5760405162461bcd60e51b815260206004820152601060248201526f2a3930b739b332b9103330b4b632b21760811b60448201526064016105ab565b50506016805460ff1916600117905550505050505050505050565b60026001540361107c5760405162461bcd60e51b815260206004820152601f60248201527f5265656e7472616e637947756172643a207265656e7472616e742063616c6c0060448201526064016105ab565b6002600155600d5442116110d25760405162461bcd60e51b815260206004820152601b60248201527f5468652049444f20706f6f6c20686173206e6f7420656e6465642e000000000060448201526064016105ab565b60095460135410156110f65760405162461bcd60e51b81526004016105ab90611be1565b60165460ff166111415760405162461bcd60e51b81526020600482015260166024820152755761697420666f7220506f6f6c2046696e616c697a6560501b60448201526064016105ab565b6001600160a01b0381165f9081526017602052604090208054806111a75760405162461bcd60e51b815260206004820152601d60248201527f596f7520646f206e6f74206861766520636f6e747269627574696f6e7300000060448201526064016105ab565b5f6111b18261091b565b5f8455600184018190556015549091506111cb9083611434565b6015556002546111e5906001600160a01b03168583611498565b836001600160a01b03167f68577e4d693c1b056a60bc4e39438810239a0bfe64869c4eb7e3baebb5f656348360405161122091815260200190565b60405180910390a25050600180555050565b61084b8161102a565b6004805461124890611958565b80601f016020809104026020016040519081016040528092919081815260200182805461127490611958565b80156112bf5780601f10611296576101008083540402835291602001916112bf565b820191905f5260205f20905b8154815290600101906020018083116112a257829003601f168201915b505050505081565b6112cf61143f565b60075460ff161561131a5760405162461bcd60e51b8152602060048201526015602482015274141bdbdb08185b1c9958591e4818d85b98d95b1959605a1b60448201526064016105ab565b600d5442106113755760405162461bcd60e51b815260206004820152602160248201527f43616e6e6f742063616e63656c206166746572207468652073616c6520656e646044820152607360f81b60648201526084016105ab565b6007805460ff191660011790556040517f3d229dd60fc64b0903758feed58453f62e715f5d01dc0978c0a3a312dd2776c2906113b49042815260200190565b60405180910390a1565b6113c661143f565b6001600160a01b03811661142b5760405162461bcd60e51b815260206004820152602660248201527f4f776e61626c653a206e6577206f776e657220697320746865207a65726f206160448201526564647265737360d01b60648201526084016105ab565b61084b816114ef565b5f6109148284611c44565b5f546001600160a01b0316331461071a5760405162461bcd60e51b815260206004820181905260248201527f4f776e61626c653a2063616c6c6572206973206e6f7420746865206f776e657260448201526064016105ab565b604080516001600160a01b038416602482015260448082018490528251808303909101815260649091019091526020810180516001600160e01b031663a9059cbb60e01b1790526114ea90849061155f565b505050565b5f80546001600160a01b038381166001600160a01b0319831681178455604051919092169283917f8be0079c531659141344cd1fd0a4f28419497f9722a3daafe3b4186f6b6457e09190a35050565b5f6109148284611aaa565b5f6109148284611ac1565b5f6109148284611ae0565b5f6115b3826040518060400160405280602081526020017f5361666545524332303a206c6f772d6c6576656c2063616c6c206661696c6564815250856001600160a01b03166116309092919063ffffffff16565b8051909150156114ea57808060200190518101906115d19190611c25565b6114ea5760405162461bcd60e51b815260206004820152602a60248201527f5361666545524332303a204552433230206f7065726174696f6e20646964206e6044820152691bdd081cdd58d8d9595960b21b60648201526084016105ab565b606061163e84845f85611646565b949350505050565b6060824710156116a75760405162461bcd60e51b815260206004820152602660248201527f416464726573733a20696e73756666696369656e742062616c616e636520666f6044820152651c8818d85b1b60d21b60648201526084016105ab565b6001600160a01b0385163b6116fe5760405162461bcd60e51b815260206004820152601d60248201527f416464726573733a2063616c6c20746f206e6f6e2d636f6e747261637400000060448201526064016105ab565b5f80866001600160a01b031685876040516117199190611d9f565b5f6040518083038185875af1925050503d805f8114611753576040519150601f19603f3d011682016040523d82523d5f602084013e611758565b606091505b5091509150611768828286611773565b979650505050505050565b60608315611782575081610914565b8251156117925782518084602001fd5b8160405162461bcd60e51b81526004016105ab919061192f565b6001600160a01b038116811461084b575f80fd5b5f602082840312156117d0575f80fd5b8135610914816117ac565b634e487b7160e01b5f52604160045260245ffd5b604051601f8201601f1916810167ffffffffffffffff81118282101715611818576118186117db565b604052919050565b5f67ffffffffffffffff821115611839576118396117db565b50601f01601f191660200190565b5f60208284031215611857575f80fd5b813567ffffffffffffffff81111561186d575f80fd5b8201601f8101841361187d575f80fd5b803561189061188b82611820565b6117ef565b8181528560208385010111156118a4575f80fd5b816020840160208301375f91810160200191909152949350505050565b5f805f606084860312156118d3575f80fd5b505081359360208301359350604090920135919050565b5f602082840312156118fa575f80fd5b5035919050565b5f81518084528060208401602086015e5f602082860101526020601f19601f83011685010191505092915050565b602081525f6109146020830184611901565b5f60208284031215611951575f80fd5b5051919050565b600181811c9082168061196c57607f821691505b60208210810361198a57634e487b7160e01b5f52602260045260245ffd5b50919050565b601f8211156114ea57805f5260205f20601f840160051c810160208510156119b55750805b601f840160051c820191505b818110156119d4575f81556001016119c1565b5050505050565b815167ffffffffffffffff8111156119f5576119f56117db565b611a0981611a038454611958565b84611990565b6020601f821160018114611a3b575f8315611a245750848201515b5f19600385901b1c1916600184901b1784556119d4565b5f84815260208120601f198516915b82811015611a6a5787850151825560209485019460019092019101611a4a565b5084821015611a8757868401515f19600387901b60f8161c191681555b50505050600190811b01905550565b634e487b7160e01b5f52601160045260245ffd5b808202811582820484141761093257610932611a96565b5f82611adb57634e487b7160e01b5f52601260045260245ffd5b500490565b8181038181111561093257610932611a96565b6001815b6001841115611b2e57808504811115611b1257611b12611a96565b6001841615611b2057908102905b60019390931c928002611af7565b935093915050565b5f82611b4457506001610932565b81611b5057505f610932565b8160018114611b665760028114611b7057611b8c565b6001915050610932565b60ff841115611b8157611b81611a96565b50506001821b610932565b5060208310610133831016604e8410600b8410161715611baf575081810a610932565b611bbb5f198484611af3565b805f1904821115611bce57611bce611a96565b029392505050565b5f6109148383611b36565b60208082526024908201527f5468652049444f20706f6f6c20646964206e6f7420726561636820736f66742060408201526331b0b81760e11b606082015260800190565b5f60208284031215611c35575f80fd5b81518015158114610914575f80fd5b8082018082111561093257610932611a96565b5f805f60608486031215611c69575f80fd5b5050815160208301516040909301519094929350919050565b5f60208284031215611c92575f80fd5b8151610914816117ac565b5f60208284031215611cad575f80fd5b815167ffffffffffffffff811115611cc3575f80fd5b8201601f81018413611cd3575f80fd5b8051611ce161188b82611820565b818152856020838501011115611cf5575f80fd5b8160208401602083015e5f91810160200191909152949350505050565b5f81518060208401855e5f93019283525090919050565b5f611d348284611d12565b6d103a37b5b2b739903637b1b5b2b960911b8152600e019392505050565b6001600160a01b038781168252861660208201528415156040820152606081018490526080810183905260c060a082018190525f90611d9390830184611901565b98975050505050505050565b5f6109148284611d1256fea26469706673582212202e8f5014d4ccc7051c860c1bb7b6ea8be972efa6cac071f337bb7c19c2e4e27664736f6c634300081a0033",
  "linkReferences": {},
  "deployedLinkReferences": {}
}