{
  "_format": "hh-sol-artifact-1",
  "contractName": "Fairlaunch",
  "sourceName": "contracts/Fairlaunch1.sol",
  "abi": [
    {
      "inputs": [
        {
          "internalType": "contract ERC20",
          "name": "_saleTokenAddress",
          "type": "address"
        },
        {
          "components": [
            {
              "internalType": "uint256",
              "name": "tokenAmount",
              "type": "uint256"
            },
            {
              "internalType": "uint256",
              "name": "softCap",
              "type": "uint256"
            },
            {
              "internalType": "uint256",
              "name": "maxPay",
              "type": "uint256"
            },
            {
              "internalType": "uint256",
              "name": "lpPayPercent",
              "type": "uint256"
            }
          ],
          "internalType": "struct Fairlaunch.SaleInfo",
          "name": "_saleInfo",
          "type": "tuple"
        },
        {
          "components": [
            {
              "internalType": "uint256",
              "name": "startTimestamp",
              "type": "uint256"
            },
            {
              "internalType": "uint256",
              "name": "endTimestamp",
              "type": "uint256"
            },
            {
              "internalType": "uint256",
              "name": "unlockTimestamp",
              "type": "uint256"
            }
          ],
          "internalType": "struct Fairlaunch.Timestamps",
          "name": "_timestamps",
          "type": "tuple"
        },
        {
          "components": [
            {
              "internalType": "address",
              "name": "router",
              "type": "address"
            },
            {
              "internalType": "address",
              "name": "factory",
              "type": "address"
            },
            {
              "internalType": "address",
              "name": "weth",
              "type": "address"
            }
          ],
          "internalType": "struct Fairlaunch.DEXInfo",
          "name": "_dexInfo",
          "type": "tuple"
        },
        {
          "internalType": "address",
          "name": "_lockerAddress",
          "type": "address"
        },
        {
          "internalType": "address",
          "name": "_feeWallet",
          "type": "address"
        },
        {
          "internalType": "uint256",
          "name": "_feePercent",
          "type": "uint256"
        }
      ],
      "stateMutability": "nonpayable",
      "type": "constructor"
    },
    {
      "anonymous": false,
      "inputs": [
        {
          "indexed": true,
          "internalType": "address",
          "name": "previousOwner",
          "type": "address"
        },
        {
          "indexed": true,
          "internalType": "address",
          "name": "newOwner",
          "type": "address"
        }
      ],
      "name": "OwnershipTransferred",
      "type": "event"
    },
    {
      "anonymous": false,
      "inputs": [
        {
          "indexed": false,
          "internalType": "uint256",
          "name": "timestamps",
          "type": "uint256"
        }
      ],
      "name": "PoolCancelled",
      "type": "event"
    },
    {
      "anonymous": false,
      "inputs": [
        {
          "indexed": true,
          "internalType": "address",
          "name": "holder",
          "type": "address"
        },
        {
          "indexed": false,
          "internalType": "uint256",
          "name": "ethAmount",
          "type": "uint256"
        },
        {
          "indexed": false,
          "internalType": "uint256",
          "name": "tokenAmount",
          "type": "uint256"
        }
      ],
      "name": "TokenDebt",
      "type": "event"
    },
    {
      "anonymous": false,
      "inputs": [
        {
          "indexed": true,
          "internalType": "address",
          "name": "holder",
          "type": "address"
        },
        {
          "indexed": false,
          "internalType": "uint256",
          "name": "amount",
          "type": "uint256"
        }
      ],
      "name": "TokenWithdraw",
      "type": "event"
    },
    {
      "inputs": [],
      "name": "CurrentTokenRate",
      "outputs": [
        {
          "internalType": "uint256",
          "name": "",
          "type": "uint256"
        }
      ],
      "stateMutability": "view",
      "type": "function"
    },
    {
      "inputs": [],
      "name": "Finalize",
      "outputs": [],
      "stateMutability": "payable",
      "type": "function"
    },
    {
      "inputs": [],
      "name": "IsPoolCancel",
      "outputs": [
        {
          "internalType": "bool",
          "name": "",
          "type": "bool"
        }
      ],
      "stateMutability": "view",
      "type": "function"
    },
    {
      "inputs": [],
      "name": "cancelSale",
      "outputs": [],
      "stateMutability": "nonpayable",
      "type": "function"
    },
    {
      "inputs": [],
      "name": "claim",
      "outputs": [],
      "stateMutability": "nonpayable",
      "type": "function"
    },
    {
      "inputs": [
        {
          "internalType": "address",
          "name": "_user",
          "type": "address"
        }
      ],
      "name": "claimFor",
      "outputs": [],
      "stateMutability": "nonpayable",
      "type": "function"
    },
    {
      "inputs": [],
      "name": "decimals",
      "outputs": [
        {
          "internalType": "uint256",
          "name": "",
          "type": "uint256"
        }
      ],
      "stateMutability": "view",
      "type": "function"
    },
    {
      "inputs": [],
      "name": "dexInfo",
      "outputs": [
        {
          "internalType": "address",
          "name": "router",
          "type": "address"
        },
        {
          "internalType": "address",
          "name": "factory",
          "type": "address"
        },
        {
          "internalType": "address",
          "name": "weth",
          "type": "address"
        }
      ],
      "stateMutability": "view",
      "type": "function"
    },
    {
      "inputs": [],
      "name": "distributed",
      "outputs": [
        {
          "internalType": "bool",
          "name": "",
          "type": "bool"
        }
      ],
      "stateMutability": "view",
      "type": "function"
    },
    {
      "inputs": [],
      "name": "distributedTokens",
      "outputs": [
        {
          "internalType": "uint256",
          "name": "",
          "type": "uint256"
        }
      ],
      "stateMutability": "view",
      "type": "function"
    },
    {
      "inputs": [],
      "name": "feePercent",
      "outputs": [
        {
          "internalType": "uint256",
          "name": "",
          "type": "uint256"
        }
      ],
      "stateMutability": "view",
      "type": "function"
    },
    {
      "inputs": [],
      "name": "feeWallet",
      "outputs": [
        {
          "internalType": "address",
          "name": "",
          "type": "address"
        }
      ],
      "stateMutability": "view",
      "type": "function"
    },
    {
      "inputs": [
        {
          "internalType": "uint256",
          "name": "_amount",
          "type": "uint256"
        },
        {
          "internalType": "uint256",
          "name": "lpPercent",
          "type": "uint256"
        },
        {
          "internalType": "uint256",
          "name": "_decimals",
          "type": "uint256"
        }
      ],
      "name": "getFairLaunchTokenAmount",
      "outputs": [
        {
          "internalType": "uint256",
          "name": "",
          "type": "uint256"
        }
      ],
      "stateMutability": "view",
      "type": "function"
    },
    {
      "inputs": [
        {
          "internalType": "uint256",
          "name": "_userContribution",
          "type": "uint256"
        }
      ],
      "name": "getTokenPrice",
      "outputs": [
        {
          "internalType": "uint256",
          "name": "",
          "type": "uint256"
        }
      ],
      "stateMutability": "view",
      "type": "function"
    },
    {
      "inputs": [],
      "name": "locker",
      "outputs": [
        {
          "internalType": "contract ITrendLock",
          "name": "",
          "type": "address"
        }
      ],
      "stateMutability": "view",
      "type": "function"
    },
    {
      "inputs": [],
      "name": "metaDataURl",
      "outputs": [
        {
          "internalType": "string",
          "name": "",
          "type": "string"
        }
      ],
      "stateMutability": "view",
      "type": "function"
    },
    {
      "inputs": [],
      "name": "owner",
      "outputs": [
        {
          "internalType": "address",
          "name": "",
          "type": "address"
        }
      ],
      "stateMutability": "view",
      "type": "function"
    },
    {
      "inputs": [],
      "name": "pay",
      "outputs": [],
      "stateMutability": "payable",
      "type": "function"
    },
    {
      "inputs": [
        {
          "internalType": "address",
          "name": "_receiver",
          "type": "address"
        }
      ],
      "name": "proccessClaim",
      "outputs": [],
      "stateMutability": "nonpayable",
      "type": "function"
    },
    {
      "inputs": [],
      "name": "refundTokens",
      "outputs": [],
      "stateMutability": "nonpayable",
      "type": "function"
    },
    {
      "inputs": [],
      "name": "renounceOwnership",
      "outputs": [],
      "stateMutability": "nonpayable",
      "type": "function"
    },
    {
      "inputs": [],
      "name": "saleInfo",
      "outputs": [
        {
          "internalType": "uint256",
          "name": "tokenAmount",
          "type": "uint256"
        },
        {
          "internalType": "uint256",
          "name": "softCap",
          "type": "uint256"
        },
        {
          "internalType": "uint256",
          "name": "maxPay",
          "type": "uint256"
        },
        {
          "internalType": "uint256",
          "name": "lpPayPercent",
          "type": "uint256"
        }
      ],
      "stateMutability": "view",
      "type": "function"
    },
    {
      "inputs": [],
      "name": "saleToken",
      "outputs": [
        {
          "internalType": "contract ERC20",
          "name": "",
          "type": "address"
        }
      ],
      "stateMutability": "view",
      "type": "function"
    },
    {
      "inputs": [
        {
          "internalType": "string",
          "name": "_metadataURL",
          "type": "string"
        }
      ],
      "name": "setMetadataURL",
      "outputs": [],
      "stateMutability": "nonpayable",
      "type": "function"
    },
    {
      "inputs": [],
      "name": "timestamps",
      "outputs": [
        {
          "internalType": "uint256",
          "name": "startTimestamp",
          "type": "uint256"
        },
        {
          "internalType": "uint256",
          "name": "endTimestamp",
          "type": "uint256"
        },
        {
          "internalType": "uint256",
          "name": "unlockTimestamp",
          "type": "uint256"
        }
      ],
      "stateMutability": "view",
      "type": "function"
    },
    {
      "inputs": [],
      "name": "tokensForDistribution",
      "outputs": [
        {
          "internalType": "uint256",
          "name": "",
          "type": "uint256"
        }
      ],
      "stateMutability": "view",
      "type": "function"
    },
    {
      "inputs": [],
      "name": "totalInvestedEth",
      "outputs": [
        {
          "internalType": "uint256",
          "name": "",
          "type": "uint256"
        }
      ],
      "stateMutability": "view",
      "type": "function"
    },
    {
      "inputs": [
        {
          "internalType": "address",
          "name": "newOwner",
          "type": "address"
        }
      ],
      "name": "transferOwnership",
      "outputs": [],
      "stateMutability": "nonpayable",
      "type": "function"
    },
    {
      "inputs": [
        {
          "internalType": "address",
          "name": "",
          "type": "address"
        }
      ],
      "name": "userInfo",
      "outputs": [
        {
          "internalType": "uint256",
          "name": "debt",
          "type": "uint256"
        },
        {
          "internalType": "uint256",
          "name": "total",
          "type": "uint256"
        },
        {
          "internalType": "uint256",
          "name": "totalInvestedETH",
          "type": "uint256"
        }
      ],
      "stateMutability": "view",
      "type": "function"
    }
  ],
  "bytecode": "0x60806040526016805460ff19169055348015610019575f80fd5b506040516122b33803806122b3833981016040819052610038916103cf565b61004133610175565b60018055600280546001600160a01b0319166001600160a01b0389169081179091556040805163313ce56760e01b8152905163313ce567916004808201926020929091908290030181865afa15801561009c573d5f803e3d5ffd5b505050506040513d601f19601f820116820180604052508101906100c09190610491565b60ff16600355601280546001600160a01b038086166001600160a01b03199283161790925560058054928516929091169190911790556006819055855160085560208601516009556040860151600a556060860151600b55610121856101c4565b50508151600f80546001600160a01b03199081166001600160a01b0393841617909155602084015160108054831691841691909117905560409093015160118054909416911617909155506104b892505050565b5f80546001600160a01b038381166001600160a01b0319831681178455604051919092169283917f8be0079c531659141344cd1fd0a4f28419497f9722a3daafe3b4186f6b6457e09190a35050565b60208101518151106102385760405162461bcd60e51b815260206004820152603260248201527f53746172742074696d657374616d70206d757374206265206c6573732074686160448201527106e2066696e6973682074696d657374616d760741b60648201526084015b60405180910390fd5b428160200151116102a45760405162461bcd60e51b815260206004820152603060248201527f46696e6973682074696d657374616d70206d757374206265206d6f726520746860448201526f616e2063757272656e7420626c6f636b60801b606482015260840161022f565b8051600c556020810151600d5560400151600e55565b6001600160a01b03811681146102ce575f80fd5b50565b604051606081016001600160401b03811182821017156102ff57634e487b7160e01b5f52604160045260245ffd5b60405290565b604051608081016001600160401b03811182821017156102ff57634e487b7160e01b5f52604160045260245ffd5b5f60608284031215610343575f80fd5b61034b6102d1565b82518152602080840151908201526040928301519281019290925250919050565b8051610377816102ba565b919050565b5f6060828403121561038c575f80fd5b6103946102d1565b905081516103a1816102ba565b815260208201516103b1816102ba565b602082015260408201516103c4816102ba565b604082015292915050565b5f805f805f805f8789036101c08112156103e7575f80fd5b88516103f2816102ba565b97506080601f1982011215610405575f80fd5b5061040e610305565b60208981015182526040808b0151918301919091526060808b01519183019190915260808a01519082015295506104488960a08a01610333565b9450610458896101008a0161037c565b9350610467610160890161036c565b9250610476610180890161036c565b91505f6101a089015190508091505092959891949750929550565b5f602082840312156104a1575f80fd5b815160ff811681146104b1575f80fd5b9392505050565b611dee806104c55f395ff3fe6080604052600436106101ba575f3560e01c80638e3695b8116100f2578063d8d2a56d11610092578063e985e36711610062578063e985e367146104ef578063f25f4b561461050e578063f2fde38b1461052d578063f84b903e1461054c575f80fd5b8063d8d2a56d14610445578063ddeae0331461049b578063e6218cc9146104ba578063e7e10490146104db575f80fd5b8063c457fb37116100cd578063c457fb37146103e0578063c5454d11146103ff578063cad680cc14610407578063d7b96d4e14610426575f80fd5b80638e3695b814610356578063aa49bfff14610398578063bf7ea15d146103b7575f80fd5b8063710075091161015d578063747daec511610138578063747daec5146102dd5780637fd6f15c146102fc57806383637805146103115780638da5cb5b14610326575f80fd5b806371007509146102a1578063715018a6146102b557806372b1864a146102c9575f80fd5b8063491447a811610198578063491447a8146102455780634b1a4c0c146102635780634e71d92d14610278578063586360ce1461028c575f80fd5b80631959a002146101be5780631b9265b814610218578063313ce56714610222575b5f80fd5b3480156101c9575f80fd5b506101f86101d83660046117ce565b60176020525f908152604090208054600182015460029092015490919083565b604080519384526020840192909252908201526060015b60405180910390f35b610220610565565b005b34801561022d575f80fd5b5061023760035481565b60405190815260200161020f565b348015610250575f80fd5b50600c54600d54600e546101f892919083565b34801561026e575f80fd5b5061023760145481565b348015610283575f80fd5b50610220610711565b348015610297575f80fd5b5061023760155481565b3480156102ac575f80fd5b5061022061071c565b3480156102c0575f80fd5b5061022061084e565b3480156102d4575f80fd5b5061023761085f565b3480156102e8575f80fd5b506102206102f7366004611855565b61088c565b348015610307575f80fd5b5061023760065481565b34801561031c575f80fd5b5061023760135481565b348015610331575f80fd5b505f546001600160a01b03165b6040516001600160a01b03909116815260200161020f565b348015610361575f80fd5b50600854600954600a54600b546103789392919084565b60408051948552602085019390935291830152606082015260800161020f565b3480156103a3575f80fd5b506102376103b23660046118cf565b61089c565b3480156103c2575f80fd5b506007546103d09060ff1681565b604051901515815260200161020f565b3480156103eb575f80fd5b506102376103fa3660046118f8565b61091b565b610220610938565b348015610412575f80fd5b506102206104213660046117ce565b611038565b348015610431575f80fd5b5060125461033e906001600160a01b031681565b348015610450575f80fd5b50600f54601054601154610471926001600160a01b03908116928116911683565b604080516001600160a01b039485168152928416602084015292169181019190915260600161020f565b3480156104a6575f80fd5b506102206104b53660046117ce565b611240565b3480156104c5575f80fd5b506104ce611249565b60405161020f919061193d565b3480156104e6575f80fd5b506102206112d5565b3480156104fa575f80fd5b5060025461033e906001600160a01b031681565b348015610519575f80fd5b5060055461033e906001600160a01b031681565b348015610538575f80fd5b506102206105473660046117ce565b6113cc565b348015610557575f80fd5b506016546103d09060ff1681565b600c544210156105b45760405162461bcd60e51b81526020600482015260156024820152740814d85b1948139bdd0814dd185c9d1959081e595d605a1b60448201526064015b60405180910390fd5b600d5442106105ed5760405162461bcd60e51b8152602060048201526005602482015264115b99195960da1b60448201526064016105ab565b335f908152601760205260409020600a54156106a257600a5434111561064b5760405162461bcd60e51b8152602060048201526013602482015272135bdc99481d1a185b881b585e105b5bdd5b9d606a1b60448201526064016105ab565b600a54600282015461065d9034611442565b11156106a25760405162461bcd60e51b8152602060048201526014602482015273135bdc99481d1a195b881b585e08185b5bdd5b9d60621b60448201526064016105ab565b6013546106af9034611442565b60135560028101546106c19034611442565b600282015580546106d29034611442565b81556040805134808252602082015233917f95b935cd8a17754511e1ec2c9cb93e6e22363633be3de869bf4d15a3b2dd0e9b910160405180910390a250565b61071a33611038565b565b61072461144d565b60075460ff1661076d5760405162461bcd60e51b8152602060048201526014602482015273141bdbdb081a5cc81b9bdd0818d85b98d95b195960621b60448201526064016105ab565b6002546040516370a0823160e01b81523060048201525f916001600160a01b0316906370a0823190602401602060405180830381865afa1580156107b3573d5f803e3d5ffd5b505050506040513d601f19601f820116820180604052508101906107d7919061194f565b90505f81116108345760405162461bcd60e51b815260206004820152602360248201527f5468652049444f20706f6f6c20686173206e6f7420726566756e6420746f6b6560448201526237399760e91b60648201526084016105ab565b60025461084b906001600160a01b031633836114a6565b50565b61085661144d565b61071a5f6114fd565b6013546008545f91670de0b6b3a7640000916108869190610880908461154c565b90611557565b91505090565b600461089882826119e9565b5050565b5f80670de0b6b3a764000090505f6064600654836108ba9190611ab8565b6108c49190611acf565b90505f6108d18284611aee565b90505f60646108e08884611ab8565b6108ea9190611acf565b90505f6108f887600a611be4565b6109028a84611ab8565b61090c9190611acf565b955050505050505b9392505050565b6013546008545f916109329161088090859061154c565b92915050565b61094061144d565b600d5442116109915760405162461bcd60e51b815260206004820152601b60248201527f5468652049444f20706f6f6c20686173206e6f7420656e6465642e000000000060448201526064016105ab565b60095460135410156109b55760405162461bcd60e51b81526004016105ab90611bef565b60165460ff16156109ff5760405162461bcd60e51b815260206004820152601460248201527320b63932b0b23c903234b9ba3934b13aba32b21760611b60448201526064016105ab565b6016805460ff1916600117905560135447908114610a5f5760405162461bcd60e51b815260206004820152601960248201527f436f6e747261637420626c736e6365204e6f74204d617463680000000000000060448201526064016105ab565b5f610a7b6127106108806006548561154c90919063ffffffff16565b9050610a878282611562565b6005546040519193505f916001600160a01b039091169083908381818185875af1925050503d805f8114610ad6576040519150601f19603f3d011682016040523d82523d5f602084013e610adb565b606091505b5050905080610b2c5760405162461bcd60e51b815260206004820152601c60248201527f506c6174666f726d20666565207472616e73666572206661696c65640000000060448201526064016105ab565b4780610b7a5760405162461bcd60e51b815260206004820152601860248201527f4e6f7420456e6f7567682046756e647320696e20506f6f6c000000000000000060448201526064016105ab565b600b5415610f9b57600b545f90606490610b949084611ab8565b610b9e9190611acf565b90505f610bab8284611aee565b90505f610bc460085f015460086003015460035461089c565b600f5460025460405163095ea7b360e01b81526001600160a01b03928316600482018190526024820185905293945091169063095ea7b3906044016020604051808303815f875af1158015610c1b573d5f803e3d5ffd5b505050506040513d601f19601f82011682018060405250810190610c3f9190611c33565b506002545f906001600160a01b038084169163f305d7199188911686858030610c6a42610168611c52565b60405160e089901b6001600160e01b03191681526001600160a01b039687166004820152602481019590955260448501939093526064840191909152909216608482015260a481019190915260c40160606040518083038185885af1158015610cd5573d5f803e3d5ffd5b50505050506040513d601f19601f82011682018060405250810190610cfa9190611c65565b60105460025460115460405163e6a4390560e01b81526001600160a01b03928316600482015290821660248201529295505f945016915063e6a4390590604401602060405180830381865afa158015610d55573d5f803e3d5ffd5b505050506040513d601f19601f82011682018060405250810190610d799190611c90565b600e549091508190421015610f135760125460405163095ea7b360e01b81526001600160a01b039182166004820152602481018590529082169063095ea7b3906044016020604051808303815f875af1158015610dd8573d5f803e3d5ffd5b505050506040513d601f19601f82011682018060405250810190610dfc9190611c33565b5060125f9054906101000a90046001600160a01b03166001600160a01b031663072793573384600187600c60020154876001600160a01b03166395d89b416040518163ffffffff1660e01b81526004015f60405180830381865afa158015610e66573d5f803e3d5ffd5b505050506040513d5f823e601f3d908101601f19168201604052610e8d9190810190611cab565b604051602001610e9d9190611d37565b6040516020818303038152906040526040518763ffffffff1660e01b8152600401610ecd96959493929190611d60565b6020604051808303815f875af1158015610ee9573d5f803e3d5ffd5b505050506040513d601f19601f82011682018060405250810190610f0d919061194f565b50610f8f565b60405163a9059cbb60e01b8152336004820152602481018490526001600160a01b0382169063a9059cbb906044016020604051808303815f875af1158015610f5d573d5f803e3d5ffd5b505050506040513d601f19601f82011682018060405250810190610f819190611c33565b50610f8c3487611c52565b95505b50505050505050611025565b6040515f90339083908381818185875af1925050503d805f8114610fda576040519150601f19603f3d011682016040523d82523d5f602084013e610fdf565b606091505b50509050806110235760405162461bcd60e51b815260206004820152601060248201526f2a3930b739b332b9103330b4b632b21760811b60448201526064016105ab565b505b50506016805460ff191660011790555050565b60026001540361108a5760405162461bcd60e51b815260206004820152601f60248201527f5265656e7472616e637947756172643a207265656e7472616e742063616c6c0060448201526064016105ab565b6002600155600d5442116110e05760405162461bcd60e51b815260206004820152601b60248201527f5468652049444f20706f6f6c20686173206e6f7420656e6465642e000000000060448201526064016105ab565b60095460135410156111045760405162461bcd60e51b81526004016105ab90611bef565b60165460ff1661114f5760405162461bcd60e51b81526020600482015260166024820152755761697420666f7220506f6f6c2046696e616c697a6560501b60448201526064016105ab565b6001600160a01b0381165f9081526017602052604090208054806111b55760405162461bcd60e51b815260206004820152601d60248201527f596f7520646f206e6f74206861766520636f6e747269627574696f6e7300000060448201526064016105ab565b5f6111bf8261091b565b5f8455600184018190556015549091506111d99083611442565b6015556002546111f3906001600160a01b031685836114a6565b836001600160a01b03167f68577e4d693c1b056a60bc4e39438810239a0bfe64869c4eb7e3baebb5f656348360405161122e91815260200190565b60405180910390a25050600180555050565b61084b81611038565b6004805461125690611966565b80601f016020809104026020016040519081016040528092919081815260200182805461128290611966565b80156112cd5780601f106112a4576101008083540402835291602001916112cd565b820191905f5260205f20905b8154815290600101906020018083116112b057829003601f168201915b505050505081565b6112dd61144d565b60075460ff16156113285760405162461bcd60e51b8152602060048201526015602482015274141bdbdb08185b1c9958591e4818d85b98d95b1959605a1b60448201526064016105ab565b600d5442106113835760405162461bcd60e51b815260206004820152602160248201527f43616e6e6f742063616e63656c206166746572207468652073616c6520656e646044820152607360f81b60648201526084016105ab565b6007805460ff191660011790556040517f3d229dd60fc64b0903758feed58453f62e715f5d01dc0978c0a3a312dd2776c2906113c29042815260200190565b60405180910390a1565b6113d461144d565b6001600160a01b0381166114395760405162461bcd60e51b815260206004820152602660248201527f4f776e61626c653a206e6577206f776e657220697320746865207a65726f206160448201526564647265737360d01b60648201526084016105ab565b61084b816114fd565b5f6109148284611c52565b5f546001600160a01b0316331461071a5760405162461bcd60e51b815260206004820181905260248201527f4f776e61626c653a2063616c6c6572206973206e6f7420746865206f776e657260448201526064016105ab565b604080516001600160a01b038416602482015260448082018490528251808303909101815260649091019091526020810180516001600160e01b031663a9059cbb60e01b1790526114f890849061156d565b505050565b5f80546001600160a01b038381166001600160a01b0319831681178455604051919092169283917f8be0079c531659141344cd1fd0a4f28419497f9722a3daafe3b4186f6b6457e09190a35050565b5f6109148284611ab8565b5f6109148284611acf565b5f6109148284611aee565b5f6115c1826040518060400160405280602081526020017f5361666545524332303a206c6f772d6c6576656c2063616c6c206661696c6564815250856001600160a01b031661163e9092919063ffffffff16565b8051909150156114f857808060200190518101906115df9190611c33565b6114f85760405162461bcd60e51b815260206004820152602a60248201527f5361666545524332303a204552433230206f7065726174696f6e20646964206e6044820152691bdd081cdd58d8d9595960b21b60648201526084016105ab565b606061164c84845f85611654565b949350505050565b6060824710156116b55760405162461bcd60e51b815260206004820152602660248201527f416464726573733a20696e73756666696369656e742062616c616e636520666f6044820152651c8818d85b1b60d21b60648201526084016105ab565b6001600160a01b0385163b61170c5760405162461bcd60e51b815260206004820152601d60248201527f416464726573733a2063616c6c20746f206e6f6e2d636f6e747261637400000060448201526064016105ab565b5f80866001600160a01b031685876040516117279190611dad565b5f6040518083038185875af1925050503d805f8114611761576040519150601f19603f3d011682016040523d82523d5f602084013e611766565b606091505b5091509150611776828286611781565b979650505050505050565b60608315611790575081610914565b8251156117a05782518084602001fd5b8160405162461bcd60e51b81526004016105ab919061193d565b6001600160a01b038116811461084b575f80fd5b5f602082840312156117de575f80fd5b8135610914816117ba565b634e487b7160e01b5f52604160045260245ffd5b604051601f8201601f1916810167ffffffffffffffff81118282101715611826576118266117e9565b604052919050565b5f67ffffffffffffffff821115611847576118476117e9565b50601f01601f191660200190565b5f60208284031215611865575f80fd5b813567ffffffffffffffff81111561187b575f80fd5b8201601f8101841361188b575f80fd5b803561189e6118998261182e565b6117fd565b8181528560208385010111156118b2575f80fd5b816020840160208301375f91810160200191909152949350505050565b5f805f606084860312156118e1575f80fd5b505081359360208301359350604090920135919050565b5f60208284031215611908575f80fd5b5035919050565b5f81518084528060208401602086015e5f602082860101526020601f19601f83011685010191505092915050565b602081525f610914602083018461190f565b5f6020828403121561195f575f80fd5b5051919050565b600181811c9082168061197a57607f821691505b60208210810361199857634e487b7160e01b5f52602260045260245ffd5b50919050565b601f8211156114f857805f5260205f20601f840160051c810160208510156119c35750805b601f840160051c820191505b818110156119e2575f81556001016119cf565b5050505050565b815167ffffffffffffffff811115611a0357611a036117e9565b611a1781611a118454611966565b8461199e565b6020601f821160018114611a49575f8315611a325750848201515b5f19600385901b1c1916600184901b1784556119e2565b5f84815260208120601f198516915b82811015611a785787850151825560209485019460019092019101611a58565b5084821015611a9557868401515f19600387901b60f8161c191681555b50505050600190811b01905550565b634e487b7160e01b5f52601160045260245ffd5b808202811582820484141761093257610932611aa4565b5f82611ae957634e487b7160e01b5f52601260045260245ffd5b500490565b8181038181111561093257610932611aa4565b6001815b6001841115611b3c57808504811115611b2057611b20611aa4565b6001841615611b2e57908102905b60019390931c928002611b05565b935093915050565b5f82611b5257506001610932565b81611b5e57505f610932565b8160018114611b745760028114611b7e57611b9a565b6001915050610932565b60ff841115611b8f57611b8f611aa4565b50506001821b610932565b5060208310610133831016604e8410600b8410161715611bbd575081810a610932565b611bc95f198484611b01565b805f1904821115611bdc57611bdc611aa4565b029392505050565b5f6109148383611b44565b60208082526024908201527f5468652049444f20706f6f6c20646964206e6f7420726561636820736f66742060408201526331b0b81760e11b606082015260800190565b5f60208284031215611c43575f80fd5b81518015158114610914575f80fd5b8082018082111561093257610932611aa4565b5f805f60608486031215611c77575f80fd5b5050815160208301516040909301519094929350919050565b5f60208284031215611ca0575f80fd5b8151610914816117ba565b5f60208284031215611cbb575f80fd5b815167ffffffffffffffff811115611cd1575f80fd5b8201601f81018413611ce1575f80fd5b8051611cef6118998261182e565b818152856020838501011115611d03575f80fd5b8160208401602083015e5f91810160200191909152949350505050565b5f81518060208401855e5f93019283525090919050565b5f611d428284611d20565b6d103a37b5b2b739903637b1b5b2b960911b8152600e019392505050565b6001600160a01b038781168252861660208201528415156040820152606081018490526080810183905260c060a082018190525f90611da19083018461190f565b98975050505050505050565b5f6109148284611d2056fea264697066735822122018ad10ef6c75bc6587c5b94bafe8e6fdf34f06b7c36a76ab7ca86a8e89f45d4564736f6c634300081a0033",
  "linkReferences": {},
  "deployedLinkReferences": {}
}