{
  "_format": "hh-sol-artifact-1",
  "contractName": "TrendLock",
  "sourceName": "contracts/Lock.sol",
  "abi": [
    {
      "anonymous": false,
      "inputs": [
        {
          "indexed": true,
          "internalType": "uint256",
          "name": "id",
          "type": "uint256"
        },
        {
          "indexed": false,
          "internalType": "address",
          "name": "token",
          "type": "address"
        },
        {
          "indexed": false,
          "internalType": "address",
          "name": "owner",
          "type": "address"
        },
        {
          "indexed": false,
          "internalType": "uint256",
          "name": "amount",
          "type": "uint256"
        },
        {
          "indexed": false,
          "internalType": "uint256",
          "name": "unlockDate",
          "type": "uint256"
        }
      ],
      "name": "LockAdded",
      "type": "event"
    },
    {
      "anonymous": false,
      "inputs": [
        {
          "indexed": false,
          "internalType": "uint256",
          "name": "lockId",
          "type": "uint256"
        }
      ],
      "name": "LockDescriptionChanged",
      "type": "event"
    },
    {
      "anonymous": false,
      "inputs": [
        {
          "indexed": false,
          "internalType": "uint256",
          "name": "lockId",
          "type": "uint256"
        },
        {
          "indexed": false,
          "internalType": "address",
          "name": "owner",
          "type": "address"
        },
        {
          "indexed": false,
          "internalType": "address",
          "name": "newOwner",
          "type": "address"
        }
      ],
      "name": "LockOwnerChanged",
      "type": "event"
    },
    {
      "anonymous": false,
      "inputs": [
        {
          "indexed": true,
          "internalType": "uint256",
          "name": "id",
          "type": "uint256"
        },
        {
          "indexed": false,
          "internalType": "address",
          "name": "token",
          "type": "address"
        },
        {
          "indexed": false,
          "internalType": "address",
          "name": "owner",
          "type": "address"
        },
        {
          "indexed": false,
          "internalType": "uint256",
          "name": "amount",
          "type": "uint256"
        },
        {
          "indexed": false,
          "internalType": "uint256",
          "name": "unlockedAt",
          "type": "uint256"
        }
      ],
      "name": "LockRemoved",
      "type": "event"
    },
    {
      "anonymous": false,
      "inputs": [
        {
          "indexed": true,
          "internalType": "uint256",
          "name": "id",
          "type": "uint256"
        },
        {
          "indexed": false,
          "internalType": "address",
          "name": "token",
          "type": "address"
        },
        {
          "indexed": false,
          "internalType": "address",
          "name": "owner",
          "type": "address"
        },
        {
          "indexed": false,
          "internalType": "uint256",
          "name": "newAmount",
          "type": "uint256"
        },
        {
          "indexed": false,
          "internalType": "uint256",
          "name": "newUnlockDate",
          "type": "uint256"
        }
      ],
      "name": "LockUpdated",
      "type": "event"
    },
    {
      "anonymous": false,
      "inputs": [
        {
          "indexed": true,
          "internalType": "uint256",
          "name": "id",
          "type": "uint256"
        },
        {
          "indexed": false,
          "internalType": "address",
          "name": "token",
          "type": "address"
        },
        {
          "indexed": false,
          "internalType": "address",
          "name": "owner",
          "type": "address"
        },
        {
          "indexed": false,
          "internalType": "uint256",
          "name": "amount",
          "type": "uint256"
        },
        {
          "indexed": false,
          "internalType": "uint256",
          "name": "remaining",
          "type": "uint256"
        },
        {
          "indexed": false,
          "internalType": "uint256",
          "name": "timestamp",
          "type": "uint256"
        }
      ],
      "name": "LockVested",
      "type": "event"
    },
    {
      "inputs": [],
      "name": "allLpTokenLockedCount",
      "outputs": [
        {
          "internalType": "uint256",
          "name": "",
          "type": "uint256"
        }
      ],
      "stateMutability": "view",
      "type": "function"
    },
    {
      "inputs": [],
      "name": "allNormalTokenLockedCount",
      "outputs": [
        {
          "internalType": "uint256",
          "name": "",
          "type": "uint256"
        }
      ],
      "stateMutability": "view",
      "type": "function"
    },
    {
      "inputs": [
        {
          "internalType": "address",
          "name": "",
          "type": "address"
        }
      ],
      "name": "cumulativeLockInfo",
      "outputs": [
        {
          "internalType": "address",
          "name": "token",
          "type": "address"
        },
        {
          "internalType": "address",
          "name": "factory",
          "type": "address"
        },
        {
          "internalType": "uint256",
          "name": "amount",
          "type": "uint256"
        }
      ],
      "stateMutability": "view",
      "type": "function"
    },
    {
      "inputs": [
        {
          "internalType": "uint256",
          "name": "lockId",
          "type": "uint256"
        },
        {
          "internalType": "uint256",
          "name": "newAmount",
          "type": "uint256"
        },
        {
          "internalType": "uint256",
          "name": "newUnlockDate",
          "type": "uint256"
        }
      ],
      "name": "editLock",
      "outputs": [],
      "stateMutability": "nonpayable",
      "type": "function"
    },
    {
      "inputs": [
        {
          "internalType": "uint256",
          "name": "lockId",
          "type": "uint256"
        },
        {
          "internalType": "string",
          "name": "description",
          "type": "string"
        }
      ],
      "name": "editLockDescription",
      "outputs": [],
      "stateMutability": "nonpayable",
      "type": "function"
    },
    {
      "inputs": [
        {
          "internalType": "uint256",
          "name": "start",
          "type": "uint256"
        },
        {
          "internalType": "uint256",
          "name": "end",
          "type": "uint256"
        }
      ],
      "name": "getCumulativeLpTokenLockInfo",
      "outputs": [
        {
          "components": [
            {
              "internalType": "address",
              "name": "token",
              "type": "address"
            },
            {
              "internalType": "address",
              "name": "factory",
              "type": "address"
            },
            {
              "internalType": "uint256",
              "name": "amount",
              "type": "uint256"
            }
          ],
          "internalType": "struct TrendLock.CumulativeLockInfo[]",
          "name": "",
          "type": "tuple[]"
        }
      ],
      "stateMutability": "view",
      "type": "function"
    },
    {
      "inputs": [
        {
          "internalType": "uint256",
          "name": "index",
          "type": "uint256"
        }
      ],
      "name": "getCumulativeLpTokenLockInfoAt",
      "outputs": [
        {
          "components": [
            {
              "internalType": "address",
              "name": "token",
              "type": "address"
            },
            {
              "internalType": "address",
              "name": "factory",
              "type": "address"
            },
            {
              "internalType": "uint256",
              "name": "amount",
              "type": "uint256"
            }
          ],
          "internalType": "struct TrendLock.CumulativeLockInfo",
          "name": "",
          "type": "tuple"
        }
      ],
      "stateMutability": "view",
      "type": "function"
    },
    {
      "inputs": [
        {
          "internalType": "uint256",
          "name": "start",
          "type": "uint256"
        },
        {
          "internalType": "uint256",
          "name": "end",
          "type": "uint256"
        }
      ],
      "name": "getCumulativeNormalTokenLockInfo",
      "outputs": [
        {
          "components": [
            {
              "internalType": "address",
              "name": "token",
              "type": "address"
            },
            {
              "internalType": "address",
              "name": "factory",
              "type": "address"
            },
            {
              "internalType": "uint256",
              "name": "amount",
              "type": "uint256"
            }
          ],
          "internalType": "struct TrendLock.CumulativeLockInfo[]",
          "name": "",
          "type": "tuple[]"
        }
      ],
      "stateMutability": "view",
      "type": "function"
    },
    {
      "inputs": [
        {
          "internalType": "uint256",
          "name": "index",
          "type": "uint256"
        }
      ],
      "name": "getCumulativeNormalTokenLockInfoAt",
      "outputs": [
        {
          "components": [
            {
              "internalType": "address",
              "name": "token",
              "type": "address"
            },
            {
              "internalType": "address",
              "name": "factory",
              "type": "address"
            },
            {
              "internalType": "uint256",
              "name": "amount",
              "type": "uint256"
            }
          ],
          "internalType": "struct TrendLock.CumulativeLockInfo",
          "name": "",
          "type": "tuple"
        }
      ],
      "stateMutability": "view",
      "type": "function"
    },
    {
      "inputs": [
        {
          "internalType": "uint256",
          "name": "index",
          "type": "uint256"
        }
      ],
      "name": "getLockAt",
      "outputs": [
        {
          "components": [
            {
              "internalType": "uint256",
              "name": "id",
              "type": "uint256"
            },
            {
              "internalType": "address",
              "name": "token",
              "type": "address"
            },
            {
              "internalType": "address",
              "name": "owner",
              "type": "address"
            },
            {
              "internalType": "uint256",
              "name": "amount",
              "type": "uint256"
            },
            {
              "internalType": "uint256",
              "name": "lockDate",
              "type": "uint256"
            },
            {
              "internalType": "uint256",
              "name": "tgeDate",
              "type": "uint256"
            },
            {
              "internalType": "uint256",
              "name": "tgeBps",
              "type": "uint256"
            },
            {
              "internalType": "uint256",
              "name": "cycle",
              "type": "uint256"
            },
            {
              "internalType": "uint256",
              "name": "cycleBps",
              "type": "uint256"
            },
            {
              "internalType": "uint256",
              "name": "unlockedAmount",
              "type": "uint256"
            },
            {
              "internalType": "string",
              "name": "description",
              "type": "string"
            }
          ],
          "internalType": "struct TrendLock.Lock",
          "name": "",
          "type": "tuple"
        }
      ],
      "stateMutability": "view",
      "type": "function"
    },
    {
      "inputs": [
        {
          "internalType": "uint256",
          "name": "lockId",
          "type": "uint256"
        }
      ],
      "name": "getLockById",
      "outputs": [
        {
          "components": [
            {
              "internalType": "uint256",
              "name": "id",
              "type": "uint256"
            },
            {
              "internalType": "address",
              "name": "token",
              "type": "address"
            },
            {
              "internalType": "address",
              "name": "owner",
              "type": "address"
            },
            {
              "internalType": "uint256",
              "name": "amount",
              "type": "uint256"
            },
            {
              "internalType": "uint256",
              "name": "lockDate",
              "type": "uint256"
            },
            {
              "internalType": "uint256",
              "name": "tgeDate",
              "type": "uint256"
            },
            {
              "internalType": "uint256",
              "name": "tgeBps",
              "type": "uint256"
            },
            {
              "internalType": "uint256",
              "name": "cycle",
              "type": "uint256"
            },
            {
              "internalType": "uint256",
              "name": "cycleBps",
              "type": "uint256"
            },
            {
              "internalType": "uint256",
              "name": "unlockedAmount",
              "type": "uint256"
            },
            {
              "internalType": "string",
              "name": "description",
              "type": "string"
            }
          ],
          "internalType": "struct TrendLock.Lock",
          "name": "",
          "type": "tuple"
        }
      ],
      "stateMutability": "view",
      "type": "function"
    },
    {
      "inputs": [
        {
          "internalType": "address",
          "name": "token",
          "type": "address"
        },
        {
          "internalType": "uint256",
          "name": "start",
          "type": "uint256"
        },
        {
          "internalType": "uint256",
          "name": "end",
          "type": "uint256"
        }
      ],
      "name": "getLocksForToken",
      "outputs": [
        {
          "components": [
            {
              "internalType": "uint256",
              "name": "id",
              "type": "uint256"
            },
            {
              "internalType": "address",
              "name": "token",
              "type": "address"
            },
            {
              "internalType": "address",
              "name": "owner",
              "type": "address"
            },
            {
              "internalType": "uint256",
              "name": "amount",
              "type": "uint256"
            },
            {
              "internalType": "uint256",
              "name": "lockDate",
              "type": "uint256"
            },
            {
              "internalType": "uint256",
              "name": "tgeDate",
              "type": "uint256"
            },
            {
              "internalType": "uint256",
              "name": "tgeBps",
              "type": "uint256"
            },
            {
              "internalType": "uint256",
              "name": "cycle",
              "type": "uint256"
            },
            {
              "internalType": "uint256",
              "name": "cycleBps",
              "type": "uint256"
            },
            {
              "internalType": "uint256",
              "name": "unlockedAmount",
              "type": "uint256"
            },
            {
              "internalType": "string",
              "name": "description",
              "type": "string"
            }
          ],
          "internalType": "struct TrendLock.Lock[]",
          "name": "",
          "type": "tuple[]"
        }
      ],
      "stateMutability": "view",
      "type": "function"
    },
    {
      "inputs": [],
      "name": "getTotalLockCount",
      "outputs": [
        {
          "internalType": "uint256",
          "name": "",
          "type": "uint256"
        }
      ],
      "stateMutability": "view",
      "type": "function"
    },
    {
      "inputs": [
        {
          "internalType": "address",
          "name": "owner",
          "type": "address"
        },
        {
          "internalType": "address",
          "name": "token",
          "type": "address"
        },
        {
          "internalType": "bool",
          "name": "isLpToken",
          "type": "bool"
        },
        {
          "internalType": "uint256",
          "name": "amount",
          "type": "uint256"
        },
        {
          "internalType": "uint256",
          "name": "unlockDate",
          "type": "uint256"
        },
        {
          "internalType": "string",
          "name": "description",
          "type": "string"
        }
      ],
      "name": "lock",
      "outputs": [
        {
          "internalType": "uint256",
          "name": "id",
          "type": "uint256"
        }
      ],
      "stateMutability": "nonpayable",
      "type": "function"
    },
    {
      "inputs": [
        {
          "internalType": "address",
          "name": "user",
          "type": "address"
        }
      ],
      "name": "lpLockCountForUser",
      "outputs": [
        {
          "internalType": "uint256",
          "name": "",
          "type": "uint256"
        }
      ],
      "stateMutability": "view",
      "type": "function"
    },
    {
      "inputs": [
        {
          "internalType": "address",
          "name": "user",
          "type": "address"
        },
        {
          "internalType": "uint256",
          "name": "index",
          "type": "uint256"
        }
      ],
      "name": "lpLockForUserAtIndex",
      "outputs": [
        {
          "components": [
            {
              "internalType": "uint256",
              "name": "id",
              "type": "uint256"
            },
            {
              "internalType": "address",
              "name": "token",
              "type": "address"
            },
            {
              "internalType": "address",
              "name": "owner",
              "type": "address"
            },
            {
              "internalType": "uint256",
              "name": "amount",
              "type": "uint256"
            },
            {
              "internalType": "uint256",
              "name": "lockDate",
              "type": "uint256"
            },
            {
              "internalType": "uint256",
              "name": "tgeDate",
              "type": "uint256"
            },
            {
              "internalType": "uint256",
              "name": "tgeBps",
              "type": "uint256"
            },
            {
              "internalType": "uint256",
              "name": "cycle",
              "type": "uint256"
            },
            {
              "internalType": "uint256",
              "name": "cycleBps",
              "type": "uint256"
            },
            {
              "internalType": "uint256",
              "name": "unlockedAmount",
              "type": "uint256"
            },
            {
              "internalType": "string",
              "name": "description",
              "type": "string"
            }
          ],
          "internalType": "struct TrendLock.Lock",
          "name": "",
          "type": "tuple"
        }
      ],
      "stateMutability": "view",
      "type": "function"
    },
    {
      "inputs": [
        {
          "internalType": "address",
          "name": "user",
          "type": "address"
        }
      ],
      "name": "lpLocksForUser",
      "outputs": [
        {
          "components": [
            {
              "internalType": "uint256",
              "name": "id",
              "type": "uint256"
            },
            {
              "internalType": "address",
              "name": "token",
              "type": "address"
            },
            {
              "internalType": "address",
              "name": "owner",
              "type": "address"
            },
            {
              "internalType": "uint256",
              "name": "amount",
              "type": "uint256"
            },
            {
              "internalType": "uint256",
              "name": "lockDate",
              "type": "uint256"
            },
            {
              "internalType": "uint256",
              "name": "tgeDate",
              "type": "uint256"
            },
            {
              "internalType": "uint256",
              "name": "tgeBps",
              "type": "uint256"
            },
            {
              "internalType": "uint256",
              "name": "cycle",
              "type": "uint256"
            },
            {
              "internalType": "uint256",
              "name": "cycleBps",
              "type": "uint256"
            },
            {
              "internalType": "uint256",
              "name": "unlockedAmount",
              "type": "uint256"
            },
            {
              "internalType": "string",
              "name": "description",
              "type": "string"
            }
          ],
          "internalType": "struct TrendLock.Lock[]",
          "name": "",
          "type": "tuple[]"
        }
      ],
      "stateMutability": "view",
      "type": "function"
    },
    {
      "inputs": [
        {
          "internalType": "address[]",
          "name": "owners",
          "type": "address[]"
        },
        {
          "internalType": "uint256[]",
          "name": "amounts",
          "type": "uint256[]"
        },
        {
          "internalType": "address",
          "name": "token",
          "type": "address"
        },
        {
          "internalType": "bool",
          "name": "isLpToken",
          "type": "bool"
        },
        {
          "internalType": "uint256",
          "name": "tgeDate",
          "type": "uint256"
        },
        {
          "internalType": "uint256",
          "name": "tgeBps",
          "type": "uint256"
        },
        {
          "internalType": "uint256",
          "name": "cycle",
          "type": "uint256"
        },
        {
          "internalType": "uint256",
          "name": "cycleBps",
          "type": "uint256"
        },
        {
          "internalType": "string",
          "name": "description",
          "type": "string"
        }
      ],
      "name": "multipleVestingLock",
      "outputs": [
        {
          "internalType": "uint256[]",
          "name": "",
          "type": "uint256[]"
        }
      ],
      "stateMutability": "nonpayable",
      "type": "function"
    },
    {
      "inputs": [
        {
          "internalType": "address",
          "name": "user",
          "type": "address"
        }
      ],
      "name": "normalLockCountForUser",
      "outputs": [
        {
          "internalType": "uint256",
          "name": "",
          "type": "uint256"
        }
      ],
      "stateMutability": "view",
      "type": "function"
    },
    {
      "inputs": [
        {
          "internalType": "address",
          "name": "user",
          "type": "address"
        },
        {
          "internalType": "uint256",
          "name": "index",
          "type": "uint256"
        }
      ],
      "name": "normalLockForUserAtIndex",
      "outputs": [
        {
          "components": [
            {
              "internalType": "uint256",
              "name": "id",
              "type": "uint256"
            },
            {
              "internalType": "address",
              "name": "token",
              "type": "address"
            },
            {
              "internalType": "address",
              "name": "owner",
              "type": "address"
            },
            {
              "internalType": "uint256",
              "name": "amount",
              "type": "uint256"
            },
            {
              "internalType": "uint256",
              "name": "lockDate",
              "type": "uint256"
            },
            {
              "internalType": "uint256",
              "name": "tgeDate",
              "type": "uint256"
            },
            {
              "internalType": "uint256",
              "name": "tgeBps",
              "type": "uint256"
            },
            {
              "internalType": "uint256",
              "name": "cycle",
              "type": "uint256"
            },
            {
              "internalType": "uint256",
              "name": "cycleBps",
              "type": "uint256"
            },
            {
              "internalType": "uint256",
              "name": "unlockedAmount",
              "type": "uint256"
            },
            {
              "internalType": "string",
              "name": "description",
              "type": "string"
            }
          ],
          "internalType": "struct TrendLock.Lock",
          "name": "",
          "type": "tuple"
        }
      ],
      "stateMutability": "view",
      "type": "function"
    },
    {
      "inputs": [
        {
          "internalType": "address",
          "name": "user",
          "type": "address"
        }
      ],
      "name": "normalLocksForUser",
      "outputs": [
        {
          "components": [
            {
              "internalType": "uint256",
              "name": "id",
              "type": "uint256"
            },
            {
              "internalType": "address",
              "name": "token",
              "type": "address"
            },
            {
              "internalType": "address",
              "name": "owner",
              "type": "address"
            },
            {
              "internalType": "uint256",
              "name": "amount",
              "type": "uint256"
            },
            {
              "internalType": "uint256",
              "name": "lockDate",
              "type": "uint256"
            },
            {
              "internalType": "uint256",
              "name": "tgeDate",
              "type": "uint256"
            },
            {
              "internalType": "uint256",
              "name": "tgeBps",
              "type": "uint256"
            },
            {
              "internalType": "uint256",
              "name": "cycle",
              "type": "uint256"
            },
            {
              "internalType": "uint256",
              "name": "cycleBps",
              "type": "uint256"
            },
            {
              "internalType": "uint256",
              "name": "unlockedAmount",
              "type": "uint256"
            },
            {
              "internalType": "string",
              "name": "description",
              "type": "string"
            }
          ],
          "internalType": "struct TrendLock.Lock[]",
          "name": "",
          "type": "tuple[]"
        }
      ],
      "stateMutability": "view",
      "type": "function"
    },
    {
      "inputs": [
        {
          "internalType": "uint256",
          "name": "lockId",
          "type": "uint256"
        }
      ],
      "name": "renounceLockOwnership",
      "outputs": [],
      "stateMutability": "nonpayable",
      "type": "function"
    },
    {
      "inputs": [
        {
          "internalType": "address",
          "name": "token",
          "type": "address"
        }
      ],
      "name": "totalLockCountForToken",
      "outputs": [
        {
          "internalType": "uint256",
          "name": "",
          "type": "uint256"
        }
      ],
      "stateMutability": "view",
      "type": "function"
    },
    {
      "inputs": [
        {
          "internalType": "address",
          "name": "user",
          "type": "address"
        }
      ],
      "name": "totalLockCountForUser",
      "outputs": [
        {
          "internalType": "uint256",
          "name": "",
          "type": "uint256"
        }
      ],
      "stateMutability": "view",
      "type": "function"
    },
    {
      "inputs": [],
      "name": "totalTokenLockedCount",
      "outputs": [
        {
          "internalType": "uint256",
          "name": "",
          "type": "uint256"
        }
      ],
      "stateMutability": "view",
      "type": "function"
    },
    {
      "inputs": [
        {
          "internalType": "uint256",
          "name": "lockId",
          "type": "uint256"
        },
        {
          "internalType": "address",
          "name": "newOwner",
          "type": "address"
        }
      ],
      "name": "transferLockOwnership",
      "outputs": [],
      "stateMutability": "nonpayable",
      "type": "function"
    },
    {
      "inputs": [
        {
          "internalType": "uint256",
          "name": "lockId",
          "type": "uint256"
        }
      ],
      "name": "unlock",
      "outputs": [],
      "stateMutability": "nonpayable",
      "type": "function"
    },
    {
      "inputs": [
        {
          "internalType": "address",
          "name": "owner",
          "type": "address"
        },
        {
          "internalType": "address",
          "name": "token",
          "type": "address"
        },
        {
          "internalType": "bool",
          "name": "isLpToken",
          "type": "bool"
        },
        {
          "internalType": "uint256",
          "name": "amount",
          "type": "uint256"
        },
        {
          "internalType": "uint256",
          "name": "tgeDate",
          "type": "uint256"
        },
        {
          "internalType": "uint256",
          "name": "tgeBps",
          "type": "uint256"
        },
        {
          "internalType": "uint256",
          "name": "cycle",
          "type": "uint256"
        },
        {
          "internalType": "uint256",
          "name": "cycleBps",
          "type": "uint256"
        },
        {
          "internalType": "string",
          "name": "description",
          "type": "string"
        }
      ],
      "name": "vestingLock",
      "outputs": [
        {
          "internalType": "uint256",
          "name": "id",
          "type": "uint256"
        }
      ],
      "stateMutability": "nonpayable",
      "type": "function"
    },
    {
      "inputs": [
        {
          "internalType": "uint256",
          "name": "lockId",
          "type": "uint256"
        }
      ],
      "name": "withdrawableTokens",
      "outputs": [
        {
          "internalType": "uint256",
          "name": "",
          "type": "uint256"
        }
      ],
      "stateMutability": "view",
      "type": "function"
    }
  ],
  "bytecode": "0x6080604052348015600e575f80fd5b506139ed8061001c5f395ff3fe608060405234801561000f575f80fd5b50600436106101c6575f3560e01c8063a57e3141116100fe578063d3cac8851161009e578063e3676f881161006e578063e3676f8814610428578063eb80bdae1461043b578063eeacf7861461044e578063fd981c6614610461575f80fd5b8063d3cac88514610381578063da1d8cff14610394578063e0da83ce146103a7578063e1444fd6146103c7575f80fd5b8063b3b9aa48116100d9578063b3b9aa4814610340578063b982922e14610353578063cb645e321461035b578063cd83eadc1461036e575f80fd5b8063a57e314114610307578063aec640c61461031a578063aef0e5401461032d575f80fd5b80635a04fb69116101695780636dbdeab3116101445780636dbdeab3146102a157806376c12822146102b45780637e6706d3146102d4578063a20b8c18146102f4575f80fd5b80635a04fb6914610266578063618df7a31461027b5780636198e3391461028e575f80fd5b80630d4f581a116101a45780630d4f581a146102235780631982242c14610236578063332f26d71461023e578063475831c81461025e575f80fd5b806307279357146101ca57806307873ef1146101f057806308f1247014610203575b5f80fd5b6101dd6101d83660046130d7565b610468565b6040519081526020015b60405180910390f35b6101dd6101fe366004613158565b6105a9565b610216610211366004613173565b6105cf565b6040516101e7919061325a565b610216610231366004613173565b61071d565b6101dd610737565b61025161024c36600461326c565b610757565b6040516101e7919061329e565b6101dd610898565b610279610274366004613301565b6108a3565b005b61021661028936600461332f565b610a2e565b61027961029c366004613173565b610aa2565b6101dd6102af366004613173565b610b28565b6102c76102c2366004613359565b610b3e565b6040516101e79190613379565b6102e76102e2366004613173565b610c8d565b6040516101e791906133dd565b6102e7610302366004613173565b610d01565b610279610315366004613173565b610d2b565b6102c7610328366004613359565b610d38565b61025161033b366004613158565b610e7c565b61027961034e36600461340c565b610f53565b6101dd6111e5565b6101dd610369366004613435565b6111f0565b6101dd61037c366004613158565b611432565b61027961038f3660046134d3565b61144f565b6102516103a2366004613158565b6114fc565b6103ba6103b536600461355d565b6115cb565b6040516101e7919061363a565b6104026103d5366004613158565b60076020525f90815260409020805460018201546002909201546001600160a01b03918216929091169083565b604080516001600160a01b039485168152939092166020840152908201526060016101e7565b6101dd610436366004613158565b6117d7565b6101dd610449366004613158565b6117f7565b61021661045c36600461332f565b611817565b5f546101dd565b5f6001600160a01b0386166104985760405162461bcd60e51b815260040161048f90613671565b60405180910390fd5b5f84116104e75760405162461bcd60e51b815260206004820152601f60248201527f416d6f756e742073686f756c642062652067726561746572207468616e203000604482015260640161048f565b4283116105425760405162461bcd60e51b815260206004820152602360248201527f556e6c6f636b20646174652073686f756c6420626520696e207468652066757460448201526275726560e81b606482015260840161048f565b61055387878787875f805f8a61188b565b9050610561863330876118d5565b807f694af1cc8727cdd0afbdd53d9b87b69248bd490224e9dd090e788546506e076f878987876040516105979493929190613698565b60405180910390a29695505050505050565b6001600160a01b0381165f9081526001602052604081206105c990611a24565b92915050565b6105d7612f9c565b5f6105e183611a2d565b815481106105f1576105f16136c1565b5f9182526020918290206040805161016081018252600b9093029091018054835260018101546001600160a01b03908116948401949094526002810154909316908201526003820154606082015260048201546080820152600582015460a0820152600682015460c0820152600782015460e082015260088201546101008201526009820154610120820152600a8201805491929161014084019190610696906136d5565b80601f01602080910402602001604051908101604052809291908181526020018280546106c2906136d5565b801561070d5780601f106106e45761010080835404028352916020019161070d565b820191905f5260205f20905b8154815290600101906020018083116106f057829003601f168201915b5050505050815250509050919050565b610725612f9c565b5f82815481106105f1576105f16136c1565b5f610740610898565b6107486111e5565b6107529190613721565b905090565b6001600160a01b0383165f90815260086020526040902060609061077a90611a24565b82106107b0576001600160a01b0384165f9081526008602052604090206001906107a390611a24565b6107ad9190613734565b91505b5f6107bb8484613734565b6107c6906001613721565b90505f816001600160401b038111156107e1576107e161303a565b60405190808252806020026020018201604052801561081a57816020015b610807612f9c565b8152602001906001900390816107ff5790505b5090505f855b85811161088a576001600160a01b0388165f90815260086020526040902061084c906102119083611ac6565b83838151811061085e5761085e6136c1565b6020026020010181905250818061087490613747565b925050808061088290613747565b915050610820565b5090925050505b9392505050565b5f6107526005611a24565b816108ad81611a2d565b505f806108b985611a2d565b815481106108c9576108c96136c1565b5f9182526020909120600b9091020160028101549091506001600160a01b03163381146109085760405162461bcd60e51b815260040161048f9061375f565b6002820180546001600160a01b0319166001600160a01b038681169190911790915560018084015482165f9081526007602052604090209081015490911615801590610997576001600160a01b0383165f90815260016020526040902061096f9088611ad1565b506001600160a01b0386165f9081526001602052604090206109919088611adc565b506109dc565b6001600160a01b0383165f9081526002602052604090206109b89088611ad1565b506001600160a01b0386165f9081526002602052604090206109da9088611adc565b505b604080518881526001600160a01b03858116602083015288168183015290517f9075ad040756c0d8743a1fed927066a92c4755071615bf61e04b17583d961caf9181900360600190a150505050505050565b610a36612f9c565b81610a40846117f7565b11610a7d5760405162461bcd60e51b815260206004820152600d60248201526c092dcecc2d8d2c840d2dcc8caf609b1b604482015260640161048f565b6001600160a01b0383165f908152600260205260409020610891906102119084611ac6565b80610aac81611a2d565b505f80610ab884611a2d565b81548110610ac857610ac86136c1565b5f91825260209091206002600b90920201908101549091506001600160a01b03163314610b075760405162461bcd60e51b815260040161048f9061375f565b600681015415610b1f57610b1a81611ae7565b505050565b610b1a81611e71565b5f80610b33836105cf565b90506108918161208a565b6060610b4a6005611a24565b8210610b69576001610b5c6005611a24565b610b669190613734565b91505b5f610b748484613734565b610b7f906001613721565b90505f816001600160401b03811115610b9a57610b9a61303a565b604051908082528060200260200182016040528015610be357816020015b604080516060810182525f80825260208083018290529282015282525f19909201910181610bb85790505b5090505f855b858111610c825760075f610bfe600584611ac6565b6001600160a01b03908116825260208083019390935260409182015f208251606081018452815483168152600182015490921693820193909352600290920154908201528351849084908110610c5657610c566136c1565b60200260200101819052508180610c6c90613747565b9250508080610c7a90613747565b915050610be9565b509095945050505050565b604080516060810182525f808252602082018190529181019190915260075f610cb7600585611ac6565b6001600160a01b03908116825260208083019390935260409182015f2082516060810184528154831681526001820154909216938201939093526002909201549082015292915050565b604080516060810182525f808252602082018190529181019190915260075f610cb7600385611ac6565b610d35815f6108a3565b50565b6060610d446003611a24565b8210610d63576001610d566003611a24565b610d609190613734565b91505b5f610d6e8484613734565b610d79906001613721565b90505f816001600160401b03811115610d9457610d9461303a565b604051908082528060200260200182016040528015610ddd57816020015b604080516060810182525f80825260208083018290529282015282525f19909201910181610db25790505b5090505f855b858111610c825760075f610df8600384611ac6565b6001600160a01b03908116825260208083019390935260409182015f208251606081018452815483168152600182015490921693820193909352600290920154908201528351849084908110610e5057610e506136c1565b60200260200101819052508180610e6690613747565b9250508080610e7490613747565b915050610de3565b6001600160a01b0381165f90815260016020526040812060609190610ea090611a24565b90505f816001600160401b03811115610ebb57610ebb61303a565b604051908082528060200260200182016040528015610ef457816020015b610ee1612f9c565b815260200190600190039081610ed95790505b5090505f5b82811015610f4b576001600160a01b0385165f908152600160205260409020610f26906102119083611ac6565b828281518110610f3857610f386136c1565b6020908102919091010152600101610ef9565b509392505050565b82610f5d81611a2d565b505f80610f6986611a2d565b81548110610f7957610f796136c1565b5f91825260209091206002600b90920201908101549091506001600160a01b03163314610fb85760405162461bcd60e51b815260040161048f9061375f565b600981015415610ffe5760405162461bcd60e51b8152602060048201526011602482015270131bd8dac81dd85cc81d5b9b1bd8dad959607a1b604482015260640161048f565b821561109f578060050154831015801561101757504283115b6110975760405162461bcd60e51b8152602060048201526044602482018190527f4e657720756e6c6f636b2074696d652073686f756c64206e6f74206265206265908201527f666f7265206f6c6420756e6c6f636b2074696d65206f722063757272656e742060648201526374696d6560e01b608482015260a40161048f565b600581018390555b83156111815780600301548410156111135760405162461bcd60e51b815260206004820152603160248201527f4e657720616d6f756e742073686f756c64206e6f74206265206c657373207468604482015270185b8818dd5c9c995b9d08185b5bdd5b9d607a1b606482015260840161048f565b5f8160030154856111249190613734565b9050801561117f576003820185905560018201546001600160a01b03165f908152600760205260409020600281015461115e908390613721565b6002820155600183015461117d906001600160a01b03163330856118d5565b505b505b805460018201546002830154600384015460058501546040517fa8b26360df8d5e154ffa5a8a7e894e85f781acfbbef0b744fb9551d8fd0fd36c946111d6946001600160a01b03918216949116929091613698565b60405180910390a25050505050565b5f6107526003611a24565b5f6001600160a01b0389166112175760405162461bcd60e51b815260040161048f90613671565b5f87116112665760405162461bcd60e51b815260206004820152601f60248201527f416d6f756e742073686f756c642062652067726561746572207468616e203000604482015260640161048f565b4286116112b55760405162461bcd60e51b815260206004820181905260248201527f54474520646174652073686f756c6420626520696e2074686520667574757265604482015260640161048f565b5f84116112f45760405162461bcd60e51b815260206004820152600d60248201526c496e76616c6964206379636c6560981b604482015260640161048f565b5f85118015611304575061271085105b6113475760405162461bcd60e51b8152602060048201526014602482015273496e76616c6964206269707320666f722054474560601b604482015260640161048f565b5f83118015611357575061271083105b61139c5760405162461bcd60e51b8152602060048201526016602482015275496e76616c6964206269707320666f72206379636c6560501b604482015260640161048f565b6127106113a98487613721565b11156113c75760405162461bcd60e51b815260040161048f906137a1565b6113d88a8a8a8a8a8a8a8a8a61188b565b90506113e68933308a6118d5565b807f694af1cc8727cdd0afbdd53d9b87b69248bd490224e9dd090e788546506e076f8a8c8a8a60405161141c9493929190613698565b60405180910390a25b9998505050505050505050565b5f61143c826105a9565b611445836117f7565b6105c99190613721565b8161145981611a2d565b505f8061146585611a2d565b81548110611475576114756136c1565b5f91825260209091206002600b90920201908101549091506001600160a01b031633146114b45760405162461bcd60e51b815260040161048f9061375f565b600a81016114c2848261383e565b506040518481527fe4a1120fd509c50aec65802fd3c3c9a4b72bf746fe9a552396185c6de928e8aa9060200160405180910390a150505050565b6001600160a01b0381165f9081526002602052604081206060919061152090611a24565b90505f816001600160401b0381111561153b5761153b61303a565b60405190808252806020026020018201604052801561157457816020015b611561612f9c565b8152602001906001900390816115595790505b5090505f5b82811015610f4b576001600160a01b0385165f9081526002602052604090206115a6906102119083611ac6565b8282815181106115b8576115b86136c1565b6020908102919091010152600101611579565b60606001600160a01b0388166115f35760405162461bcd60e51b815260040161048f90613671565b8a89146116365760405162461bcd60e51b815260206004820152601160248201527013195b99dd1a081b5a5cdb585d18da1959607a1b604482015260640161048f565b4286116116855760405162461bcd60e51b815260206004820181905260248201527f54474520646174652073686f756c6420626520696e2074686520667574757265604482015260640161048f565b5f84116116c45760405162461bcd60e51b815260206004820152600d60248201526c496e76616c6964206379636c6560981b604482015260640161048f565b5f851180156116d4575061271085105b6117175760405162461bcd60e51b8152602060048201526014602482015273496e76616c6964206269707320666f722054474560601b604482015260640161048f565b5f83118015611727575061271083105b61176c5760405162461bcd60e51b8152602060048201526016602482015275496e76616c6964206269707320666f72206379636c6560501b604482015260640161048f565b6127106117798487613721565b11156117975760405162461bcd60e51b815260040161048f906137a1565b6117c78c8c8c8c8c8c60405180608001604052808e81526020018d81526020018c81526020018b81525089612193565b9c9b505050505050505050505050565b6001600160a01b0381165f9081526008602052604081206105c990611a24565b6001600160a01b0381165f9081526002602052604081206105c990611a24565b61181f612f9c565b81611829846105a9565b116118665760405162461bcd60e51b815260206004820152600d60248201526c092dcecc2d8d2c840d2dcc8caf609b1b604482015260640161048f565b6001600160a01b0383165f908152600160205260409020610891906102119084611ac6565b5f87156118b7575f61189c8a61237a565b90506118af8b8b838b8b8b8b8b8b61248d565b915050611425565b6118c78a8a898989898989612562565b9a9950505050505050505050565b6040516370a0823160e01b81526001600160a01b0383811660048301525f91908616906370a0823190602401602060405180830381865afa15801561191c573d5f803e3d5ffd5b505050506040513d601f19601f8201168201806040525081019061194091906138f8565b90506119576001600160a01b038616858585612630565b6040516370a0823160e01b81526001600160a01b0384811660048301525f91908716906370a0823190602401602060405180830381865afa15801561199e573d5f803e3d5ffd5b505050506040513d601f19601f820116820180604052508101906119c291906138f8565b9050826119cf8383613734565b14611a1c5760405162461bcd60e51b815260206004820152601f60248201527f4e6f7420656e6f75676820746f6b656e20776173207472616e73666572656400604482015260640161048f565b505050505050565b5f6105c9825490565b5f620f4240821015611a735760405162461bcd60e51b815260206004820152600f60248201526e125b9d985b1a59081b1bd8dac81a59608a1b604482015260640161048f565b5f611a81620f424084613734565b5f5490915081106105c95760405162461bcd60e51b815260206004820152600f60248201526e125b9d985b1a59081b1bd8dac81a59608a1b604482015260640161048f565b5f61089183836126a1565b5f61089183836126c7565b5f61089183836127aa565b60408051610160810182528254815260018301546001600160a01b039081166020830152600284015416918101919091526003820154606082015260048201546080820152600582015460a0820152600682015460c0820152600782015460e082015260088201546101008201526009820154610120820152600a820180545f92611c049290918591610140840191611b7f906136d5565b80601f0160208091040260200160405190810160405280929190818152602001828054611bab906136d5565b8015611bf65780601f10611bcd57610100808354040283529160200191611bf6565b820191905f5260205f20905b815481529060010190602001808311611bd957829003601f168201915b50505050508152505061208a565b90505f818360090154611c179190613721565b90505f82118015611c2c575082600301548111155b611c6c5760405162461bcd60e51b81526020600482015260116024820152704e6f7468696e6720746f20756e6c6f636b60781b604482015260640161048f565b6001808401546001600160a01b039081165f90815260076020526040902091820154600386015491161515908303611d55578015611cc3578454335f908152600160205260409020611cbd91611ad1565b50611cde565b8454335f908152600260205260409020611cdc91611ad1565b505b845460018601546001600160a01b03165f908152600860205260409020611d0491611ad1565b50845460018601546040517fc6532367992b32e42a62dd89fc3574876d97d081a263aa6e030f34b79b7e6e8b91611d4c916001600160a01b0390911690339088904290613698565b60405180910390a25b83826002015411611d6b575f6002830155611d81565b838260020154611d7b9190613734565b60028301555b81600201545f03611dce578015611db2576001850154611dac906003906001600160a01b03166127f6565b50611dce565b6001850154611dcc906005906001600160a01b03166127f6565b505b6009850183905560028501546001860154611df6916001600160a01b0391821691168661280a565b84546001860154600987015460038801547ff93385ffdf40b698b13993c059834b8e91d0ca8e7abf827a34001ca03c03f6ff926001600160a01b03169133918991611e4091613734565b604080516001600160a01b03958616815294909316602085015291830152606082015242608082015260a0016111d6565b8060050154421015611ec55760405162461bcd60e51b815260206004820152601860248201527f4974206973206e6f742074696d6520746f20756e6c6f636b0000000000000000604482015260640161048f565b600981015415611f0b5760405162461bcd60e51b81526020600482015260116024820152704e6f7468696e6720746f20756e6c6f636b60781b604482015260640161048f565b6001808201546001600160a01b039081165f908152600760205260409020918201541615801590611f55578254335f908152600160205260409020611f4f91611ad1565b50611f70565b8254335f908152600260205260409020611f6e91611ad1565b505b600383015460028301548110611f8b575f6002840155611fa1565b808360020154611f9b9190613734565b60028401555b82600201545f03611fee578115611fd2576001840154611fcc906003906001600160a01b03166127f6565b50611fee565b6001840154611fec906005906001600160a01b03166127f6565b505b60098401819055835460018501546001600160a01b03165f90815260086020526040902061201b91611ad1565b506001840154612035906001600160a01b0316338361280a565b835460018501546040517fc6532367992b32e42a62dd89fc3574876d97d081a263aa6e030f34b79b7e6e8b9161207c916001600160a01b0390911690339086904290613698565b60405180910390a250505050565b5f81606001515f0361209d57505f919050565b8160600151826101200151106120b457505f919050565b8160a001514210156120c757505f919050565b8160e001515f036120d957505f919050565b5f6120ef83606001518460c0015161271061283a565b90505f612108846060015185610100015161271061283a565b90505f8460a00151421061214e5782828660e001518760a001514261212d9190613734565b612137919061390f565b612141919061392e565b61214b9190613721565b90505b5f85606001518211156121775785610120015186606001516121709190613734565b905061218a565b6101208601516121879083613734565b90505b95945050505050565b60606001600160a01b0385166121bb5760405162461bcd60e51b815260040161048f90613671565b5f6121c688886128e0565b9050885f816001600160401b038111156121e2576121e261303a565b60405190808252806020026020018201604052801561220b578160200160208202803683370190505b5090505f5b8281101561235e5761228d8d8d8381811061222d5761222d6136c1565b90506020020160208101906122429190613158565b8a8a8e8e86818110612256576122566136c1565b905060200201358b5f6004811061226f5761226f6136c1565b60209081029190910151908d015160408e015160608f01518e61188b565b82828151811061229f5761229f6136c1565b6020026020010181815250508181815181106122bd576122bd6136c1565b60200260200101517f694af1cc8727cdd0afbdd53d9b87b69248bd490224e9dd090e788546506e076f8a8f8f858181106122f9576122f96136c1565b905060200201602081019061230e9190613158565b8e8e86818110612320576123206136c1565b905060200201358b5f60048110612339576123396136c1565b602002015160405161234e9493929190613698565b60405180910390a2600101612210565b5061236b883330866118d5565b9b9a5050505050505050505050565b5f80826001600160a01b031663c45a01556040518163ffffffff1660e01b8152600401602060405180830381865afa9250505080156123d6575060408051601f3d908101601f191682019092526123d391810190613945565b60015b6124225760405162461bcd60e51b815260206004820152601c60248201527f5468697320746f6b656e206973206e6f742061204c5020746f6b656e00000000604482015260640161048f565b90506001600160a01b0381161580159061244157506124418382612977565b6105c95760405162461bcd60e51b815260206004820152601d60248201527f5468697320746f6b656e206973206e6f742061204c5020746f6b656e2e000000604482015260640161048f565b5f61249e8a8a898989898989612ad2565b6001600160a01b038b165f9081526001602052604090209091506124c29082611adc565b506124ce60038a612d3b565b506001600160a01b03808a165f908152600760205260409020805490911661251d5780546001600160a01b03808c166001600160a01b0319928316178355600183018054918c16919092161790555b87816002015461252d9190613721565b60028201556001600160a01b038a165f9081526008602052604090206125539083611adc565b50509998505050505050505050565b5f6125738989898989898989612ad2565b6001600160a01b038a165f9081526002602052604090209091506125979082611adc565b506125a3600589612d3b565b506001600160a01b038089165f90815260076020526040902080549091166125ec5780546001600160a01b038a166001600160a01b031991821617825560018201805490911690555b8781600201546125fc9190613721565b60028201556001600160a01b0389165f9081526008602052604090206126229083611adc565b505098975050505050505050565b6040516001600160a01b038085166024830152831660448201526064810182905261269b9085906323b872dd60e01b906084015b60408051601f198184030181529190526020810180516001600160e01b03166001600160e01b031990931692909217909152612d4f565b50505050565b5f825f0182815481106126b6576126b66136c1565b905f5260205f200154905092915050565b5f81815260018301602052604081205480156127a1575f6126e9600183613734565b85549091505f906126fc90600190613734565b905081811461275b575f865f01828154811061271a5761271a6136c1565b905f5260205f200154905080875f01848154811061273a5761273a6136c1565b5f918252602080832090910192909255918252600188019052604090208390555b855486908061276c5761276c613960565b600190038181905f5260205f20015f90559055856001015f8681526020019081526020015f205f9055600193505050506105c9565b5f9150506105c9565b5f8181526001830160205260408120546127ef57508154600181810184555f8481526020808220909301849055845484825282860190935260409020919091556105c9565b505f6105c9565b5f610891836001600160a01b0384166126c7565b6040516001600160a01b038316602482015260448101829052610b1a90849063a9059cbb60e01b90606401612664565b5f80805f19858709858702925082811083820303915050805f0361286e575f8411612863575f80fd5b508290049050610891565b808411612879575f80fd5b5f8486880960026001871981018816978890046003810283188082028403028082028403028082028403028082028403028082028403029081029092039091025f889003889004909101858311909403939093029303949094049190911702949350505050565b5f80805b83811015610f4b578484828181106128fe576128fe6136c1565b905060200201355f036129495760405162461bcd60e51b8152602060048201526013602482015272416d6f756e742063616e74206265207a65726f60681b604482015260640161048f565b84848281811061295b5761295b6136c1565b905060200201358261296d9190613721565b91506001016128e4565b5f808390505f836001600160a01b031663e6a43905836001600160a01b0316630dfe16816040518163ffffffff1660e01b8152600401602060405180830381865afa1580156129c8573d5f803e3d5ffd5b505050506040513d601f19601f820116820180604052508101906129ec9190613945565b846001600160a01b031663d21220a76040518163ffffffff1660e01b8152600401602060405180830381865afa158015612a28573d5f803e3d5ffd5b505050506040513d601f19601f82011682018060405250810190612a4c9190613945565b6040516001600160e01b031960e085901b1681526001600160a01b03928316600482015291166024820152604401602060405180830381865afa158015612a95573d5f803e3d5ffd5b505050506040513d601f19601f82011682018060405250810190612ab99190613945565b6001600160a01b03908116908616149250505092915050565b5f8054612ae390620f424090613721565b60408051610160810182528281526001600160a01b03808c16602083019081528d8216938301938452606083018c8152426080850190815260a085018d815260c086018d815260e087018d815261010088018d81525f6101208a018181526101408b018f815282546001810184559280528b51600b9093027f290decd9548b62a8d60345a988386fc84ba6bc95484008f6362f93160ef3e563810193845599517f290decd9548b62a8d60345a988386fc84ba6bc95484008f6362f93160ef3e5648b018054918d166001600160a01b03199283161790559c517f290decd9548b62a8d60345a988386fc84ba6bc95484008f6362f93160ef3e5658b01805491909c169d169c909c1790995595517f290decd9548b62a8d60345a988386fc84ba6bc95484008f6362f93160ef3e56688015593517f290decd9548b62a8d60345a988386fc84ba6bc95484008f6362f93160ef3e56787015591517f290decd9548b62a8d60345a988386fc84ba6bc95484008f6362f93160ef3e568860155517f290decd9548b62a8d60345a988386fc84ba6bc95484008f6362f93160ef3e569850155517f290decd9548b62a8d60345a988386fc84ba6bc95484008f6362f93160ef3e56a840155517f290decd9548b62a8d60345a988386fc84ba6bc95484008f6362f93160ef3e56b83015591517f290decd9548b62a8d60345a988386fc84ba6bc95484008f6362f93160ef3e56c8201559251939450909283927f290decd9548b62a8d60345a988386fc84ba6bc95484008f6362f93160ef3e56d0190612d2b908261383e565b5050505098975050505050505050565b5f610891836001600160a01b0384166127aa565b5f612da3826040518060400160405280602081526020017f5361666545524332303a206c6f772d6c6576656c2063616c6c206661696c6564815250856001600160a01b0316612e209092919063ffffffff16565b805190915015610b1a5780806020019051810190612dc19190613974565b610b1a5760405162461bcd60e51b815260206004820152602a60248201527f5361666545524332303a204552433230206f7065726174696f6e20646964206e6044820152691bdd081cdd58d8d9595960b21b606482015260840161048f565b6060612e2e84845f85612e36565b949350505050565b606082471015612e975760405162461bcd60e51b815260206004820152602660248201527f416464726573733a20696e73756666696369656e742062616c616e636520666f6044820152651c8818d85b1b60d21b606482015260840161048f565b6001600160a01b0385163b612eee5760405162461bcd60e51b815260206004820152601d60248201527f416464726573733a2063616c6c20746f206e6f6e2d636f6e7472616374000000604482015260640161048f565b5f80866001600160a01b03168587604051612f09919061398f565b5f6040518083038185875af1925050503d805f8114612f43576040519150601f19603f3d011682016040523d82523d5f602084013e612f48565b606091505b5091509150612f58828286612f63565b979650505050505050565b60608315612f72575081610891565b825115612f825782518084602001fd5b8160405162461bcd60e51b815260040161048f91906139a5565b6040518061016001604052805f81526020015f6001600160a01b031681526020015f6001600160a01b031681526020015f81526020015f81526020015f81526020015f81526020015f81526020015f81526020015f8152602001606081525090565b6001600160a01b0381168114610d35575f80fd5b803561301d81612ffe565b919050565b8015158114610d35575f80fd5b803561301d81613022565b634e487b7160e01b5f52604160045260245ffd5b5f82601f83011261305d575f80fd5b81356001600160401b038111156130765761307661303a565b604051601f8201601f19908116603f011681016001600160401b03811182821017156130a4576130a461303a565b6040528181528382016020018510156130bb575f80fd5b816020850160208301375f918101602001919091529392505050565b5f805f805f8060c087890312156130ec575f80fd5b86356130f781612ffe565b9550602087013561310781612ffe565b9450604087013561311781613022565b9350606087013592506080870135915060a08701356001600160401b0381111561313f575f80fd5b61314b89828a0161304e565b9150509295509295509295565b5f60208284031215613168575f80fd5b813561089181612ffe565b5f60208284031215613183575f80fd5b5035919050565b5f81518084528060208401602086015e5f602082860101526020601f19601f83011685010191505092915050565b805182525f60208201516131d760208501826001600160a01b03169052565b5060408201516131f260408501826001600160a01b03169052565b50606082015160608401526080820151608084015260a082015160a084015260c082015160c084015260e082015160e0840152610100820151610100840152610120820151610120840152610140820151610160610140850152612e2e61016085018261318a565b602081525f61089160208301846131b8565b5f805f6060848603121561327e575f80fd5b833561328981612ffe565b95602085013595506040909401359392505050565b5f602082016020835280845180835260408501915060408160051b8601019250602086015f5b828110156132f557603f198786030184526132e08583516131b8565b945060209384019391909101906001016132c4565b50929695505050505050565b5f8060408385031215613312575f80fd5b82359150602083013561332481612ffe565b809150509250929050565b5f8060408385031215613340575f80fd5b823561334b81612ffe565b946020939093013593505050565b5f806040838503121561336a575f80fd5b50508035926020909101359150565b602080825282518282018190525f918401906040840190835b81811015610c82576133c783855180516001600160a01b03908116835260208083015190911690830152604090810151910152565b6020939093019260609290920191600101613392565b81516001600160a01b0390811682526020808401519091169082015260408083015190820152606081016105c9565b5f805f6060848603121561341e575f80fd5b505081359360208301359350604090920135919050565b5f805f805f805f805f6101208a8c03121561344e575f80fd5b893561345981612ffe565b985060208a013561346981612ffe565b975060408a013561347981613022565b965060608a0135955060808a0135945060a08a0135935060c08a0135925060e08a013591506101008a01356001600160401b038111156134b7575f80fd5b6134c38c828d0161304e565b9150509295985092959850929598565b5f80604083850312156134e4575f80fd5b8235915060208301356001600160401b03811115613500575f80fd5b61350c8582860161304e565b9150509250929050565b5f8083601f840112613526575f80fd5b5081356001600160401b0381111561353c575f80fd5b6020830191508360208260051b8501011115613556575f80fd5b9250929050565b5f805f805f805f805f805f6101208c8e031215613578575f80fd5b8b356001600160401b0381111561358d575f80fd5b6135998e828f01613516565b909c509a505060208c01356001600160401b038111156135b7575f80fd5b6135c38e828f01613516565b909a5098506135d6905060408d01613012565b96506135e460608d0161302f565b955060808c0135945060a08c0135935060c08c0135925060e08c013591506101008c01356001600160401b0381111561361b575f80fd5b6136278e828f0161304e565b9150509295989b509295989b9093969950565b602080825282518282018190525f918401906040840190835b81811015610c82578351835260209384019390920191600101613653565b6020808252600d908201526c24b73b30b634b2103a37b5b2b760991b604082015260600190565b6001600160a01b0394851681529290931660208301526040820152606081019190915260800190565b634e487b7160e01b5f52603260045260245ffd5b600181811c908216806136e957607f821691505b60208210810361370757634e487b7160e01b5f52602260045260245ffd5b50919050565b634e487b7160e01b5f52601160045260245ffd5b808201808211156105c9576105c961370d565b818103818111156105c9576105c961370d565b5f600182016137585761375861370d565b5060010190565b60208082526022908201527f596f7520617265206e6f7420746865206f776e6572206f662074686973206c6f604082015261636b60f01b606082015260800190565b60208082526032908201527f53756d206f66205447452062707320616e64206379636c652073686f756c642060408201527106265206c657373207468616e2031303030360741b606082015260800190565b601f821115610b1a57805f5260205f20601f840160051c810160208510156138185750805b601f840160051c820191505b81811015613837575f8155600101613824565b5050505050565b81516001600160401b038111156138575761385761303a565b61386b8161386584546136d5565b846137f3565b6020601f82116001811461389d575f83156138865750848201515b5f19600385901b1c1916600184901b178455613837565b5f84815260208120601f198516915b828110156138cc57878501518255602094850194600190920191016138ac565b50848210156138e957868401515f19600387901b60f8161c191681555b50505050600190811b01905550565b5f60208284031215613908575f80fd5b5051919050565b5f8261392957634e487b7160e01b5f52601260045260245ffd5b500490565b80820281158282048414176105c9576105c961370d565b5f60208284031215613955575f80fd5b815161089181612ffe565b634e487b7160e01b5f52603160045260245ffd5b5f60208284031215613984575f80fd5b815161089181613022565b5f82518060208501845e5f920191825250919050565b602081525f610891602083018461318a56fea2646970667358221220f04a552acc1a4376c7df22a31543deaab3b1097d45cd4d7ac75fa453d0a5649c64736f6c634300081a0033",
  "linkReferences": {},
  "deployedLinkReferences": {}
}