{
  "_format": "hh-sol-artifact-1",
  "contractName": "IDOFactory",
  "sourceName": "contracts/TrendIDOFactory.sol",
  "abi": [
    {
      "inputs": [
        {
          "internalType": "uint256",
          "name": "_feePercent",
          "type": "uint256"
        },
        {
          "internalType": "address",
          "name": "_feeWallet",
          "type": "address"
        }
      ],
      "stateMutability": "nonpayable",
      "type": "constructor"
    },
    {
      "anonymous": false,
      "inputs": [
        {
          "indexed": false,
          "internalType": "address",
          "name": "newFeeWallet",
          "type": "address"
        }
      ],
      "name": "FeeWalletUpdated",
      "type": "event"
    },
    {
      "anonymous": false,
      "inputs": [
        {
          "indexed": true,
          "internalType": "address",
          "name": "owner",
          "type": "address"
        },
        {
          "indexed": false,
          "internalType": "address",
          "name": "TrendPool",
          "type": "address"
        },
        {
          "indexed": true,
          "internalType": "address",
          "name": "rewardToken",
          "type": "address"
        },
        {
          "indexed": false,
          "internalType": "string",
          "name": "tokenURI",
          "type": "string"
        }
      ],
      "name": "IDOCreated",
      "type": "event"
    },
    {
      "anonymous": false,
      "inputs": [
        {
          "indexed": true,
          "internalType": "address",
          "name": "previousOwner",
          "type": "address"
        },
        {
          "indexed": true,
          "internalType": "address",
          "name": "newOwner",
          "type": "address"
        }
      ],
      "name": "OwnershipTransferred",
      "type": "event"
    },
    {
      "anonymous": false,
      "inputs": [
        {
          "indexed": false,
          "internalType": "address",
          "name": "newFeeToken",
          "type": "address"
        }
      ],
      "name": "TokenFeeUpdated",
      "type": "event"
    },
    {
      "anonymous": false,
      "inputs": [
        {
          "indexed": false,
          "internalType": "uint256",
          "name": "newfeePercent",
          "type": "uint256"
        }
      ],
      "name": "feePercentUpdated",
      "type": "event"
    },
    {
      "inputs": [
        {
          "internalType": "uint256",
          "name": "",
          "type": "uint256"
        }
      ],
      "name": "TrendPools",
      "outputs": [
        {
          "internalType": "address",
          "name": "",
          "type": "address"
        }
      ],
      "stateMutability": "view",
      "type": "function"
    },
    {
      "inputs": [
        {
          "internalType": "contract ERC20",
          "name": "_rewardToken",
          "type": "address"
        },
        {
          "components": [
            {
              "internalType": "uint256",
              "name": "tokenPrice",
              "type": "uint256"
            },
            {
              "internalType": "uint256",
              "name": "softCap",
              "type": "uint256"
            },
            {
              "internalType": "uint256",
              "name": "hardCap",
              "type": "uint256"
            },
            {
              "internalType": "uint256",
              "name": "minEthPayment",
              "type": "uint256"
            },
            {
              "internalType": "uint256",
              "name": "maxEthPayment",
              "type": "uint256"
            },
            {
              "internalType": "uint256",
              "name": "listingPrice",
              "type": "uint256"
            },
            {
              "internalType": "uint256",
              "name": "lpInterestRate",
              "type": "uint256"
            }
          ],
          "internalType": "struct TrendPool.SaleInfo",
          "name": "_finInfo",
          "type": "tuple"
        },
        {
          "components": [
            {
              "internalType": "uint256",
              "name": "startTimestamp",
              "type": "uint256"
            },
            {
              "internalType": "uint256",
              "name": "endTimestamp",
              "type": "uint256"
            },
            {
              "internalType": "uint256",
              "name": "unlockTimestamp",
              "type": "uint256"
            }
          ],
          "internalType": "struct TrendPool.Timestamps",
          "name": "_timestamps",
          "type": "tuple"
        },
        {
          "components": [
            {
              "internalType": "address",
              "name": "router",
              "type": "address"
            },
            {
              "internalType": "address",
              "name": "factory",
              "type": "address"
            },
            {
              "internalType": "address",
              "name": "weth",
              "type": "address"
            }
          ],
          "internalType": "struct TrendPool.DEXInfo",
          "name": "_dexInfo",
          "type": "tuple"
        },
        {
          "internalType": "address",
          "name": "_lockerFactoryAddress",
          "type": "address"
        },
        {
          "internalType": "string",
          "name": "_metadataURL",
          "type": "string"
        },
        {
          "internalType": "bool",
          "name": "_burnType",
          "type": "bool"
        }
      ],
      "name": "createIDO",
      "outputs": [],
      "stateMutability": "nonpayable",
      "type": "function"
    },
    {
      "inputs": [
        {
          "internalType": "contract ERC20",
          "name": "_rewardToken",
          "type": "address"
        },
        {
          "internalType": "contract ERC20",
          "name": "_payToken",
          "type": "address"
        },
        {
          "components": [
            {
              "internalType": "uint256",
              "name": "tokenPrice",
              "type": "uint256"
            },
            {
              "internalType": "uint256",
              "name": "softCap",
              "type": "uint256"
            },
            {
              "internalType": "uint256",
              "name": "hardCap",
              "type": "uint256"
            },
            {
              "internalType": "uint256",
              "name": "minPayment",
              "type": "uint256"
            },
            {
              "internalType": "uint256",
              "name": "maxPayment",
              "type": "uint256"
            },
            {
              "internalType": "uint256",
              "name": "listingPrice",
              "type": "uint256"
            },
            {
              "internalType": "uint256",
              "name": "lpInterestRate",
              "type": "uint256"
            }
          ],
          "internalType": "struct TrendERC20Pool.SaleInfo",
          "name": "_finInfo",
          "type": "tuple"
        },
        {
          "components": [
            {
              "internalType": "uint256",
              "name": "startTimestamp",
              "type": "uint256"
            },
            {
              "internalType": "uint256",
              "name": "endTimestamp",
              "type": "uint256"
            },
            {
              "internalType": "uint256",
              "name": "unlockTimestamp",
              "type": "uint256"
            }
          ],
          "internalType": "struct TrendERC20Pool.Timestamps",
          "name": "_timestamps",
          "type": "tuple"
        },
        {
          "components": [
            {
              "internalType": "address",
              "name": "router",
              "type": "address"
            },
            {
              "internalType": "address",
              "name": "factory",
              "type": "address"
            },
            {
              "internalType": "address",
              "name": "weth",
              "type": "address"
            }
          ],
          "internalType": "struct TrendERC20Pool.DEXInfo",
          "name": "_dexInfo",
          "type": "tuple"
        },
        {
          "internalType": "address",
          "name": "_lockerFactoryAddress",
          "type": "address"
        },
        {
          "internalType": "string",
          "name": "_metadataURL",
          "type": "string"
        },
        {
          "internalType": "bool",
          "name": "_burnType",
          "type": "bool"
        }
      ],
      "name": "createIDOERC20",
      "outputs": [],
      "stateMutability": "nonpayable",
      "type": "function"
    },
    {
      "inputs": [],
      "name": "feePercent",
      "outputs": [
        {
          "internalType": "uint256",
          "name": "",
          "type": "uint256"
        }
      ],
      "stateMutability": "view",
      "type": "function"
    },
    {
      "inputs": [],
      "name": "feeWallet",
      "outputs": [
        {
          "internalType": "address",
          "name": "",
          "type": "address"
        }
      ],
      "stateMutability": "view",
      "type": "function"
    },
    {
      "inputs": [],
      "name": "getTrendPools",
      "outputs": [
        {
          "internalType": "address[]",
          "name": "",
          "type": "address[]"
        }
      ],
      "stateMutability": "view",
      "type": "function"
    },
    {
      "inputs": [
        {
          "internalType": "address",
          "name": "_user",
          "type": "address"
        }
      ],
      "name": "getUserPoolCount",
      "outputs": [
        {
          "internalType": "uint256",
          "name": "",
          "type": "uint256"
        }
      ],
      "stateMutability": "view",
      "type": "function"
    },
    {
      "inputs": [
        {
          "internalType": "address",
          "name": "_user",
          "type": "address"
        }
      ],
      "name": "getUserPools",
      "outputs": [
        {
          "internalType": "address[]",
          "name": "",
          "type": "address[]"
        }
      ],
      "stateMutability": "view",
      "type": "function"
    },
    {
      "inputs": [],
      "name": "owner",
      "outputs": [
        {
          "internalType": "address",
          "name": "",
          "type": "address"
        }
      ],
      "stateMutability": "view",
      "type": "function"
    },
    {
      "inputs": [],
      "name": "renounceOwnership",
      "outputs": [],
      "stateMutability": "nonpayable",
      "type": "function"
    },
    {
      "inputs": [
        {
          "internalType": "address",
          "name": "_newFeeWallet",
          "type": "address"
        }
      ],
      "name": "setFeeWallet",
      "outputs": [],
      "stateMutability": "nonpayable",
      "type": "function"
    },
    {
      "inputs": [
        {
          "internalType": "uint256",
          "name": "_newfeePercent",
          "type": "uint256"
        }
      ],
      "name": "setfeePercent",
      "outputs": [],
      "stateMutability": "nonpayable",
      "type": "function"
    },
    {
      "inputs": [
        {
          "internalType": "address",
          "name": "newOwner",
          "type": "address"
        }
      ],
      "name": "transferOwnership",
      "outputs": [],
      "stateMutability": "nonpayable",
      "type": "function"
    }
  ],
  "bytecode": "0x608060405234801561000f575f80fd5b50604051615fd9380380615fd983398101604081905261002e916100ae565b6100373361005f565b600180546001600160a01b0319166001600160a01b03929092169190911790556002556100e8565b5f80546001600160a01b038381166001600160a01b0319831681178455604051919092169283917f8be0079c531659141344cd1fd0a4f28419497f9722a3daafe3b4186f6b6457e09190a35050565b5f80604083850312156100bf575f80fd5b825160208401519092506001600160a01b03811681146100dd575f80fd5b809150509250929050565b615ee4806100f55f395ff3fe608060405234801561000f575f80fd5b50600436106100cb575f3560e01c80638da5cb5b11610088578063a9714c0311610063578063a9714c03146101b1578063f25f4b56146101b9578063f2fde38b146101cc578063fe571f83146101df575f80fd5b80638da5cb5b1461016e57806390d49b9d1461017e5780639816af5814610191575f80fd5b80630226b236146100cf578063207b26b0146100ff5780635c566b2f14610114578063715018a61461014a5780637fd6f15c146101525780638cd7d8301461015b575b5f80fd5b6100e26100dd366004610b32565b6101f2565b6040516001600160a01b0390911681526020015b60405180910390f35b61011261010d366004610d3d565b61021a565b005b61013c610122366004610de9565b6001600160a01b03165f9081526004602052604090205490565b6040519081526020016100f6565b6101126103b1565b61013c60025481565b610112610169366004610b32565b6103c4565b5f546001600160a01b03166100e2565b61011261018c366004610de9565b610408565b6101a461019f366004610de9565b61045e565b6040516100f69190610e04565b6101a46104d1565b6001546100e2906001600160a01b031681565b6101126101da366004610de9565b610531565b6101126101ed366004610e4f565b6105af565b60038181548110610201575f80fd5b5f918252602090912001546001600160a01b0316905081565b5f8787878787878760015f9054906101000a90046001600160a01b031660025460405161024690610b18565b61025899989796959493929190610f7f565b604051809103905ff080158015610271573d5f803e3d5ffd5b5060405163f2fde38b60e01b81523360048201529091506001600160a01b0382169063f2fde38b906024015f604051808303815f87803b1580156102b3575f80fd5b505af11580156102c5573d5f803e3d5ffd5b505050505f886001600160a01b031663313ce5676040518163ffffffff1660e01b8152600401602060405180830381865afa158015610306573d5f803e3d5ffd5b505050506040513d601f19601f8201168201806040525081019061032a9190611038565b90505f61033f89604001518a5f015184610733565b90506002548960c0015111801561035957505f8960a00151115b156103995761038c60648a60c001518b60400151610377919061106c565b6103819190611089565b8a60a0015184610733565b61039690826110a8565b90505b6103a5818b858861075d565b50505050505050505050565b6103b961082b565b6103c25f610884565b565b6103cc61082b565b60028190556040518181527f840eec20c60aecd6de1ebcd5c6c8f199c5fb0d924e7858a8e503e64352361dfd906020015b60405180910390a150565b61041061082b565b600180546001600160a01b0319166001600160a01b0383169081179091556040519081527f29acee77dafcfa0143d74a7ea236018f3a6e1fa71e27fc59bbfbc6b8ca8edccd906020016103fd565b6001600160a01b0381165f908152600460209081526040918290208054835181840281018401909452808452606093928301828280156104c557602002820191905f5260205f20905b81546001600160a01b031681526001909101906020018083116104a7575b50505050509050919050565b6060600380548060200260200160405190810160405280929190818152602001828054801561052757602002820191905f5260205f20905b81546001600160a01b03168152600190910190602001808311610509575b5050505050905090565b61053961082b565b6001600160a01b0381166105a35760405162461bcd60e51b815260206004820152602660248201527f4f776e61626c653a206e6577206f776e657220697320746865207a65726f206160448201526564647265737360d01b60648201526084015b60405180910390fd5b6105ac81610884565b50565b5f888888888888888860015f9054906101000a90046001600160a01b03166002546040516105dc90610b25565b6105ef9a999897969594939291906110bb565b604051809103905ff080158015610608573d5f803e3d5ffd5b5090505f896001600160a01b031663313ce5676040518163ffffffff1660e01b8152600401602060405180830381865afa158015610648573d5f803e3d5ffd5b505050506040513d601f19601f8201168201806040525081019061066c9190611038565b90505f61068189604001518a5f015184610733565b90506002548960c0015111801561069b57505f8960a00151115b156106c6576106b960648a60c001518b60400151610377919061106c565b6106c390826110a8565b90505b60405163f2fde38b60e01b81523360048201526001600160a01b0384169063f2fde38b906024015f604051808303815f87803b158015610704575f80fd5b505af1158015610716573d5f803e3d5ffd5b50505050610726818c858861075d565b5050505050505050505050565b5f61073f82600a611260565b6107498486611089565b610753919061106c565b90505b9392505050565b6107726001600160a01b0384163384876108d3565b6003805460018181019092557fc2575a0e9e593c00f959f8c92f12db2869c3395a3b0502d05e2516446f71f85b0180546001600160a01b038086166001600160a01b03199283168117909355335f818152600460209081526040808320805498890181558352912090950180549093169093179091559151918516917ff71c11ab5bd622b01d634c5c9e59846d77ee252871f11645b7b8376ddd4dd3e29061081d908690869061126e565b60405180910390a350505050565b5f546001600160a01b031633146103c25760405162461bcd60e51b815260206004820181905260248201527f4f776e61626c653a2063616c6c6572206973206e6f7420746865206f776e6572604482015260640161059a565b5f80546001600160a01b038381166001600160a01b0319831681178455604051919092169283917f8be0079c531659141344cd1fd0a4f28419497f9722a3daafe3b4186f6b6457e09190a35050565b604080516001600160a01b0385811660248301528416604482015260648082018490528251808303909101815260849091019091526020810180516001600160e01b03166323b872dd60e01b17905261092d908590610933565b50505050565b5f610987826040518060400160405280602081526020017f5361666545524332303a206c6f772d6c6576656c2063616c6c206661696c6564815250856001600160a01b0316610a099092919063ffffffff16565b805190915015610a0457808060200190518101906109a59190611291565b610a045760405162461bcd60e51b815260206004820152602a60248201527f5361666545524332303a204552433230206f7065726174696f6e20646964206e6044820152691bdd081cdd58d8d9595960b21b606482015260840161059a565b505050565b606061075384845f85856001600160a01b0385163b610a6a5760405162461bcd60e51b815260206004820152601d60248201527f416464726573733a2063616c6c20746f206e6f6e2d636f6e7472616374000000604482015260640161059a565b5f80866001600160a01b03168587604051610a8591906112ac565b5f6040518083038185875af1925050503d805f8114610abf576040519150601f19603f3d011682016040523d82523d5f602084013e610ac4565b606091505b5091509150610ad4828286610adf565b979650505050505050565b60608315610aee575081610756565b825115610afe5782518084602001fd5b8160405162461bcd60e51b815260040161059a91906112c2565b61224a806112d583390190565b6129908061351f83390190565b5f60208284031215610b42575f80fd5b5035919050565b6001600160a01b03811681146105ac575f80fd5b634e487b7160e01b5f52604160045260245ffd5b6040516060810167ffffffffffffffff81118282101715610b9457610b94610b5d565b60405290565b5f60e08284031215610baa575f80fd5b60405160e0810167ffffffffffffffff81118282101715610bcd57610bcd610b5d565b604090815283358252602080850135908301528381013590820152606080840135908201526080808401359082015260a0808401359082015260c0928301359281019290925250919050565b5f60608284031215610c29575f80fd5b610c31610b71565b82358152602080840135908201526040928301359281019290925250919050565b5f60608284031215610c62575f80fd5b610c6a610b71565b90508135610c7781610b49565b81526020820135610c8781610b49565b60208201526040820135610c9a81610b49565b604082015292915050565b5f82601f830112610cb4575f80fd5b813567ffffffffffffffff811115610cce57610cce610b5d565b604051601f8201601f19908116603f0116810167ffffffffffffffff81118282101715610cfd57610cfd610b5d565b604052818152838201602001851015610d14575f80fd5b816020850160208301375f918101602001919091529392505050565b80151581146105ac575f80fd5b5f805f805f805f610220888a031215610d54575f80fd5b8735610d5f81610b49565b9650610d6e8960208a01610b9a565b9550610d7e896101008a01610c19565b9450610d8e896101608a01610c52565b93506101c0880135610d9f81610b49565b92506101e088013567ffffffffffffffff811115610dbb575f80fd5b610dc78a828b01610ca5565b925050610200880135610dd981610d30565b8091505092959891949750929550565b5f60208284031215610df9575f80fd5b813561075681610b49565b602080825282518282018190525f918401906040840190835b81811015610e445783516001600160a01b0316835260209384019390920191600101610e1d565b509095945050505050565b5f805f805f805f80610240898b031215610e67575f80fd5b8835610e7281610b49565b97506020890135610e8281610b49565b9650610e918a60408b01610b9a565b9550610ea18a6101208b01610c19565b9450610eb18a6101808b01610c52565b93506101e0890135610ec281610b49565b925061020089013567ffffffffffffffff811115610ede575f80fd5b610eea8b828c01610ca5565b925050610220890135610efc81610d30565b809150509295985092959890939650565b805182526020810151602083015260408101516040830152606081015160608301526080810151608083015260a081015160a083015260c081015160c08301525050565b5f81518084528060208401602086015e5f602082860101526020601f19601f83011685010191505092915050565b6001600160a01b038a168152610f98602082018a610f0d565b87516101008201526020880151610120820152604088015161014082015286516001600160a01b03908116610160830152602088015181166101808301526040880151166101a08201526001600160a01b0386166101c08201526102606101e082018190525f9061100b90830187610f51565b941515610200830152506001600160a01b0392909216610220830152610240909101529695505050505050565b5f60208284031215611048575f80fd5b815160ff81168114610756575f80fd5b634e487b7160e01b5f52601160045260245ffd5b808202811582820484141761108357611083611058565b92915050565b5f826110a357634e487b7160e01b5f52601260045260245ffd5b500490565b8082018082111561108357611083611058565b6001600160a01b038b811682528a1660208201526110dc604082018a610f0d565b87516101208201526020880151610140820152604088015161016082015286516001600160a01b03908116610180830152602088015181166101a08301526040880151166101c08201526001600160a01b0386166101e082015261028061020082018190525f9061114f90830187610f51565b941515610220830152506001600160a01b039290921661024083015261026090910152979650505050505050565b6001815b60018411156111b85780850481111561119c5761119c611058565b60018416156111aa57908102905b60019390931c928002611181565b935093915050565b5f826111ce57506001611083565b816111da57505f611083565b81600181146111f057600281146111fa57611216565b6001915050611083565b60ff84111561120b5761120b611058565b50506001821b611083565b5060208310610133831016604e8410600b8410161715611239575081810a611083565b6112455f19848461117d565b805f190482111561125857611258611058565b029392505050565b5f61075660ff8416836111c0565b6001600160a01b03831681526040602082018190525f9061075390830184610f51565b5f602082840312156112a1575f80fd5b815161075681610d30565b5f82518060208501845e5f920191825250919050565b602081525f6107566020830184610f5156fe60806040526007805460ff19908116909155601980549091169055348015610025575f80fd5b5060405161224a38038061224a833981016040819052610044916104bd565b61004d336101b4565b60018055600280546001600160a01b0319166001600160a01b038b169081179091556040805163313ce56760e01b8152905163313ce567916004808201926020929091908290030181865afa1580156100a8573d5f803e3d5ffd5b505050506040513d601f19601f820116820180604052508101906100cc91906105e2565b60ff16600355601580546001600160a01b038088166001600160a01b0319928316179092556007805486151560ff1990911617905560058054928516929091169190911790556006819055875160085560208801516009556040880151600a556060880151600b556080880151600c5560a0880151600d5560c0880151600e5561015587610203565b8551601280546001600160a01b039283166001600160a01b0319918216179091556020880151601380549184169183169190911790556040880151601480549190931691161790556101a684610304565b505050505050505050610747565b5f80546001600160a01b038381166001600160a01b0319831681178455604051919092169283917f8be0079c531659141344cd1fd0a4f28419497f9722a3daafe3b4186f6b6457e09190a35050565b60208101518151106102825760405162461bcd60e51b815260206004820152603560248201527f53746172742074696d657374616d70206d757374206265206c6573732020202060448201527f7468616e2066696e6973682074696d657374616d70000000000000000000000060648201526084015b60405180910390fd5b428160200151116102ee5760405162461bcd60e51b815260206004820152603060248201527f46696e6973682074696d657374616d70206d757374206265206d6f726520746860448201526f616e2063757272656e7420626c6f636b60801b6064820152608401610279565b8051600f55602081015160105560400151601155565b6004610310828261068d565b5050565b6001600160a01b0381168114610328575f80fd5b50565b634e487b7160e01b5f52604160045260245ffd5b604051606081016001600160401b03811182821017156103615761036161032b565b60405290565b60405160e081016001600160401b03811182821017156103615761036161032b565b5f60608284031215610399575f80fd5b6103a161033f565b82518152602080840151908201526040928301519281019290925250919050565b80516103cd81610314565b919050565b5f606082840312156103e2575f80fd5b6103ea61033f565b905081516103f781610314565b8152602082015161040781610314565b6020820152604082015161041a81610314565b604082015292915050565b5f82601f830112610434575f80fd5b81516001600160401b0381111561044d5761044d61032b565b604051601f8201601f19908116603f011681016001600160401b038111828210171561047b5761047b61032b565b604052818152838201602001851015610492575f80fd5b8160208501602083015e5f918101602001919091529392505050565b805180151581146103cd575f80fd5b5f805f805f805f805f898b036102608112156104d7575f80fd5b8a516104e281610314565b995060e0601f19820112156104f5575f80fd5b506104fe610367565b60208b81015182526040808d0151918301919091526060808d0151918301919091526080808d01519183019190915260a0808d01519183019190915260c0808d01519183019190915260e08c01519082015297506105608b6101008c01610389565b96506105708b6101608c016103d2565b955061057f6101c08b016103c2565b6101e08b01519095506001600160401b0381111561059b575f80fd5b6105a78c828d01610425565b9450506105b76102008b016104ae565b92506105c66102208b016103c2565b91505f6102408b01519050809150509295985092959850929598565b5f602082840312156105f2575f80fd5b815160ff81168114610602575f80fd5b9392505050565b600181811c9082168061061d57607f821691505b60208210810361063b57634e487b7160e01b5f52602260045260245ffd5b50919050565b601f82111561068857805f5260205f20601f840160051c810160208510156106665750805b601f840160051c820191505b81811015610685575f8155600101610672565b50505b505050565b81516001600160401b038111156106a6576106a661032b565b6106ba816106b48454610609565b84610641565b6020601f8211600181146106ec575f83156106d55750848201515b5f19600385901b1c1916600184901b178455610685565b5f84815260208120601f198516915b8281101561071b57878501518255602094850194600190920191016106fb565b508482101561073857868401515f19600387901b60f8161c191681555b50505050600190811b01905550565b611af6806107545f395ff3fe6080604052600436106101ba575f3560e01c806371007509116100f2578063d8d2a56d11610092578063f2fde38b11610062578063f2fde38b1461050e578063f7c618c11461052d578063f84b903e1461054c578063fd46a17114610565575f80fd5b8063d8d2a56d14610466578063ddeae033146104bc578063e7e10490146104db578063f25f4b56146104ef575f80fd5b80638da5cb5b116100cd5780638da5cb5b146103ac5780638e3695b8146103dc578063c5454d111461043f578063d7b96d4e14610447575f80fd5b80637100750914610365578063715018a614610379578063747daec51461038d575f80fd5b8063491447a81161015d578063586360ce11610138578063586360ce14610313578063590e1ae31461032857806362bea93f1461033c57806369e1540414610350575f80fd5b8063491447a8146102cc5780634b1a4c0c146102ea5780634e71d92d146102ff575f80fd5b80632dcc8c66116101985780632dcc8c66146102505780632e007d7c14610271578063313ce5671461028a5780633f138d4b146102ad575f80fd5b8063020a6ffa146101be5780631959a002146101f15780631b9265b814610246575b5f80fd5b3480156101c9575f80fd5b506007546101dc90610100900460ff1681565b60405190151581526020015b60405180910390f35b3480156101fc575f80fd5b5061022b61020b366004611657565b601a6020525f908152604090208054600182015460029092015490919083565b604080519384526020840192909252908201526060016101e8565b61024e61057a565b005b34801561025b575f80fd5b506102646107e1565b6040516101e89190611670565b34801561027c575f80fd5b506007546101dc9060ff1681565b348015610295575f80fd5b5061029f60035481565b6040519081526020016101e8565b3480156102b8575f80fd5b5061024e6102c73660046116a5565b61086d565b3480156102d7575f80fd5b50600f5460105460115461022b92919083565b3480156102f5575f80fd5b5061029f60175481565b34801561030a575f80fd5b5061024e6108a7565b34801561031e575f80fd5b5061029f60185481565b348015610333575f80fd5b5061024e6108b2565b348015610347575f80fd5b5061029f610a5b565b34801561035b575f80fd5b5061029f60065481565b348015610370575f80fd5b5061024e610af2565b348015610384575f80fd5b5061024e610c29565b348015610398575f80fd5b5061024e6103a73660046116e1565b610c3a565b3480156103b7575f80fd5b505f546001600160a01b03165b6040516001600160a01b0390911681526020016101e8565b3480156103e7575f80fd5b50600854600954600a54600b54600c54600d54600e5461040a9695949392919087565b604080519788526020880196909652948601939093526060850191909152608084015260a083015260c082015260e0016101e8565b61024e610c46565b348015610452575f80fd5b506015546103c4906001600160a01b031681565b348015610471575f80fd5b50601254601354601454610492926001600160a01b03908116928116911683565b604080516001600160a01b03948516815292841660208401529216918101919091526060016101e8565b3480156104c7575f80fd5b5061024e6104d6366004611657565b610f75565b3480156104e6575f80fd5b5061024e610f7e565b3480156104fa575f80fd5b506005546103c4906001600160a01b031681565b348015610519575f80fd5b5061024e610528366004611657565b61107c565b348015610538575f80fd5b506002546103c4906001600160a01b031681565b348015610557575f80fd5b506019546101dc9060ff1681565b348015610570575f80fd5b5061029f60165481565b600f544210156105bf5760405162461bcd60e51b815260206004820152600b60248201526a139bdd081cdd185c9d195960aa1b60448201526064015b60405180910390fd5b60105442106105f85760405162461bcd60e51b8152602060048201526005602482015264115b99195960da1b60448201526064016105b6565b600b543410156106415760405162461bcd60e51b815260206004820152601460248201527313195cdcc81d1a195b881b5a5b88185b5bdd5b9d60621b60448201526064016105b6565b600c5434111561068a5760405162461bcd60e51b8152602060048201526014602482015273135bdc99481d1a195b881b585e08185b5bdd5b9d60621b60448201526064016105b6565b600a5460165461069a90346110f2565b11156106d55760405162461bcd60e51b815260206004820152600a60248201526913dd995c999a5b1b195960b21b60448201526064016105b6565b335f908152601a60205260409020600c5460028201546106f590346110f2565b111561073a5760405162461bcd60e51b8152602060048201526014602482015273135bdc99481d1a195b881b585e08185b5bdd5b9d60621b60448201526064016105b6565b5f6107493460085f0154611106565b60165490915061075990346110f2565b60165560175461076990826110f2565b601755600282015461077b90346110f2565b6002830155600182015461078f90826110f2565b600183015581546107a090826110f2565b8255604080513481526020810183905233917fb55d4ca2fc644ca3f8cdc9c907826e24acd68d2b2d4d73f48b8f2378dbaedf5d910160405180910390a25050565b600480546107ee90611794565b80601f016020809104026020016040519081016040528092919081815260200182805461081a90611794565b80156108655780601f1061083c57610100808354040283529160200191610865565b820191905f5260205f20905b81548152906001019060200180831161084857829003601f168201915b505050505081565b61087561112a565b6002546001600160a01b039081169083160361088f575f80fd5b6108a36001600160a01b0383163383611183565b5050565b6108b0336111d5565b565b600754610100900460ff166109005760405162461bcd60e51b8152602060048201526014602482015273141bdbdb081a5cc81b9bdd0818d85b98d95b195960621b60448201526064016105b6565b335f908152601a602052604090206002015461095e5760405162461bcd60e51b815260206004820152601760248201527f4e6f20696e766573746d656e7420746f20726566756e6400000000000000000060448201526064016105b6565b335f908152601a602052604090206002810154806109be5760405162461bcd60e51b815260206004820152601760248201527f596f752068617665206e6f20696e766573746d656e742e00000000000000000060448201526064016105b6565b5f8083556002830181905560018301819055604051339083908381818185875af1925050503d805f8114610a0d576040519150601f19603f3d011682016040523d82523d5f602084013e610a12565b606091505b5050905080610a565760405162461bcd60e51b815260206004820152601060248201526f2a3930b739b332b9103330b4b632b21760811b60448201526064016105b6565b505050565b6002546040516370a0823160e01b81523060048201525f9182916001600160a01b03909116906370a0823190602401602060405180830381865afa158015610aa5573d5f803e3d5ffd5b505050506040513d601f19601f82011682018060405250810190610ac991906117cc565b9050610aec601754610ae6601854846110f290919063ffffffff16565b9061137d565b91505090565b610afa61112a565b600754610100900460ff16610b485760405162461bcd60e51b8152602060048201526014602482015273141bdbdb081a5cc81b9bdd0818d85b98d95b195960621b60448201526064016105b6565b6002546040516370a0823160e01b81523060048201525f916001600160a01b0316906370a0823190602401602060405180830381865afa158015610b8e573d5f803e3d5ffd5b505050506040513d601f19601f82011682018060405250810190610bb291906117cc565b90505f8111610c0f5760405162461bcd60e51b815260206004820152602360248201527f5468652049444f20706f6f6c20686173206e6f7420726566756e6420746f6b6560448201526237399760e91b60648201526084016105b6565b600254610c26906001600160a01b03163383611183565b50565b610c3161112a565b6108b05f611388565b60046108a3828261182e565b610c4e61112a565b6010544211610c9f5760405162461bcd60e51b815260206004820152601b60248201527f5468652049444f20706f6f6c20686173206e6f7420656e6465642e000000000060448201526064016105b6565b6009546016541015610cc35760405162461bcd60e51b81526004016105b6906118e9565b60195460ff1615610d0d5760405162461bcd60e51b815260206004820152601460248201527320b63932b0b23c903234b9ba3934b13aba32b21760611b60448201526064016105b6565b5f610d31612710610d2b6006546016546113d790919063ffffffff16565b906113e2565b601654909150610d41908261137d565b6016556005546040515f916001600160a01b03169083908381818185875af1925050503d805f8114610d8e576040519150601f19603f3d011682016040523d82523d5f602084013e610d93565b606091505b5050905080610de45760405162461bcd60e51b815260206004820152601c60248201527f506c6174666f726d20666565207472616e73666572206661696c65640000000060448201526064016105b6565b5f610ded610a5b565b60075490915060ff1615610e1957600254610e14906001600160a01b031661dead83611183565b610e8b565b5f8111610e745760405162461bcd60e51b815260206004820152602360248201527f5468652049444f20706f6f6c20686173206e6f7420756e736f6c6420746f6b6560448201526237399760e91b60648201526084016105b6565b600254610e8b906001600160a01b03163383611183565b4780610ed95760405162461bcd60e51b815260206004820152601860248201527f4e6f7420456e6f7567682046756e647320696e20506f6f6c000000000000000060448201526064016105b6565b6040515f90339083908381818185875af1925050503d805f8114610f18576040519150601f19603f3d011682016040523d82523d5f602084013e610f1d565b606091505b5050905080610f615760405162461bcd60e51b815260206004820152601060248201526f2a3930b739b332b9103330b4b632b21760811b60448201526064016105b6565b50506019805460ff19166001179055505050565b610c26816111d5565b610f8661112a565b600754610100900460ff1615610fd65760405162461bcd60e51b8152602060048201526015602482015274141bdbdb08185b1c9958591e4818d85b98d95b1959605a1b60448201526064016105b6565b60105442106110315760405162461bcd60e51b815260206004820152602160248201527f43616e6e6f742063616e63656c206166746572207468652073616c6520656e646044820152607360f81b60648201526084016105b6565b6007805461ff0019166101001790556040517f3d229dd60fc64b0903758feed58453f62e715f5d01dc0978c0a3a312dd2776c2906110729042815260200190565b60405180910390a1565b61108461112a565b6001600160a01b0381166110e95760405162461bcd60e51b815260206004820152602660248201527f4f776e61626c653a206e6577206f776e657220697320746865207a65726f206160448201526564647265737360d01b60648201526084016105b6565b610c2681611388565b5f6110fd8284611941565b90505b92915050565b5f600354600a6111169190611a37565b6111208385611a42565b6110fd9190611a61565b5f546001600160a01b031633146108b05760405162461bcd60e51b815260206004820181905260248201527f4f776e61626c653a2063616c6c6572206973206e6f7420746865206f776e657260448201526064016105b6565b604080516001600160a01b038416602482015260448082018490528251808303909101815260649091019091526020810180516001600160e01b031663a9059cbb60e01b179052610a569084906113ed565b6002600154036112275760405162461bcd60e51b815260206004820152601f60248201527f5265656e7472616e637947756172643a207265656e7472616e742063616c6c0060448201526064016105b6565b6002600155601054421161127d5760405162461bcd60e51b815260206004820152601b60248201527f5468652049444f20706f6f6c20686173206e6f7420656e6465642e000000000060448201526064016105b6565b60095460165410156112a15760405162461bcd60e51b81526004016105b6906118e9565b6001600160a01b0381165f908152601a602052604090208054806113075760405162461bcd60e51b815260206004820152601c60248201527f596f7520646f206e6f742068617665206465627420746f6b656e732e0000000060448201526064016105b6565b5f825560185461131790826110f2565b601855600254611331906001600160a01b03168483611183565b826001600160a01b03167f6352c5382c4a4578e712449ca65e83cdb392d045dfcf1cad9615189db2da244b8260405161136c91815260200190565b60405180910390a250506001805550565b5f6110fd8284611a78565b5f80546001600160a01b038381166001600160a01b0319831681178455604051919092169283917f8be0079c531659141344cd1fd0a4f28419497f9722a3daafe3b4186f6b6457e09190a35050565b5f6110fd8284611a61565b5f6110fd8284611a42565b5f611441826040518060400160405280602081526020017f5361666545524332303a206c6f772d6c6576656c2063616c6c206661696c6564815250856001600160a01b03166114be9092919063ffffffff16565b805190915015610a56578080602001905181019061145f9190611a8b565b610a565760405162461bcd60e51b815260206004820152602a60248201527f5361666545524332303a204552433230206f7065726174696f6e20646964206e6044820152691bdd081cdd58d8d9595960b21b60648201526084016105b6565b60606114cc84845f856114d6565b90505b9392505050565b6060824710156115375760405162461bcd60e51b815260206004820152602660248201527f416464726573733a20696e73756666696369656e742062616c616e636520666f6044820152651c8818d85b1b60d21b60648201526084016105b6565b6001600160a01b0385163b61158e5760405162461bcd60e51b815260206004820152601d60248201527f416464726573733a2063616c6c20746f206e6f6e2d636f6e747261637400000060448201526064016105b6565b5f80866001600160a01b031685876040516115a99190611aaa565b5f6040518083038185875af1925050503d805f81146115e3576040519150601f19603f3d011682016040523d82523d5f602084013e6115e8565b606091505b50915091506115f8828286611603565b979650505050505050565b606083156116125750816114cf565b8251156116225782518084602001fd5b8160405162461bcd60e51b81526004016105b69190611670565b80356001600160a01b0381168114611652575f80fd5b919050565b5f60208284031215611667575f80fd5b6110fd8261163c565b602081525f82518060208401528060208501604085015e5f604082850101526040601f19601f83011684010191505092915050565b5f80604083850312156116b6575f80fd5b6116bf8361163c565b946020939093013593505050565b634e487b7160e01b5f52604160045260245ffd5b5f602082840312156116f1575f80fd5b813567ffffffffffffffff811115611707575f80fd5b8201601f81018413611717575f80fd5b803567ffffffffffffffff811115611731576117316116cd565b604051601f8201601f19908116603f0116810167ffffffffffffffff81118282101715611760576117606116cd565b604052818152828201602001861015611777575f80fd5b816020840160208301375f91810160200191909152949350505050565b600181811c908216806117a857607f821691505b6020821081036117c657634e487b7160e01b5f52602260045260245ffd5b50919050565b5f602082840312156117dc575f80fd5b5051919050565b601f821115610a5657805f5260205f20601f840160051c810160208510156118085750805b601f840160051c820191505b81811015611827575f8155600101611814565b5050505050565b815167ffffffffffffffff811115611848576118486116cd565b61185c816118568454611794565b846117e3565b6020601f82116001811461188e575f83156118775750848201515b5f19600385901b1c1916600184901b178455611827565b5f84815260208120601f198516915b828110156118bd578785015182556020948501946001909201910161189d565b50848210156118da57868401515f19600387901b60f8161c191681555b50505050600190811b01905550565b60208082526024908201527f5468652049444f20706f6f6c20646964206e6f7420726561636820736f66742060408201526331b0b81760e11b606082015260800190565b634e487b7160e01b5f52601160045260245ffd5b808201808211156111005761110061192d565b6001815b600184111561198f578085048111156119735761197361192d565b600184161561198157908102905b60019390931c928002611958565b935093915050565b5f826119a557506001611100565b816119b157505f611100565b81600181146119c757600281146119d1576119ed565b6001915050611100565b60ff8411156119e2576119e261192d565b50506001821b611100565b5060208310610133831016604e8410600b8410161715611a10575081810a611100565b611a1c5f198484611954565b805f1904821115611a2f57611a2f61192d565b029392505050565b5f6110fd8383611997565b5f82611a5c57634e487b7160e01b5f52601260045260245ffd5b500490565b80820281158282048414176111005761110061192d565b818103818111156111005761110061192d565b5f60208284031215611a9b575f80fd5b815180151581146114cf575f80fd5b5f82518060208501845e5f92019182525091905056fea2646970667358221220524664a26bbe117a5d3d05b720b96aac41f5ed9ac676e7d4043aacb028f4054264736f6c634300081a003360806040526007805460ff19908116909155601a80549091169055348015610025575f80fd5b5060405161299038038061299083398101604081905261004491610548565b61004d3361024a565b60018055600280546001600160a01b0319166001600160a01b038c169081179091556040805163313ce56760e01b8152905163313ce567916004808201926020929091908290030181865afa1580156100a8573d5f803e3d5ffd5b505050506040513d601f19601f820116820180604052508101906100cc919061067c565b60ff16600355601680546001600160a01b0319166001600160a01b03878116919091179091556007805462010000600160b01b031916620100008c8416810291909117918290556040805163313ce56760e01b81529051919092049092169163313ce567916004808201926020929091908290030181865afa158015610154573d5f803e3d5ffd5b505050506040513d601f19601f82011682018060405250810190610178919061067c565b60ff166008556007805460ff1916841515179055600580546001600160a01b0319166001600160a01b038416179055600681905587516009556020880151600a556040880151600b556060880151600c556080880151600d5560a0880151600e5560c0880151600f556101ea87610299565b8551601380546001600160a01b039283166001600160a01b03199182161790915560208801516014805491841691831691909117905560408801516015805491909316911617905561023b8461038f565b505050505050505050506107e1565b5f80546001600160a01b038381166001600160a01b0319831681178455604051919092169283917f8be0079c531659141344cd1fd0a4f28419497f9722a3daafe3b4186f6b6457e09190a35050565b602081015181511061030d5760405162461bcd60e51b815260206004820152603260248201527f53746172742074696d657374616d70206d757374206265206c6573732074686160448201527106e2066696e6973682074696d657374616d760741b60648201526084015b60405180910390fd5b428160200151116103795760405162461bcd60e51b815260206004820152603060248201527f46696e6973682074696d657374616d70206d757374206265206d6f726520746860448201526f616e2063757272656e7420626c6f636b60801b6064820152608401610304565b8051601055602081015160115560400151601255565b600461039b8282610727565b5050565b6001600160a01b03811681146103b3575f80fd5b50565b634e487b7160e01b5f52604160045260245ffd5b604051606081016001600160401b03811182821017156103ec576103ec6103b6565b60405290565b60405160e081016001600160401b03811182821017156103ec576103ec6103b6565b5f60608284031215610424575f80fd5b61042c6103ca565b82518152602080840151908201526040928301519281019290925250919050565b80516104588161039f565b919050565b5f6060828403121561046d575f80fd5b6104756103ca565b905081516104828161039f565b815260208201516104928161039f565b602082015260408201516104a58161039f565b604082015292915050565b5f82601f8301126104bf575f80fd5b81516001600160401b038111156104d8576104d86103b6565b604051601f8201601f19908116603f011681016001600160401b0381118282101715610506576105066103b6565b60405281815283820160200185101561051d575f80fd5b8160208501602083015e5f918101602001919091529392505050565b80518015158114610458575f80fd5b5f805f805f805f805f808a8c03610280811215610563575f80fd5b8b5161056e8161039f565b60208d0151909b5061057f8161039f565b995060e0603f1982011215610592575f80fd5b5061059b6103f2565b60408c81015182526060808e015160208401526080808f01519284019290925260a0808f01519184019190915260c0808f01519284019290925260e08e0151908301526101008d01519082015297506105f88c6101208d01610414565b96506106088c6101808d0161045d565b95506106176101e08c0161044d565b6102008c01519095506001600160401b03811115610633575f80fd5b61063f8d828e016104b0565b94505061064f6102208c01610539565b925061065e6102408c0161044d565b91505f6102608c01519050809150509295989b9194979a5092959850565b5f6020828403121561068c575f80fd5b815160ff8116811461069c575f80fd5b9392505050565b600181811c908216806106b757607f821691505b6020821081036106d557634e487b7160e01b5f52602260045260245ffd5b50919050565b601f82111561072257805f5260205f20601f840160051c810160208510156107005750805b601f840160051c820191505b8181101561071f575f815560010161070c565b50505b505050565b81516001600160401b03811115610740576107406103b6565b6107548161074e84546106a3565b846106db565b6020601f821160018114610786575f831561076f5750848201515b5f19600385901b1c1916600184901b17845561071f565b5f84815260208120601f198516915b828110156107b55787850151825560209485019460019092019101610795565b50848210156107d257868401515f19600387901b60f8161c191681555b50505050600190811b01905550565b6121a2806107ee5f395ff3fe6080604052600436106101c5575f3560e01c8063715018a6116100f2578063c5454d1111610092578063f25f4b5611610062578063f25f4b561461054c578063f2fde38b1461056b578063f7c618c11461058a578063f84b903e146105a9575f80fd5b8063c5454d11146104b0578063d7b96d4e146104b8578063d8d2a56d146104d7578063ddeae0331461052d575f80fd5b80638da5cb5b116100cd5780638da5cb5b146103d95780638e3695b81461040957806396336b301461046c578063c290d69114610491575f80fd5b8063715018a614610391578063747daec5146103a55780637fd6f15c146103c4575f80fd5b80634b1a4c0c11610168578063590e1ae311610138578063590e1ae31461034057806362bea93f146103545780636444e37b14610368578063710075091461037d575f80fd5b80634b1a4c0c146102ed5780634e71d92d146103025780635216aeec14610316578063586360ce1461032b575f80fd5b80632e007d7c116101a35780632e007d7c14610272578063313ce5671461028b5780633f138d4b146102ae578063491447a8146102cf575f80fd5b8063020a6ffa146101c95780631959a002146101fc5780632dcc8c6614610251575b5f80fd5b3480156101d4575f80fd5b506007546101e790610100900460ff1681565b60405190151581526020015b60405180910390f35b348015610207575f80fd5b50610236610216366004611b8e565b601b6020525f908152604090208054600182015460029092015490919083565b604080519384526020840192909252908201526060016101f3565b34801561025c575f80fd5b506102656105c2565b6040516101f39190611bd7565b34801561027d575f80fd5b506007546101e79060ff1681565b348015610296575f80fd5b506102a060035481565b6040519081526020016101f3565b3480156102b9575f80fd5b506102cd6102c8366004611be9565b61064e565b005b3480156102da575f80fd5b5060105460115460125461023692919083565b3480156102f8575f80fd5b506102a060185481565b34801561030d575f80fd5b506102cd610688565b348015610321575f80fd5b506102a060175481565b348015610336575f80fd5b506102a060195481565b34801561034b575f80fd5b506102cd610693565b34801561035f575f80fd5b506102a061079d565b348015610373575f80fd5b506102a060085481565b348015610388575f80fd5b506102cd610834565b34801561039c575f80fd5b506102cd610991565b3480156103b0575f80fd5b506102cd6103bf366004611c7f565b6109a2565b3480156103cf575f80fd5b506102a060065481565b3480156103e4575f80fd5b505f546001600160a01b03165b6040516001600160a01b0390911681526020016101f3565b348015610414575f80fd5b50600954600a54600b54600c54600d54600e54600f546104379695949392919087565b604080519788526020880196909652948601939093526060850191909152608084015260a083015260c082015260e0016101f3565b348015610477575f80fd5b506007546103f1906201000090046001600160a01b031681565b34801561049c575f80fd5b506102cd6104ab366004611cf9565b6109ae565b6102cd610c2f565b3480156104c3575f80fd5b506016546103f1906001600160a01b031681565b3480156104e2575f80fd5b50601354601454601554610503926001600160a01b03908116928116911683565b604080516001600160a01b03948516815292841660208401529216918101919091526060016101f3565b348015610538575f80fd5b506102cd610547366004611b8e565b6115b1565b348015610557575f80fd5b506005546103f1906001600160a01b031681565b348015610576575f80fd5b506102cd610585366004611b8e565b6115ba565b348015610595575f80fd5b506002546103f1906001600160a01b031681565b3480156105b4575f80fd5b50601a546101e79060ff1681565b600480546105cf90611d10565b80601f01602080910402602001604051908101604052809291908181526020018280546105fb90611d10565b80156106465780601f1061061d57610100808354040283529160200191610646565b820191905f5260205f20905b81548152906001019060200180831161062957829003601f168201915b505050505081565b610656611630565b6002546001600160a01b0390811690831603610670575f80fd5b6106846001600160a01b0383163383611689565b5050565b610691336116f1565b565b60115442116106bd5760405162461bcd60e51b81526004016106b490611d48565b60405180910390fd5b600a54601754106107105760405162461bcd60e51b815260206004820181905260248201527f5468652049444f20706f6f6c2068617320726561636820736f6674206361702e60448201526064016106b4565b335f908152601b602052604090206002810154806107705760405162461bcd60e51b815260206004820152601760248201527f596f752068617665206e6f20696e766573746d656e742e00000000000000000060448201526064016106b4565b5f808355600283018190556001830155600754610684906201000090046001600160a01b03163383611689565b6002546040516370a0823160e01b81523060048201525f9182916001600160a01b03909116906370a0823190602401602060405180830381865afa1580156107e7573d5f803e3d5ffd5b505050506040513d601f19601f8201168201806040525081019061080b9190611d7f565b905061082e6018546108286019548461184590919063ffffffff16565b90611859565b91505090565b61083c611630565b601154421161085d5760405162461bcd60e51b81526004016106b490611d48565b600a54601754106108b05760405162461bcd60e51b815260206004820181905260248201527f5468652049444f20706f6f6c2068617320726561636820736f6674206361702e60448201526064016106b4565b6002546040516370a0823160e01b81523060048201525f916001600160a01b0316906370a0823190602401602060405180830381865afa1580156108f6573d5f803e3d5ffd5b505050506040513d601f19601f8201168201806040525081019061091a9190611d7f565b90505f81116109775760405162461bcd60e51b815260206004820152602360248201527f5468652049444f20706f6f6c20686173206e6f7420726566756e6420746f6b6560448201526237399760e91b60648201526084016106b4565b60025461098e906001600160a01b03163383611689565b50565b610999611630565b6106915f611864565b60046106848282611de1565b6010544210156109ee5760405162461bcd60e51b815260206004820152600b60248201526a139bdd081cdd185c9d195960aa1b60448201526064016106b4565b6011544210610a275760405162461bcd60e51b8152602060048201526005602482015264115b99195960da1b60448201526064016106b4565b600c54811015610a705760405162461bcd60e51b815260206004820152601460248201527313195cdcc81d1a195b881b5a5b88185b5bdd5b9d60621b60448201526064016106b4565b600d54811115610ab95760405162461bcd60e51b8152602060048201526014602482015273135bdc99481d1a195b881b585e08185b5bdd5b9d60621b60448201526064016106b4565b600b54601754610ac99083611845565b1115610b045760405162461bcd60e51b815260206004820152600a60248201526913dd995c999a5b1b195960b21b60448201526064016106b4565b335f908152601b60205260409020600d546002820154610b249084611845565b1115610b695760405162461bcd60e51b8152602060048201526014602482015273135bdc99481d1a195b881b585e08185b5bdd5b9d60621b60448201526064016106b4565b5f610b788360095f01546118b3565b600754909150610b99906201000090046001600160a01b03163330866118d7565b601754610ba69084611845565b601755601854610bb69082611845565b6018556002820154610bc89084611845565b60028301556001820154610bdc9082611845565b60018301558154610bed9082611845565b8255604080518481526020810183905233917fb55d4ca2fc644ca3f8cdc9c907826e24acd68d2b2d4d73f48b8f2378dbaedf5d910160405180910390a2505050565b610c37611630565b6011544211610c585760405162461bcd60e51b81526004016106b490611d48565b600a546017541015610cb85760405162461bcd60e51b8152602060048201526024808201527f5468652049444f20706f6f6c20646964206e6f7420726561636820736f66742060448201526331b0b81760e11b60648201526084016106b4565b601a5460ff1615610d025760405162461bcd60e51b815260206004820152601460248201527320b63932b0b23c903234b9ba3934b13aba32b21760611b60448201526064016106b4565b5f610d26612710610d2060065460175461191590919063ffffffff16565b90611920565b601754909150610d369082611859565b60175560075460055460405163a9059cbb60e01b81526001600160a01b039182166004820152602481018490525f926201000090049091169063a9059cbb906044016020604051808303815f875af1158015610d94573d5f803e3d5ffd5b505050506040513d601f19601f82011682018060405250810190610db89190611e9c565b905080610df95760405162461bcd60e51b815260206004820152600f60248201526e1d1c985b9cd9995c8811985a5b1959608a1b60448201526064016106b4565b5f610e0261079d565b60075490915060ff1615610e2e57600254610e29906001600160a01b031661dead83611689565b610ea0565b5f8111610e895760405162461bcd60e51b815260206004820152602360248201527f5468652049444f20706f6f6c20686173206e6f7420756e736f6c6420746f6b6560448201526237399760e91b60648201526084016106b4565b600254610ea0906001600160a01b03163383611689565b6007546040516370a0823160e01b81523060048201525f916201000090046001600160a01b0316906370a0823190602401602060405180830381865afa158015610eec573d5f803e3d5ffd5b505050506040513d601f19601f82011682018060405250810190610f109190611d7f565b90505f8111610f545760405162461bcd60e51b815260206004820152601060248201526f02737ba1022b737bab3b410233ab732160851b60448201526064016106b4565b600f5415801590610f665750600e5415155b156114e257600f545f90606490610f7d9084611ecf565b610f879190611ee6565b90505f610f948284611f05565b90505f610fa6836009600501546118b3565b60135460025460405163095ea7b360e01b81526001600160a01b03928316600482018190526024820185905293945091169063095ea7b3906044016020604051808303815f875af1158015610ffd573d5f803e3d5ffd5b505050506040513d601f19601f820116820180604052508101906110219190611e9c565b5060075460405163095ea7b360e01b81526001600160a01b03838116600483015260248201879052620100009092049091169063095ea7b3906044016020604051808303815f875af1158015611079573d5f803e3d5ffd5b505050506040513d601f19601f8201168201806040525081019061109d9190611e9c565b505f816001600160a01b031663e8e3370060025f9054906101000a90046001600160a01b0316600760029054906101000a90046001600160a01b031686895f8030601060020154426110ef9190611f18565b60405160e08a901b6001600160e01b03191681526001600160a01b039889166004820152968816602488015260448701959095526064860193909352608485019190915260a484015290921660c482015260e4810191909152610104016060604051808303815f875af1158015611168573d5f803e3d5ffd5b505050506040513d601f19601f8201168201806040525081019061118c9190611f2b565b60145460025460075460405163e6a4390560e01b81526001600160a01b03928316600482015262010000909104821660248201529295505f945016915063e6a4390590604401602060405180830381865afa1580156111ed573d5f803e3d5ffd5b505050506040513d601f19601f820116820180604052508101906112119190611f56565b60125490915081904210156113ab5760165460405163095ea7b360e01b81526001600160a01b039182166004820152602481018590529082169063095ea7b3906044016020604051808303815f875af1158015611270573d5f803e3d5ffd5b505050506040513d601f19601f820116820180604052508101906112949190611e9c565b5060165f9054906101000a90046001600160a01b03166001600160a01b031663072793573384600187601060020154876001600160a01b03166395d89b416040518163ffffffff1660e01b81526004015f60405180830381865afa1580156112fe573d5f803e3d5ffd5b505050506040513d5f823e601f3d908101601f191682016040526113259190810190611f71565b6040516020016113359190611ffd565b6040516020818303038152906040526040518763ffffffff1660e01b815260040161136596959493929190612026565b6020604051808303815f875af1158015611381573d5f803e3d5ffd5b505050506040513d601f19601f820116820180604052508101906113a59190611d7f565b5061141b565b60405163a9059cbb60e01b8152336004820152602481018490526001600160a01b0382169063a9059cbb906044016020604051808303815f875af11580156113f5573d5f803e3d5ffd5b505050506040513d601f19601f820116820180604052508101906114199190611e9c565b505b60075460405163a9059cbb60e01b8152336004820152602481018890525f916201000090046001600160a01b03169063a9059cbb906044016020604051808303815f875af115801561146f573d5f803e3d5ffd5b505050506040513d601f19601f820116820180604052508101906114939190611e9c565b9050806114d55760405162461bcd60e51b815260206004820152601060248201526f2a3930b739b332b9103330b4b632b21760811b60448201526064016106b4565b505050505050505061159e565b60075460405163a9059cbb60e01b8152336004820152602481018390525f916201000090046001600160a01b03169063a9059cbb906044016020604051808303815f875af1158015611536573d5f803e3d5ffd5b505050506040513d601f19601f8201168201806040525081019061155a9190611e9c565b90508061159c5760405162461bcd60e51b815260206004820152601060248201526f2a3930b739b332b9103330b4b632b21760811b60448201526064016106b4565b505b5050601a805460ff191660011790555050565b61098e816116f1565b6115c2611630565b6001600160a01b0381166116275760405162461bcd60e51b815260206004820152602660248201527f4f776e61626c653a206e6577206f776e657220697320746865207a65726f206160448201526564647265737360d01b60648201526084016106b4565b61098e81611864565b5f546001600160a01b031633146106915760405162461bcd60e51b815260206004820181905260248201527f4f776e61626c653a2063616c6c6572206973206e6f7420746865206f776e657260448201526064016106b4565b6040516001600160a01b0383166024820152604481018290526116ec90849063a9059cbb60e01b906064015b60408051601f198184030181529190526020810180516001600160e01b03166001600160e01b03199093169290921790915261192b565b505050565b6002600154036117435760405162461bcd60e51b815260206004820152601f60248201527f5265656e7472616e637947756172643a207265656e7472616e742063616c6c0060448201526064016106b4565b600260015560115442116117695760405162461bcd60e51b81526004016106b490611d48565b6001600160a01b0381165f908152601b602052604090208054806117cf5760405162461bcd60e51b815260206004820152601c60248201527f596f7520646f206e6f742068617665206465627420746f6b656e732e0000000060448201526064016106b4565b5f82556019546117df9082611845565b6019556002546117f9906001600160a01b03168483611689565b826001600160a01b03167f6352c5382c4a4578e712449ca65e83cdb392d045dfcf1cad9615189db2da244b8260405161183491815260200190565b60405180910390a250506001805550565b5f6118508284611f18565b90505b92915050565b5f6118508284611f05565b5f80546001600160a01b038381166001600160a01b0319831681178455604051919092169283917f8be0079c531659141344cd1fd0a4f28419497f9722a3daafe3b4186f6b6457e09190a35050565b5f600354600a6118c39190612156565b6118cd8385611ee6565b6118509190611ecf565b6040516001600160a01b038085166024830152831660448201526064810182905261190f9085906323b872dd60e01b906084016116b5565b50505050565b5f6118508284611ecf565b5f6118508284611ee6565b5f61197f826040518060400160405280602081526020017f5361666545524332303a206c6f772d6c6576656c2063616c6c206661696c6564815250856001600160a01b03166119fc9092919063ffffffff16565b8051909150156116ec578080602001905181019061199d9190611e9c565b6116ec5760405162461bcd60e51b815260206004820152602a60248201527f5361666545524332303a204552433230206f7065726174696f6e20646964206e6044820152691bdd081cdd58d8d9595960b21b60648201526084016106b4565b6060611a0a84845f85611a14565b90505b9392505050565b606082471015611a755760405162461bcd60e51b815260206004820152602660248201527f416464726573733a20696e73756666696369656e742062616c616e636520666f6044820152651c8818d85b1b60d21b60648201526084016106b4565b6001600160a01b0385163b611acc5760405162461bcd60e51b815260206004820152601d60248201527f416464726573733a2063616c6c20746f206e6f6e2d636f6e747261637400000060448201526064016106b4565b5f80866001600160a01b03168587604051611ae79190612161565b5f6040518083038185875af1925050503d805f8114611b21576040519150601f19603f3d011682016040523d82523d5f602084013e611b26565b606091505b5091509150611b36828286611b41565b979650505050505050565b60608315611b50575081611a0d565b825115611b605782518084602001fd5b8160405162461bcd60e51b81526004016106b49190611bd7565b6001600160a01b038116811461098e575f80fd5b5f60208284031215611b9e575f80fd5b8135611a0d81611b7a565b5f81518084528060208401602086015e5f602082860101526020601f19601f83011685010191505092915050565b602081525f6118506020830184611ba9565b5f8060408385031215611bfa575f80fd5b8235611c0581611b7a565b946020939093013593505050565b634e487b7160e01b5f52604160045260245ffd5b604051601f8201601f1916810167ffffffffffffffff81118282101715611c5057611c50611c13565b604052919050565b5f67ffffffffffffffff821115611c7157611c71611c13565b50601f01601f191660200190565b5f60208284031215611c8f575f80fd5b813567ffffffffffffffff811115611ca5575f80fd5b8201601f81018413611cb5575f80fd5b8035611cc8611cc382611c58565b611c27565b818152856020838501011115611cdc575f80fd5b816020840160208301375f91810160200191909152949350505050565b5f60208284031215611d09575f80fd5b5035919050565b600181811c90821680611d2457607f821691505b602082108103611d4257634e487b7160e01b5f52602260045260245ffd5b50919050565b6020808252601b908201527f5468652049444f20706f6f6c20686173206e6f7420656e6465642e0000000000604082015260600190565b5f60208284031215611d8f575f80fd5b5051919050565b601f8211156116ec57805f5260205f20601f840160051c81016020851015611dbb5750805b601f840160051c820191505b81811015611dda575f8155600101611dc7565b5050505050565b815167ffffffffffffffff811115611dfb57611dfb611c13565b611e0f81611e098454611d10565b84611d96565b6020601f821160018114611e41575f8315611e2a5750848201515b5f19600385901b1c1916600184901b178455611dda565b5f84815260208120601f198516915b82811015611e705787850151825560209485019460019092019101611e50565b5084821015611e8d57868401515f19600387901b60f8161c191681555b50505050600190811b01905550565b5f60208284031215611eac575f80fd5b81518015158114611a0d575f80fd5b634e487b7160e01b5f52601160045260245ffd5b808202811582820484141761185357611853611ebb565b5f82611f0057634e487b7160e01b5f52601260045260245ffd5b500490565b8181038181111561185357611853611ebb565b8082018082111561185357611853611ebb565b5f805f60608486031215611f3d575f80fd5b5050815160208301516040909301519094929350919050565b5f60208284031215611f66575f80fd5b8151611a0d81611b7a565b5f60208284031215611f81575f80fd5b815167ffffffffffffffff811115611f97575f80fd5b8201601f81018413611fa7575f80fd5b8051611fb5611cc382611c58565b818152856020838501011115611fc9575f80fd5b8160208401602083015e5f91810160200191909152949350505050565b5f81518060208401855e5f93019283525090919050565b5f6120088284611fe6565b6d103a37b5b2b739903637b1b5b2b960911b8152600e019392505050565b6001600160a01b038781168252861660208201528415156040820152606081018490526080810183905260c060a082018190525f9061206790830184611ba9565b98975050505050505050565b6001815b60018411156120ae5780850481111561209257612092611ebb565b60018416156120a057908102905b60019390931c928002612077565b935093915050565b5f826120c457506001611853565b816120d057505f611853565b81600181146120e657600281146120f05761210c565b6001915050611853565b60ff84111561210157612101611ebb565b50506001821b611853565b5060208310610133831016604e8410600b841016171561212f575081810a611853565b61213b5f198484612073565b805f190482111561214e5761214e611ebb565b029392505050565b5f61185083836120b6565b5f6118508284611fe656fea264697066735822122057fd2a0e7c720702135b4b15597a7810ce612f6e20ca71c963e468e789a1a02964736f6c634300081a0033a26469706673582212207efa6904390edd067cec25d9dcc444d174c577f2d997b9a408cd3081aaa1fbdc64736f6c634300081a0033",
  "linkReferences": {},
  "deployedLinkReferences": {}
}